{
  "contractName": "AtomicSwapEtherToERC20",
  "abi": [
    {
      "anonymous": false,
      "inputs": [
        {
          "indexed": false,
          "internalType": "bytes32",
          "name": "_swapID",
          "type": "bytes32"
        }
      ],
      "name": "Close",
      "type": "event"
    },
    {
      "anonymous": false,
      "inputs": [
        {
          "indexed": false,
          "internalType": "bytes32",
          "name": "_swapID",
          "type": "bytes32"
        }
      ],
      "name": "Expire",
      "type": "event"
    },
    {
      "anonymous": false,
      "inputs": [
        {
          "indexed": false,
          "internalType": "bytes32",
          "name": "_swapID",
          "type": "bytes32"
        },
        {
          "indexed": false,
          "internalType": "address",
          "name": "_closeTrader",
          "type": "address"
        }
      ],
      "name": "Open",
      "type": "event"
    },
    {
      "constant": false,
      "inputs": [
        {
          "internalType": "bytes32",
          "name": "_swapID",
          "type": "bytes32"
        },
        {
          "internalType": "uint256",
          "name": "_erc20Value",
          "type": "uint256"
        },
        {
          "internalType": "address payable",
          "name": "_erc20Trader",
          "type": "address"
        },
        {
          "internalType": "address",
          "name": "_erc20ContractAddress",
          "type": "address"
        }
      ],
      "name": "open",
      "outputs": [],
      "payable": true,
      "stateMutability": "payable",
      "type": "function"
    },
    {
      "constant": false,
      "inputs": [
        {
          "internalType": "bytes32",
          "name": "_swapID",
          "type": "bytes32"
        }
      ],
      "name": "close",
      "outputs": [],
      "payable": false,
      "stateMutability": "nonpayable",
      "type": "function"
    },
    {
      "constant": false,
      "inputs": [
        {
          "internalType": "bytes32",
          "name": "_swapID",
          "type": "bytes32"
        }
      ],
      "name": "expire",
      "outputs": [],
      "payable": false,
      "stateMutability": "nonpayable",
      "type": "function"
    },
    {
      "constant": true,
      "inputs": [
        {
          "internalType": "bytes32",
          "name": "_swapID",
          "type": "bytes32"
        }
      ],
      "name": "check",
      "outputs": [
        {
          "internalType": "uint256",
          "name": "value",
          "type": "uint256"
        },
        {
          "internalType": "uint256",
          "name": "erc20Value",
          "type": "uint256"
        },
        {
          "internalType": "address",
          "name": "erc20Trader",
          "type": "address"
        },
        {
          "internalType": "address",
          "name": "erc20ContractAddress",
          "type": "address"
        }
      ],
      "payable": false,
      "stateMutability": "view",
      "type": "function"
    }
  ],
  "bytecode": "0x608060405234801561001057600080fd5b50610cf2806100206000396000f3fe60806040526004361061003f5760003560e01c8063399e07921461004457806339c79e0c146101005780636e7923151461013b578063c6441798146101b3575b600080fd5b34801561005057600080fd5b5061007d6004803603602081101561006757600080fd5b81019080803590602001909291905050506101ee565b604051808581526020018481526020018373ffffffffffffffffffffffffffffffffffffffff1673ffffffffffffffffffffffffffffffffffffffff1681526020018273ffffffffffffffffffffffffffffffffffffffff1673ffffffffffffffffffffffffffffffffffffffff16815260200194505050505060405180910390f35b34801561010c57600080fd5b506101396004803603602081101561012357600080fd5b8101908080359060200190929190505050610358565b005b6101b16004803603608081101561015157600080fd5b810190808035906020019092919080359060200190929190803573ffffffffffffffffffffffffffffffffffffffff169060200190929190803573ffffffffffffffffffffffffffffffffffffffff1690602001909291905050506107ae565b005b3480156101bf57600080fd5b506101ec600480360360208110156101d657600080fd5b8101908080359060200190929190505050610a0b565b005b6000806000806101fc610c4c565b6000808781526020019081526020016000206040518060a0016040529081600082015481526020016001820160009054906101000a900473ffffffffffffffffffffffffffffffffffffffff1673ffffffffffffffffffffffffffffffffffffffff1673ffffffffffffffffffffffffffffffffffffffff168152602001600282015481526020016003820160009054906101000a900473ffffffffffffffffffffffffffffffffffffffff1673ffffffffffffffffffffffffffffffffffffffff1673ffffffffffffffffffffffffffffffffffffffff1681526020016004820160009054906101000a900473ffffffffffffffffffffffffffffffffffffffff1673ffffffffffffffffffffffffffffffffffffffff1673ffffffffffffffffffffffffffffffffffffffff1681525050905080600001518160400151826060015183608001518191509450945094509450509193509193565b806001600381111561036657fe5b6001600083815260200190815260200160002060009054906101000a900460ff16600381111561039257fe5b1461039c57600080fd5b6103a4610c4c565b6000808481526020019081526020016000206040518060a0016040529081600082015481526020016001820160009054906101000a900473ffffffffffffffffffffffffffffffffffffffff1673ffffffffffffffffffffffffffffffffffffffff1673ffffffffffffffffffffffffffffffffffffffff168152602001600282015481526020016003820160009054906101000a900473ffffffffffffffffffffffffffffffffffffffff1673ffffffffffffffffffffffffffffffffffffffff1673ffffffffffffffffffffffffffffffffffffffff1681526020016004820160009054906101000a900473ffffffffffffffffffffffffffffffffffffffff1673ffffffffffffffffffffffffffffffffffffffff1673ffffffffffffffffffffffffffffffffffffffff1681525050905060026001600085815260200190815260200160002060006101000a81548160ff0219169083600381111561050957fe5b02179055506000816080015190508073ffffffffffffffffffffffffffffffffffffffff1663dd62ed3e8360600151306040518363ffffffff1660e01b8152600401808373ffffffffffffffffffffffffffffffffffffffff1673ffffffffffffffffffffffffffffffffffffffff1681526020018273ffffffffffffffffffffffffffffffffffffffff1673ffffffffffffffffffffffffffffffffffffffff1681526020019250505060206040518083038186803b1580156105cc57600080fd5b505afa1580156105e0573d6000803e3d6000fd5b505050506040513d60208110156105f657600080fd5b81019080805190602001909291905050508260400151111561061757600080fd5b8073ffffffffffffffffffffffffffffffffffffffff166323b872dd8360600151846020015185604001516040518463ffffffff1660e01b8152600401808473ffffffffffffffffffffffffffffffffffffffff1673ffffffffffffffffffffffffffffffffffffffff1681526020018373ffffffffffffffffffffffffffffffffffffffff1673ffffffffffffffffffffffffffffffffffffffff1681526020018281526020019350505050602060405180830381600087803b1580156106de57600080fd5b505af11580156106f2573d6000803e3d6000fd5b505050506040513d602081101561070857600080fd5b810190808051906020019092919050505061072257600080fd5b816060015173ffffffffffffffffffffffffffffffffffffffff166108fc83600001519081150290604051600060405180830381858888f19350505050158015610770573d6000803e3d6000fd5b507fc9d8209586aca26a4f59cc70108e4cf2f637da8cb4133c78a3946bc50581ea28846040518082815260200191505060405180910390a150505050565b83600060038111156107bc57fe5b6001600083815260200190815260200160002060009054906101000a900460ff1660038111156107e857fe5b146107f257600080fd5b6107fa610c4c565b6040518060a001604052803481526020013373ffffffffffffffffffffffffffffffffffffffff1681526020018681526020018573ffffffffffffffffffffffffffffffffffffffff1681526020018473ffffffffffffffffffffffffffffffffffffffff168152509050806000808881526020019081526020016000206000820151816000015560208201518160010160006101000a81548173ffffffffffffffffffffffffffffffffffffffff021916908373ffffffffffffffffffffffffffffffffffffffff1602179055506040820151816002015560608201518160030160006101000a81548173ffffffffffffffffffffffffffffffffffffffff021916908373ffffffffffffffffffffffffffffffffffffffff16021790555060808201518160040160006101000a81548173ffffffffffffffffffffffffffffffffffffffff021916908373ffffffffffffffffffffffffffffffffffffffff160217905550905050600180600088815260200190815260200160002060006101000a81548160ff0219169083600381111561099357fe5b02179055507fb5894ff5a344c5160302de0b2027c5b55f4914e9d8e8c11b377b559e5ec789eb8685604051808381526020018273ffffffffffffffffffffffffffffffffffffffff1673ffffffffffffffffffffffffffffffffffffffff1681526020019250505060405180910390a1505050505050565b8060016003811115610a1957fe5b6001600083815260200190815260200160002060009054906101000a900460ff166003811115610a4557fe5b14610a4f57600080fd5b610a57610c4c565b6000808481526020019081526020016000206040518060a0016040529081600082015481526020016001820160009054906101000a900473ffffffffffffffffffffffffffffffffffffffff1673ffffffffffffffffffffffffffffffffffffffff1673ffffffffffffffffffffffffffffffffffffffff168152602001600282015481526020016003820160009054906101000a900473ffffffffffffffffffffffffffffffffffffffff1673ffffffffffffffffffffffffffffffffffffffff1673ffffffffffffffffffffffffffffffffffffffff1681526020016004820160009054906101000a900473ffffffffffffffffffffffffffffffffffffffff1673ffffffffffffffffffffffffffffffffffffffff1673ffffffffffffffffffffffffffffffffffffffff1681525050905060036001600085815260200190815260200160002060006101000a81548160ff02191690836003811115610bbc57fe5b0217905550806020015173ffffffffffffffffffffffffffffffffffffffff166108fc82600001519081150290604051600060405180830381858888f19350505050158015610c0f573d6000803e3d6000fd5b507fbddd9b693ea862fad6ecf78fd51c065be26fda94d1f3cad3a7d691453a38a735836040518082815260200191505060405180910390a1505050565b6040518060a0016040528060008152602001600073ffffffffffffffffffffffffffffffffffffffff16815260200160008152602001600073ffffffffffffffffffffffffffffffffffffffff168152602001600073ffffffffffffffffffffffffffffffffffffffff168152509056fea265627a7a7231582027aba2958377e0894903bab3d065abdfdfa5fbf039581f71fca052698085b5a764736f6c63430005100032",
  "source": "pragma solidity ^0.5.0;\r\n\r\nimport \"./Endurance.sol\";\r\n\r\ncontract AtomicSwapEtherToERC20 {\r\n\r\n  struct Swap {\r\n    uint256 value;\r\n    address payable ethTrader;\r\n    uint256 erc20Value;\r\n    address payable erc20Trader;\r\n    address erc20ContractAddress;\r\n  }\r\n\r\n  enum States {\r\n    INVALID,\r\n    OPEN,\r\n    CLOSED,\r\n    EXPIRED\r\n  }\r\n\r\n  mapping (bytes32 => Swap) private swaps;\r\n  mapping (bytes32 => States) private swapStates;\r\n\r\n  event Open(bytes32 _swapID, address _closeTrader);\r\n  event Expire(bytes32 _swapID);\r\n  event Close(bytes32 _swapID);\r\n\r\n  modifier onlyInvalidSwaps(bytes32 _swapID) {\r\n    require (swapStates[_swapID] == States.INVALID);\r\n    _;\r\n  }\r\n\r\n  modifier onlyOpenSwaps(bytes32 _swapID) {\r\n    require (swapStates[_swapID] == States.OPEN);\r\n    _;\r\n  }\r\n\r\n  function open(bytes32 _swapID, uint256 _erc20Value, address payable _erc20Trader, address _erc20ContractAddress) public onlyInvalidSwaps(_swapID) payable {\r\n    // Store the details of the swap.\r\n    Swap memory swap = Swap({\r\n      value: msg.value,\r\n      ethTrader: msg.sender,\r\n      erc20Value: _erc20Value,\r\n      erc20Trader: _erc20Trader,\r\n      erc20ContractAddress: _erc20ContractAddress\r\n    });\r\n    swaps[_swapID] = swap;\r\n    swapStates[_swapID] = States.OPEN;\r\n\r\n    emit Open(_swapID, _erc20Trader);\r\n  }\r\n\r\n  function close(bytes32 _swapID) public onlyOpenSwaps(_swapID) {\r\n    // Close the swap.\r\n    Swap memory swap = swaps[_swapID];\r\n    swapStates[_swapID] = States.CLOSED;\r\n\r\n    // Transfer the ERC20 funds from the ERC20 trader to the ETH trader.\r\n    Endurance erc20Contract = Endurance(swap.erc20ContractAddress);\r\n    require(swap.erc20Value <= erc20Contract.allowance(swap.erc20Trader, address(this)));\r\n    require(erc20Contract.transferFrom(swap.erc20Trader, swap.ethTrader, swap.erc20Value));\r\n\r\n    // Transfer the ETH funds from this contract to the ERC20 trader.\r\n    swap.erc20Trader.transfer(swap.value);\r\n    emit Close(_swapID);\r\n    }\r\n\r\n  function expire(bytes32  _swapID) public onlyOpenSwaps(_swapID) {\r\n    // Expire the swap.\r\n    Swap memory swap = swaps[_swapID];\r\n    swapStates[_swapID] = States.EXPIRED;\r\n\r\n    // Transfer the ETH value from this contract back to the ETH trader.\r\n    swap.ethTrader.transfer(swap.value);\r\n    emit Expire(_swapID);\r\n  }\r\n\r\n  function check(bytes32 _swapID) public view returns (uint256 value, uint256 erc20Value, address erc20Trader, address erc20ContractAddress) {\r\n    Swap memory swap = swaps[_swapID];\r\n    return  (swap.value, swap.erc20Value, swap.erc20Trader, swap.erc20ContractAddress);\r\n  }\r\n}",
  "sourcePath": "C:\\Users\\aggar\\Transaction System\\truffle-env\\contracts\\AtomicSwapEtherToERC20.sol",
  "compiler": {
    "name": "solc",
    "version": "0.5.16+commit.9c3226ce.Emscripten.clang"
  },
  "schemaVersion": "3.1.0",
  "updatedAt": "2020-05-11T16:58:59.967Z",
  "networkType": "ethereum",
  "devdoc": {
    "methods": {}
  },
  "userdoc": {
    "methods": {}
  }
}