{
  "contractName": "Endurance1155",
  "abi": [
    {
      "inputs": [
        {
          "internalType": "string",
          "name": "_name",
          "type": "string"
        },
        {
          "internalType": "string",
          "name": "_symbol",
          "type": "string"
        },
        {
          "internalType": "address",
          "name": "_proxyRegistryAddress",
          "type": "address"
        }
      ],
      "payable": false,
      "stateMutability": "nonpayable",
      "type": "constructor"
    },
    {
      "anonymous": false,
      "inputs": [
        {
          "indexed": true,
          "internalType": "address",
          "name": "_owner",
          "type": "address"
        },
        {
          "indexed": true,
          "internalType": "address",
          "name": "_operator",
          "type": "address"
        },
        {
          "indexed": false,
          "internalType": "bool",
          "name": "_approved",
          "type": "bool"
        }
      ],
      "name": "ApprovalForAll",
      "type": "event"
    },
    {
      "anonymous": false,
      "inputs": [
        {
          "indexed": true,
          "internalType": "address",
          "name": "previousOwner",
          "type": "address"
        },
        {
          "indexed": true,
          "internalType": "address",
          "name": "newOwner",
          "type": "address"
        }
      ],
      "name": "OwnershipTransferred",
      "type": "event"
    },
    {
      "anonymous": false,
      "inputs": [
        {
          "indexed": true,
          "internalType": "address",
          "name": "_operator",
          "type": "address"
        },
        {
          "indexed": true,
          "internalType": "address",
          "name": "_from",
          "type": "address"
        },
        {
          "indexed": true,
          "internalType": "address",
          "name": "_to",
          "type": "address"
        },
        {
          "indexed": false,
          "internalType": "uint256[]",
          "name": "_ids",
          "type": "uint256[]"
        },
        {
          "indexed": false,
          "internalType": "uint256[]",
          "name": "_amounts",
          "type": "uint256[]"
        }
      ],
      "name": "TransferBatch",
      "type": "event"
    },
    {
      "anonymous": false,
      "inputs": [
        {
          "indexed": true,
          "internalType": "address",
          "name": "_operator",
          "type": "address"
        },
        {
          "indexed": true,
          "internalType": "address",
          "name": "_from",
          "type": "address"
        },
        {
          "indexed": true,
          "internalType": "address",
          "name": "_to",
          "type": "address"
        },
        {
          "indexed": false,
          "internalType": "uint256",
          "name": "_id",
          "type": "uint256"
        },
        {
          "indexed": false,
          "internalType": "uint256",
          "name": "_amount",
          "type": "uint256"
        }
      ],
      "name": "TransferSingle",
      "type": "event"
    },
    {
      "anonymous": false,
      "inputs": [
        {
          "indexed": false,
          "internalType": "string",
          "name": "_uri",
          "type": "string"
        },
        {
          "indexed": true,
          "internalType": "uint256",
          "name": "_id",
          "type": "uint256"
        }
      ],
      "name": "URI",
      "type": "event"
    },
    {
      "constant": true,
      "inputs": [
        {
          "internalType": "address",
          "name": "_owner",
          "type": "address"
        },
        {
          "internalType": "uint256",
          "name": "_id",
          "type": "uint256"
        }
      ],
      "name": "balanceOf",
      "outputs": [
        {
          "internalType": "uint256",
          "name": "",
          "type": "uint256"
        }
      ],
      "payable": false,
      "stateMutability": "view",
      "type": "function"
    },
    {
      "constant": true,
      "inputs": [
        {
          "internalType": "address[]",
          "name": "_owners",
          "type": "address[]"
        },
        {
          "internalType": "uint256[]",
          "name": "_ids",
          "type": "uint256[]"
        }
      ],
      "name": "balanceOfBatch",
      "outputs": [
        {
          "internalType": "uint256[]",
          "name": "",
          "type": "uint256[]"
        }
      ],
      "payable": false,
      "stateMutability": "view",
      "type": "function"
    },
    {
      "constant": true,
      "inputs": [
        {
          "internalType": "uint256",
          "name": "",
          "type": "uint256"
        }
      ],
      "name": "creators",
      "outputs": [
        {
          "internalType": "address",
          "name": "",
          "type": "address"
        }
      ],
      "payable": false,
      "stateMutability": "view",
      "type": "function"
    },
    {
      "constant": true,
      "inputs": [],
      "name": "name",
      "outputs": [
        {
          "internalType": "string",
          "name": "",
          "type": "string"
        }
      ],
      "payable": false,
      "stateMutability": "view",
      "type": "function"
    },
    {
      "constant": true,
      "inputs": [],
      "name": "owner",
      "outputs": [
        {
          "internalType": "address",
          "name": "",
          "type": "address"
        }
      ],
      "payable": false,
      "stateMutability": "view",
      "type": "function"
    },
    {
      "constant": false,
      "inputs": [
        {
          "internalType": "address",
          "name": "_from",
          "type": "address"
        },
        {
          "internalType": "address",
          "name": "_to",
          "type": "address"
        },
        {
          "internalType": "uint256[]",
          "name": "_ids",
          "type": "uint256[]"
        },
        {
          "internalType": "uint256[]",
          "name": "_amounts",
          "type": "uint256[]"
        },
        {
          "internalType": "bytes",
          "name": "_data",
          "type": "bytes"
        }
      ],
      "name": "safeBatchTransferFrom",
      "outputs": [],
      "payable": false,
      "stateMutability": "nonpayable",
      "type": "function"
    },
    {
      "constant": false,
      "inputs": [
        {
          "internalType": "address",
          "name": "_from",
          "type": "address"
        },
        {
          "internalType": "address",
          "name": "_to",
          "type": "address"
        },
        {
          "internalType": "uint256",
          "name": "_id",
          "type": "uint256"
        },
        {
          "internalType": "uint256",
          "name": "_amount",
          "type": "uint256"
        },
        {
          "internalType": "bytes",
          "name": "_data",
          "type": "bytes"
        }
      ],
      "name": "safeTransferFrom",
      "outputs": [],
      "payable": false,
      "stateMutability": "nonpayable",
      "type": "function"
    },
    {
      "constant": false,
      "inputs": [
        {
          "internalType": "address",
          "name": "_operator",
          "type": "address"
        },
        {
          "internalType": "bool",
          "name": "_approved",
          "type": "bool"
        }
      ],
      "name": "setApprovalForAll",
      "outputs": [],
      "payable": false,
      "stateMutability": "nonpayable",
      "type": "function"
    },
    {
      "constant": true,
      "inputs": [
        {
          "internalType": "bytes4",
          "name": "_interfaceID",
          "type": "bytes4"
        }
      ],
      "name": "supportsInterface",
      "outputs": [
        {
          "internalType": "bool",
          "name": "",
          "type": "bool"
        }
      ],
      "payable": false,
      "stateMutability": "view",
      "type": "function"
    },
    {
      "constant": true,
      "inputs": [],
      "name": "symbol",
      "outputs": [
        {
          "internalType": "string",
          "name": "",
          "type": "string"
        }
      ],
      "payable": false,
      "stateMutability": "view",
      "type": "function"
    },
    {
      "constant": true,
      "inputs": [
        {
          "internalType": "uint256",
          "name": "",
          "type": "uint256"
        }
      ],
      "name": "tokenSupply",
      "outputs": [
        {
          "internalType": "uint256",
          "name": "",
          "type": "uint256"
        }
      ],
      "payable": false,
      "stateMutability": "view",
      "type": "function"
    },
    {
      "constant": false,
      "inputs": [
        {
          "internalType": "address",
          "name": "_newOwner",
          "type": "address"
        }
      ],
      "name": "transferOwnership",
      "outputs": [],
      "payable": false,
      "stateMutability": "nonpayable",
      "type": "function"
    },
    {
      "constant": true,
      "inputs": [
        {
          "internalType": "uint256",
          "name": "_id",
          "type": "uint256"
        }
      ],
      "name": "uri",
      "outputs": [
        {
          "internalType": "string",
          "name": "",
          "type": "string"
        }
      ],
      "payable": false,
      "stateMutability": "view",
      "type": "function"
    },
    {
      "constant": true,
      "inputs": [
        {
          "internalType": "uint256",
          "name": "_id",
          "type": "uint256"
        }
      ],
      "name": "totalSupply",
      "outputs": [
        {
          "internalType": "uint256",
          "name": "",
          "type": "uint256"
        }
      ],
      "payable": false,
      "stateMutability": "view",
      "type": "function"
    },
    {
      "constant": false,
      "inputs": [
        {
          "internalType": "string",
          "name": "_newBaseMetadataURI",
          "type": "string"
        }
      ],
      "name": "setBaseMetadataURI",
      "outputs": [],
      "payable": false,
      "stateMutability": "nonpayable",
      "type": "function"
    },
    {
      "constant": false,
      "inputs": [
        {
          "internalType": "address",
          "name": "_initialOwner",
          "type": "address"
        },
        {
          "internalType": "uint256",
          "name": "_initialSupply",
          "type": "uint256"
        },
        {
          "internalType": "string",
          "name": "_uri",
          "type": "string"
        },
        {
          "internalType": "bytes",
          "name": "_data",
          "type": "bytes"
        }
      ],
      "name": "create",
      "outputs": [
        {
          "internalType": "uint256",
          "name": "",
          "type": "uint256"
        }
      ],
      "payable": false,
      "stateMutability": "nonpayable",
      "type": "function"
    },
    {
      "constant": false,
      "inputs": [
        {
          "internalType": "address",
          "name": "_to",
          "type": "address"
        },
        {
          "internalType": "uint256",
          "name": "_id",
          "type": "uint256"
        },
        {
          "internalType": "uint256",
          "name": "_quantity",
          "type": "uint256"
        },
        {
          "internalType": "bytes",
          "name": "_data",
          "type": "bytes"
        }
      ],
      "name": "mint",
      "outputs": [],
      "payable": false,
      "stateMutability": "nonpayable",
      "type": "function"
    },
    {
      "constant": false,
      "inputs": [
        {
          "internalType": "address",
          "name": "_to",
          "type": "address"
        },
        {
          "internalType": "uint256[]",
          "name": "_ids",
          "type": "uint256[]"
        },
        {
          "internalType": "uint256[]",
          "name": "_quantities",
          "type": "uint256[]"
        },
        {
          "internalType": "bytes",
          "name": "_data",
          "type": "bytes"
        }
      ],
      "name": "batchMint",
      "outputs": [],
      "payable": false,
      "stateMutability": "nonpayable",
      "type": "function"
    },
    {
      "constant": false,
      "inputs": [
        {
          "internalType": "address",
          "name": "_to",
          "type": "address"
        },
        {
          "internalType": "uint256[]",
          "name": "_ids",
          "type": "uint256[]"
        }
      ],
      "name": "setCreator",
      "outputs": [],
      "payable": false,
      "stateMutability": "nonpayable",
      "type": "function"
    },
    {
      "constant": true,
      "inputs": [
        {
          "internalType": "address",
          "name": "_owner",
          "type": "address"
        },
        {
          "internalType": "address",
          "name": "_operator",
          "type": "address"
        }
      ],
      "name": "isApprovedForAll",
      "outputs": [
        {
          "internalType": "bool",
          "name": "isOperator",
          "type": "bool"
        }
      ],
      "payable": false,
      "stateMutability": "view",
      "type": "function"
    }
  ],
  "bytecode": "0x608060405260006005553480156200001657600080fd5b5060405162003f5338038062003f53833981810160405260608110156200003c57600080fd5b81019080805160405193929190846401000000008211156200005d57600080fd5b838201915060208201858111156200007457600080fd5b82518660018202830111640100000000821117156200009257600080fd5b8083526020830192505050908051906020019080838360005b83811015620000c8578082015181840152602081019050620000ab565b50505050905090810190601f168015620000f65780820380516001836020036101000a031916815260200191505b50604052602001805160405193929190846401000000008211156200011a57600080fd5b838201915060208201858111156200013157600080fd5b82518660018202830111640100000000821117156200014f57600080fd5b8083526020830192505050908051906020019080838360005b838110156200018557808201518184015260208101905062000168565b50505050905090810190601f168015620001b35780820380516001836020036101000a031916815260200191505b506040526020018051906020019092919050505033600360006101000a81548173ffffffffffffffffffffffffffffffffffffffff021916908373ffffffffffffffffffffffffffffffffffffffff160217905550600360009054906101000a900473ffffffffffffffffffffffffffffffffffffffff1673ffffffffffffffffffffffffffffffffffffffff16600073ffffffffffffffffffffffffffffffffffffffff167f8be0079c531659141344cd1fd0a4f28419497f9722a3daafe3b4186f6b6457e060405160405180910390a382600890805190602001906200029d92919062000301565b508160099080519060200190620002b692919062000301565b5080600460006101000a81548173ffffffffffffffffffffffffffffffffffffffff021916908373ffffffffffffffffffffffffffffffffffffffff160217905550505050620003b0565b828054600181600116156101000203166002900490600052602060002090601f016020900481019282601f106200034457805160ff191683800117855562000375565b8280016001018555821562000375579182015b828111156200037457825182559160200191906001019062000357565b5b50905062000384919062000388565b5090565b620003ad91905b80821115620003a95760008160009055506001016200038f565b5090565b90565b613b9380620003c06000396000f3fe608060405234801561001057600080fd5b506004361061012b5760003560e01c806395d89b41116100ad578063d2a6b51a11610071578063d2a6b51a14610ca1578063e38e3b2414610d79578063e985e9c514610e85578063f242432a14610f01578063f2fde38b146110105761012b565b806395d89b411461091b578063a22cb4651461099e578063b48ab8b6146109ee578063bd85b03914610bf1578063cd53d08e14610c335761012b565b80632eb2c2d6116100f45780632eb2c2d6146103635780634e1273f414610586578063731133e9146107275780637e518ec8146108165780638da5cb5b146108d15761012b565b8062fdd58e1461013057806301ffc9a71461019257806306fdde03146101f75780630e89341c1461027a5780632693ebf214610321575b600080fd5b61017c6004803603604081101561014657600080fd5b81019080803573ffffffffffffffffffffffffffffffffffffffff16906020019092919080359060200190929190505050611054565b6040518082815260200191505060405180910390f35b6101dd600480360360208110156101a857600080fd5b8101908080357bffffffffffffffffffffffffffffffffffffffffffffffffffffffff191690602001909291905050506110ae565b604051808215151515815260200191505060405180910390f35b6101ff61115f565b6040518080602001828103825283818151815260200191508051906020019080838360005b8381101561023f578082015181840152602081019050610224565b50505050905090810190601f16801561026c5780820380516001836020036101000a031916815260200191505b509250505060405180910390f35b6102a66004803603602081101561029057600080fd5b81019080803590602001909291905050506111fd565b6040518080602001828103825283818151815260200191508051906020019080838360005b838110156102e65780820151818401526020810190506102cb565b50505050905090810190601f1680156103135780820380516001836020036101000a031916815260200191505b509250505060405180910390f35b61034d6004803603602081101561033757600080fd5b8101908080359060200190929190505050611310565b6040518082815260200191505060405180910390f35b610584600480360360a081101561037957600080fd5b81019080803573ffffffffffffffffffffffffffffffffffffffff169060200190929190803573ffffffffffffffffffffffffffffffffffffffff169060200190929190803590602001906401000000008111156103d657600080fd5b8201836020820111156103e857600080fd5b8035906020019184602083028401116401000000008311171561040a57600080fd5b919080806020026020016040519081016040528093929190818152602001838360200280828437600081840152601f19601f8201169050808301925050505050505091929192908035906020019064010000000081111561046a57600080fd5b82018360208201111561047c57600080fd5b8035906020019184602083028401116401000000008311171561049e57600080fd5b919080806020026020016040519081016040528093929190818152602001838360200280828437600081840152601f19601f820116905080830192505050505050509192919290803590602001906401000000008111156104fe57600080fd5b82018360208201111561051057600080fd5b8035906020019184600183028401116401000000008311171561053257600080fd5b91908080601f016020809104026020016040519081016040528093929190818152602001838380828437600081840152601f19601f820116905080830192505050505050509192919290505050611328565b005b6106d06004803603604081101561059c57600080fd5b81019080803590602001906401000000008111156105b957600080fd5b8201836020820111156105cb57600080fd5b803590602001918460208302840111640100000000831117156105ed57600080fd5b919080806020026020016040519081016040528093929190818152602001838360200280828437600081840152601f19601f8201169050808301925050505050505091929192908035906020019064010000000081111561064d57600080fd5b82018360208201111561065f57600080fd5b8035906020019184602083028401116401000000008311171561068157600080fd5b919080806020026020016040519081016040528093929190818152602001838360200280828437600081840152601f19601f820116905080830192505050505050509192919290505050611464565b6040518080602001828103825283818151815260200191508051906020019060200280838360005b838110156107135780820151818401526020810190506106f8565b505050509050019250505060405180910390f35b6108146004803603608081101561073d57600080fd5b81019080803573ffffffffffffffffffffffffffffffffffffffff16906020019092919080359060200190929190803590602001909291908035906020019064010000000081111561078e57600080fd5b8201836020820111156107a057600080fd5b803590602001918460018302840111640100000000831117156107c257600080fd5b91908080601f016020809104026020016040519081016040528093929190818152602001838380828437600081840152601f19601f8201169050808301925050505050505091929192905050506115aa565b005b6108cf6004803603602081101561082c57600080fd5b810190808035906020019064010000000081111561084957600080fd5b82018360208201111561085b57600080fd5b8035906020019184600183028401116401000000008311171561087d57600080fd5b91908080601f016020809104026020016040519081016040528093929190818152602001838380828437600081840152601f19601f8201169050808301925050505050505091929192905050506116b2565b005b6108d9611764565b604051808273ffffffffffffffffffffffffffffffffffffffff1673ffffffffffffffffffffffffffffffffffffffff16815260200191505060405180910390f35b61092361178e565b6040518080602001828103825283818151815260200191508051906020019080838360005b83811015610963578082015181840152602081019050610948565b50505050905090810190601f1680156109905780820380516001836020036101000a031916815260200191505b509250505060405180910390f35b6109ec600480360360408110156109b457600080fd5b81019080803573ffffffffffffffffffffffffffffffffffffffff16906020019092919080351515906020019092919050505061182c565b005b610bef60048036036080811015610a0457600080fd5b81019080803573ffffffffffffffffffffffffffffffffffffffff16906020019092919080359060200190640100000000811115610a4157600080fd5b820183602082011115610a5357600080fd5b80359060200191846020830284011164010000000083111715610a7557600080fd5b919080806020026020016040519081016040528093929190818152602001838360200280828437600081840152601f19601f82011690508083019250505050505050919291929080359060200190640100000000811115610ad557600080fd5b820183602082011115610ae757600080fd5b80359060200191846020830284011164010000000083111715610b0957600080fd5b919080806020026020016040519081016040528093929190818152602001838360200280828437600081840152601f19601f82011690508083019250505050505050919291929080359060200190640100000000811115610b6957600080fd5b820183602082011115610b7b57600080fd5b80359060200191846001830284011164010000000083111715610b9d57600080fd5b91908080601f016020809104026020016040519081016040528093929190818152602001838380828437600081840152601f19601f82011690508083019250505050505050919291929050505061192d565b005b610c1d60048036036020811015610c0757600080fd5b8101908080359060200190929190505050611a82565b6040518082815260200191505060405180910390f35b610c5f60048036036020811015610c4957600080fd5b8101908080359060200190929190505050611a9f565b604051808273ffffffffffffffffffffffffffffffffffffffff1673ffffffffffffffffffffffffffffffffffffffff16815260200191505060405180910390f35b610d7760048036036040811015610cb757600080fd5b81019080803573ffffffffffffffffffffffffffffffffffffffff16906020019092919080359060200190640100000000811115610cf457600080fd5b820183602082011115610d0657600080fd5b80359060200191846020830284011164010000000083111715610d2857600080fd5b919080806020026020016040519081016040528093929190818152602001838360200280828437600081840152601f19601f820116905080830192505050505050509192919290505050611ad2565b005b610e6f60048036036080811015610d8f57600080fd5b81019080803573ffffffffffffffffffffffffffffffffffffffff1690602001909291908035906020019092919080359060200190640100000000811115610dd657600080fd5b820183602082011115610de857600080fd5b80359060200191846001830284011164010000000083111715610e0a57600080fd5b909192939192939080359060200190640100000000811115610e2b57600080fd5b820183602082011115610e3d57600080fd5b80359060200191846001830284011164010000000083111715610e5f57600080fd5b9091929391929390505050611b9c565b6040518082815260200191505060405180910390f35b610ee760048036036040811015610e9b57600080fd5b81019080803573ffffffffffffffffffffffffffffffffffffffff169060200190929190803573ffffffffffffffffffffffffffffffffffffffff169060200190929190505050611d91565b604051808215151515815260200191505060405180910390f35b61100e600480360360a0811015610f1757600080fd5b81019080803573ffffffffffffffffffffffffffffffffffffffff169060200190929190803573ffffffffffffffffffffffffffffffffffffffff169060200190929190803590602001909291908035906020019092919080359060200190640100000000811115610f8857600080fd5b820183602082011115610f9a57600080fd5b80359060200191846001830284011164010000000083111715610fbc57600080fd5b91908080601f016020809104026020016040519081016040528093929190818152602001838380828437600081840152601f19601f820116905080830192505050505050509192919290505050611ec2565b005b6110526004803603602081101561102657600080fd5b81019080803573ffffffffffffffffffffffffffffffffffffffff169060200190929190505050611ffe565b005b60008060008473ffffffffffffffffffffffffffffffffffffffff1673ffffffffffffffffffffffffffffffffffffffff168152602001908152602001600020600083815260200190815260200160002054905092915050565b60006301ffc9a760e01b7bffffffffffffffffffffffffffffffffffffffffffffffffffffffff1916827bffffffffffffffffffffffffffffffffffffffffffffffffffffffff19161480611147575063d9b67a2660e01b7bffffffffffffffffffffffffffffffffffffffffffffffffffffffff1916827bffffffffffffffffffffffffffffffffffffffffffffffffffffffff1916145b15611155576001905061115a565b600090505b919050565b60088054600181600116156101000203166002900480601f0160208091040260200160405190810160405280929190818152602001828054600181600116156101000203166002900480156111f55780601f106111ca576101008083540402835291602001916111f5565b820191906000526020600020905b8154815290600101906020018083116111d857829003601f168201915b505050505081565b6060611208826121ea565b61125d576040517f08c379a00000000000000000000000000000000000000000000000000000000081526004018080602001828103825260258152602001806139b36025913960400191505060405180910390fd5b61130960028054600181600116156101000203166002900480601f0160208091040260200160405190810160405280929190818152602001828054600181600116156101000203166002900480156112f65780601f106112cb576101008083540402835291602001916112f6565b820191906000526020600020905b8154815290600101906020018083116112d957829003601f168201915b505050505061130484612256565b612383565b9050919050565b60076020528060005260406000206000915090505481565b8473ffffffffffffffffffffffffffffffffffffffff163373ffffffffffffffffffffffffffffffffffffffff16148061136857506113678533611d91565b5b6113bd576040517f08c379a000000000000000000000000000000000000000000000000000000000815260040180806020018281038252602f815260200180613a04602f913960400191505060405180910390fd5b600073ffffffffffffffffffffffffffffffffffffffff168473ffffffffffffffffffffffffffffffffffffffff161415611443576040517f08c379a00000000000000000000000000000000000000000000000000000000081526004018080602001828103825260308152602001806139836030913960400191505060405180910390fd5b61144f858585856123c7565b61145d858585855a8661272c565b5050505050565b606081518351146114c0576040517f08c379a000000000000000000000000000000000000000000000000000000000815260040180806020018281038252602c8152602001806139d8602c913960400191505060405180910390fd5b606083516040519080825280602002602001820160405280156114f25781602001602082028038833980820191505090505b50905060008090505b845181101561159f5760008086838151811061151357fe5b602002602001015173ffffffffffffffffffffffffffffffffffffffff1673ffffffffffffffffffffffffffffffffffffffff168152602001908152602001600020600085838151811061156357fe5b602002602001015181526020019081526020016000205482828151811061158657fe5b60200260200101818152505080806001019150506114fb565b508091505092915050565b823373ffffffffffffffffffffffffffffffffffffffff166006600083815260200190815260200160002060009054906101000a900473ffffffffffffffffffffffffffffffffffffffff1673ffffffffffffffffffffffffffffffffffffffff1614611662576040517f08c379a0000000000000000000000000000000000000000000000000000000008152600401808060200182810382526031815260200180613b2e6031913960400191505060405180910390fd5b61166e858585856129ea565b611694836007600087815260200190815260200160002054612b3990919063ffffffff16565b60076000868152602001908152602001600020819055505050505050565b600360009054906101000a900473ffffffffffffffffffffffffffffffffffffffff1673ffffffffffffffffffffffffffffffffffffffff163373ffffffffffffffffffffffffffffffffffffffff1614611758576040517f08c379a0000000000000000000000000000000000000000000000000000000008152600401808060200182810382526026815260200180613adc6026913960400191505060405180910390fd5b61176181612bc1565b50565b6000600360009054906101000a900473ffffffffffffffffffffffffffffffffffffffff16905090565b60098054600181600116156101000203166002900480601f0160208091040260200160405190810160405280929190818152602001828054600181600116156101000203166002900480156118245780601f106117f957610100808354040283529160200191611824565b820191906000526020600020905b81548152906001019060200180831161180757829003601f168201915b505050505081565b80600160003373ffffffffffffffffffffffffffffffffffffffff1673ffffffffffffffffffffffffffffffffffffffff16815260200190815260200160002060008473ffffffffffffffffffffffffffffffffffffffff1673ffffffffffffffffffffffffffffffffffffffff16815260200190815260200160002060006101000a81548160ff0219169083151502179055508173ffffffffffffffffffffffffffffffffffffffff163373ffffffffffffffffffffffffffffffffffffffff167f17307eab39ab6107e8899845ad3d59bd9653f200f220920489ca2b5937696c3183604051808215151515815260200191505060405180910390a35050565b60008090505b8351811015611a6f57600084828151811061194a57fe5b602002602001015190503373ffffffffffffffffffffffffffffffffffffffff166006600083815260200190815260200160002060009054906101000a900473ffffffffffffffffffffffffffffffffffffffff1673ffffffffffffffffffffffffffffffffffffffff1614611a0b576040517f08c379a000000000000000000000000000000000000000000000000000000000815260040180806020018281038252602f8152602001806138cb602f913960400191505060405180910390fd5b6000848381518110611a1957fe5b60200260200101519050611a49816007600085815260200190815260200160002054612b3990919063ffffffff16565b600760008481526020019081526020016000208190555050508080600101915050611933565b50611a7c84848484612bdb565b50505050565b600060076000838152602001908152602001600020549050919050565b60066020528060005260406000206000915054906101000a900473ffffffffffffffffffffffffffffffffffffffff1681565b600073ffffffffffffffffffffffffffffffffffffffff168273ffffffffffffffffffffffffffffffffffffffff161415611b58576040517f08c379a000000000000000000000000000000000000000000000000000000000815260040180806020018281038252602c815260200180613b02602c913960400191505060405180910390fd5b60008090505b8151811015611b97576000828281518110611b7557fe5b60200260200101519050611b898482612e62565b508080600101915050611b5e565b505050565b6000600360009054906101000a900473ffffffffffffffffffffffffffffffffffffffff1673ffffffffffffffffffffffffffffffffffffffff163373ffffffffffffffffffffffffffffffffffffffff1614611c44576040517f08c379a0000000000000000000000000000000000000000000000000000000008152600401808060200182810382526026815260200180613adc6026913960400191505060405180910390fd5b6000611c4e612f71565b9050611c58612f8e565b336006600083815260200190815260200160002060006101000a81548173ffffffffffffffffffffffffffffffffffffffff021916908373ffffffffffffffffffffffffffffffffffffffff1602179055506000868690501115611d1b57807f6bb7ff708619ba0610cba295a58592e0451dee2622938c8755667688daf3529b878760405180806020018281038252848482818152602001925080828437600081840152601f19601f820116905080830192505050935050505060405180910390a25b611d6b88828987878080601f016020809104026020016040519081016040528093929190818152602001838380828437600081840152601f19601f820116905080830192505050505050506129ea565b866007600083815260200190815260200160002081905550809150509695505050505050565b600080600460009054906101000a900473ffffffffffffffffffffffffffffffffffffffff1690508273ffffffffffffffffffffffffffffffffffffffff168173ffffffffffffffffffffffffffffffffffffffff1663c4552791866040518263ffffffff1660e01b8152600401808273ffffffffffffffffffffffffffffffffffffffff1673ffffffffffffffffffffffffffffffffffffffff16815260200191505060206040518083038186803b158015611e4d57600080fd5b505afa158015611e61573d6000803e3d6000fd5b505050506040513d6020811015611e7757600080fd5b810190808051906020019092919050505073ffffffffffffffffffffffffffffffffffffffff161415611eae576001915050611ebc565b611eb88484612fa2565b9150505b92915050565b8473ffffffffffffffffffffffffffffffffffffffff163373ffffffffffffffffffffffffffffffffffffffff161480611f025750611f018533611d91565b5b611f57576040517f08c379a000000000000000000000000000000000000000000000000000000000815260040180806020018281038252602a8152602001806138fa602a913960400191505060405180910390fd5b600073ffffffffffffffffffffffffffffffffffffffff168473ffffffffffffffffffffffffffffffffffffffff161415611fdd576040517f08c379a000000000000000000000000000000000000000000000000000000000815260040180806020018281038252602b8152602001806138a0602b913960400191505060405180910390fd5b611fe985858585613036565b611ff7858585855a8661322a565b5050505050565b600360009054906101000a900473ffffffffffffffffffffffffffffffffffffffff1673ffffffffffffffffffffffffffffffffffffffff163373ffffffffffffffffffffffffffffffffffffffff16146120a4576040517f08c379a0000000000000000000000000000000000000000000000000000000008152600401808060200182810382526026815260200180613adc6026913960400191505060405180910390fd5b600073ffffffffffffffffffffffffffffffffffffffff168173ffffffffffffffffffffffffffffffffffffffff16141561212a576040517f08c379a000000000000000000000000000000000000000000000000000000000815260040180806020018281038252602a815260200180613959602a913960400191505060405180910390fd5b8073ffffffffffffffffffffffffffffffffffffffff16600360009054906101000a900473ffffffffffffffffffffffffffffffffffffffff1673ffffffffffffffffffffffffffffffffffffffff167f8be0079c531659141344cd1fd0a4f28419497f9722a3daafe3b4186f6b6457e060405160405180910390a380600360006101000a81548173ffffffffffffffffffffffffffffffffffffffff021916908373ffffffffffffffffffffffffffffffffffffffff16021790555050565b60008073ffffffffffffffffffffffffffffffffffffffff166006600084815260200190815260200160002060009054906101000a900473ffffffffffffffffffffffffffffffffffffffff1673ffffffffffffffffffffffffffffffffffffffff1614159050919050565b6060600082141561229e576040518060400160405280600181526020017f3000000000000000000000000000000000000000000000000000000000000000815250905061237e565b600082905060005b600082146122c8578080600101915050600a82816122c057fe5b0491506122a6565b6060816040519080825280601f01601f1916602001820160405280156122fd5781602001600182028038833980820191505090505b50905060006001830390505b6000861461237657600a868161231b57fe5b0660300160f81b8282806001900393508151811061233557fe5b60200101907effffffffffffffffffffffffffffffffffffffffffffffffffffffffffffff1916908160001a905350600a868161236e57fe5b049550612309565b819450505050505b919050565b60606123bf8383604051806020016040528060008152506040518060200160405280600081525060405180602001604052806000815250613466565b905092915050565b8051825114612421576040517f08c379a00000000000000000000000000000000000000000000000000000000081526004018080602001828103825260358152602001806139246035913960400191505060405180910390fd5b60008251905060008090505b8181101561261e576124bd83828151811061244457fe5b60200260200101516000808973ffffffffffffffffffffffffffffffffffffffff1673ffffffffffffffffffffffffffffffffffffffff168152602001908152602001600020600087858151811061249857fe5b602002602001015181526020019081526020016000205461372c90919063ffffffff16565b6000808873ffffffffffffffffffffffffffffffffffffffff1673ffffffffffffffffffffffffffffffffffffffff168152602001908152602001600020600086848151811061250957fe5b60200260200101518152602001908152602001600020819055506125ab83828151811061253257fe5b60200260200101516000808873ffffffffffffffffffffffffffffffffffffffff1673ffffffffffffffffffffffffffffffffffffffff168152602001908152602001600020600087858151811061258657fe5b6020026020010151815260200190815260200160002054612b3990919063ffffffff16565b6000808773ffffffffffffffffffffffffffffffffffffffff1673ffffffffffffffffffffffffffffffffffffffff16815260200190815260200160002060008684815181106125f757fe5b6020026020010151815260200190815260200160002081905550808060010191505061242d565b508373ffffffffffffffffffffffffffffffffffffffff168573ffffffffffffffffffffffffffffffffffffffff163373ffffffffffffffffffffffffffffffffffffffff167f4a39dc06d4c0dbc64b70af90fd698a233a518aa5d07e595d983b8c0526c8f7fb8686604051808060200180602001838103835285818151815260200191508051906020019060200280838360005b838110156126ce5780820151818401526020810190506126b3565b50505050905001838103825284818151815260200191508051906020019060200280838360005b838110156127105780820151818401526020810190506126f5565b5050505090500194505050505060405180910390a45050505050565b61274b8573ffffffffffffffffffffffffffffffffffffffff166137b5565b156129e25760008573ffffffffffffffffffffffffffffffffffffffff1663bc197c8184338a8989886040518763ffffffff1660e01b8152600401808673ffffffffffffffffffffffffffffffffffffffff1673ffffffffffffffffffffffffffffffffffffffff1681526020018573ffffffffffffffffffffffffffffffffffffffff1673ffffffffffffffffffffffffffffffffffffffff168152602001806020018060200180602001848103845287818151815260200191508051906020019060200280838360005b83811015612832578082015181840152602081019050612817565b50505050905001848103835286818151815260200191508051906020019060200280838360005b83811015612874578082015181840152602081019050612859565b50505050905001848103825285818151815260200191508051906020019080838360005b838110156128b3578082015181840152602081019050612898565b50505050905090810190601f1680156128e05780820380516001836020036101000a031916815260200191505b5098505050505050505050602060405180830381600088803b15801561290557600080fd5b5087f1158015612919573d6000803e3d6000fd5b50505050506040513d602081101561293057600080fd5b8101908080519060200190929190505050905063bc197c8160e01b7bffffffffffffffffffffffffffffffffffffffffffffffffffffffff1916817bffffffffffffffffffffffffffffffffffffffffffffffffffffffff1916146129e0576040517f08c379a000000000000000000000000000000000000000000000000000000000815260040180806020018281038252603f815260200180613a63603f913960400191505060405180910390fd5b505b505050505050565b612a4c826000808773ffffffffffffffffffffffffffffffffffffffff1673ffffffffffffffffffffffffffffffffffffffff168152602001908152602001600020600086815260200190815260200160002054612b3990919063ffffffff16565b6000808673ffffffffffffffffffffffffffffffffffffffff1673ffffffffffffffffffffffffffffffffffffffff1681526020019081526020016000206000858152602001908152602001600020819055508373ffffffffffffffffffffffffffffffffffffffff16600073ffffffffffffffffffffffffffffffffffffffff163373ffffffffffffffffffffffffffffffffffffffff167fc3d58168c5ae7397731d063d5bbf3d657854427343f4c083240f7aacaa2d0f628686604051808381526020018281526020019250505060405180910390a4612b3360008585855a8661322a565b50505050565b600080828401905083811015612bb7576040517f08c379a00000000000000000000000000000000000000000000000000000000081526004018080602001828103825260168152602001807f536166654d617468236164643a204f564552464c4f570000000000000000000081525060200191505060405180910390fd5b8091505092915050565b8060029080519060200190612bd79291906137fa565b5050565b8151835114612c35576040517f08c379a0000000000000000000000000000000000000000000000000000000008152600401808060200182810382526030815260200180613a336030913960400191505060405180910390fd5b60008351905060008090505b81811015612d4457612cd1848281518110612c5857fe5b60200260200101516000808973ffffffffffffffffffffffffffffffffffffffff1673ffffffffffffffffffffffffffffffffffffffff1681526020019081526020016000206000888581518110612cac57fe5b6020026020010151815260200190815260200160002054612b3990919063ffffffff16565b6000808873ffffffffffffffffffffffffffffffffffffffff1673ffffffffffffffffffffffffffffffffffffffff1681526020019081526020016000206000878481518110612d1d57fe5b60200260200101518152602001908152602001600020819055508080600101915050612c41565b508473ffffffffffffffffffffffffffffffffffffffff16600073ffffffffffffffffffffffffffffffffffffffff163373ffffffffffffffffffffffffffffffffffffffff167f4a39dc06d4c0dbc64b70af90fd698a233a518aa5d07e595d983b8c0526c8f7fb8787604051808060200180602001838103835285818151815260200191508051906020019060200280838360005b83811015612df5578082015181840152602081019050612dda565b50505050905001838103825284818151815260200191508051906020019060200280838360005b83811015612e37578082015181840152602081019050612e1c565b5050505090500194505050505060405180910390a4612e5b60008686865a8761272c565b5050505050565b803373ffffffffffffffffffffffffffffffffffffffff166006600083815260200190815260200160002060009054906101000a900473ffffffffffffffffffffffffffffffffffffffff1673ffffffffffffffffffffffffffffffffffffffff1614612f1a576040517f08c379a0000000000000000000000000000000000000000000000000000000008152600401808060200182810382526031815260200180613b2e6031913960400191505060405180910390fd5b826006600084815260200190815260200160002060006101000a81548173ffffffffffffffffffffffffffffffffffffffff021916908373ffffffffffffffffffffffffffffffffffffffff160217905550505050565b6000612f896001600554612b3990919063ffffffff16565b905090565b600560008154809291906001019190505550565b6000600160008473ffffffffffffffffffffffffffffffffffffffff1673ffffffffffffffffffffffffffffffffffffffff16815260200190815260200160002060008373ffffffffffffffffffffffffffffffffffffffff1673ffffffffffffffffffffffffffffffffffffffff16815260200190815260200160002060009054906101000a900460ff16905092915050565b613098816000808773ffffffffffffffffffffffffffffffffffffffff1673ffffffffffffffffffffffffffffffffffffffff16815260200190815260200160002060008581526020019081526020016000205461372c90919063ffffffff16565b6000808673ffffffffffffffffffffffffffffffffffffffff1673ffffffffffffffffffffffffffffffffffffffff16815260200190815260200160002060008481526020019081526020016000208190555061314d816000808673ffffffffffffffffffffffffffffffffffffffff1673ffffffffffffffffffffffffffffffffffffffff168152602001908152602001600020600085815260200190815260200160002054612b3990919063ffffffff16565b6000808573ffffffffffffffffffffffffffffffffffffffff1673ffffffffffffffffffffffffffffffffffffffff1681526020019081526020016000206000848152602001908152602001600020819055508273ffffffffffffffffffffffffffffffffffffffff168473ffffffffffffffffffffffffffffffffffffffff163373ffffffffffffffffffffffffffffffffffffffff167fc3d58168c5ae7397731d063d5bbf3d657854427343f4c083240f7aacaa2d0f628585604051808381526020018281526020019250505060405180910390a450505050565b6132498573ffffffffffffffffffffffffffffffffffffffff166137b5565b1561345e5760008573ffffffffffffffffffffffffffffffffffffffff1663f23a6e6184338a8989886040518763ffffffff1660e01b8152600401808673ffffffffffffffffffffffffffffffffffffffff1673ffffffffffffffffffffffffffffffffffffffff1681526020018573ffffffffffffffffffffffffffffffffffffffff1673ffffffffffffffffffffffffffffffffffffffff16815260200184815260200183815260200180602001828103825283818151815260200191508051906020019080838360005b83811015613331578082015181840152602081019050613316565b50505050905090810190601f16801561335e5780820380516001836020036101000a031916815260200191505b509650505050505050602060405180830381600088803b15801561338157600080fd5b5087f1158015613395573d6000803e3d6000fd5b50505050506040513d60208110156133ac57600080fd5b8101908080519060200190929190505050905063f23a6e6160e01b7bffffffffffffffffffffffffffffffffffffffffffffffffffffffff1916817bffffffffffffffffffffffffffffffffffffffffffffffffffffffff19161461345c576040517f08c379a000000000000000000000000000000000000000000000000000000000815260040180806020018281038252603a815260200180613aa2603a913960400191505060405180910390fd5b505b505050505050565b6060808690506060869050606086905060608690506060869050606081518351855187518951010101016040519080825280601f01601f1916602001820160405280156134c25781602001600182028038833980820191505090505b5090506060819050600080905060008090505b8851811015613543578881815181106134ea57fe5b602001015160f81c60f81b83838060010194508151811061350757fe5b60200101907effffffffffffffffffffffffffffffffffffffffffffffffffffffffffffff1916908160001a90535080806001019150506134d5565b5060008090505b87518110156135b85787818151811061355f57fe5b602001015160f81c60f81b83838060010194508151811061357c57fe5b60200101907effffffffffffffffffffffffffffffffffffffffffffffffffffffffffffff1916908160001a905350808060010191505061354a565b5060008090505b865181101561362d578681815181106135d457fe5b602001015160f81c60f81b8383806001019450815181106135f157fe5b60200101907effffffffffffffffffffffffffffffffffffffffffffffffffffffffffffff1916908160001a90535080806001019150506135bf565b5060008090505b85518110156136a25785818151811061364957fe5b602001015160f81c60f81b83838060010194508151811061366657fe5b60200101907effffffffffffffffffffffffffffffffffffffffffffffffffffffffffffff1916908160001a9053508080600101915050613634565b5060008090505b8451811015613717578481815181106136be57fe5b602001015160f81c60f81b8383806001019450815181106136db57fe5b60200101907effffffffffffffffffffffffffffffffffffffffffffffffffffffffffffff1916908160001a90535080806001019150506136a9565b50819850505050505050505095945050505050565b6000828211156137a4576040517f08c379a00000000000000000000000000000000000000000000000000000000081526004018080602001828103825260178152602001807f536166654d617468237375623a20554e444552464c4f5700000000000000000081525060200191505060405180910390fd5b600082840390508091505092915050565b600080823f90506000801b81141580156137f257507fc5d2460186f7233c927e7db2dcc703c0e500b653ca82273b7bfad8045d85a47060001b8114155b915050919050565b828054600181600116156101000203166002900490600052602060002090601f016020900481019282601f1061383b57805160ff1916838001178555613869565b82800160010185558215613869579182015b8281111561386857825182559160200191906001019061384d565b5b509050613876919061387a565b5090565b61389c91905b80821115613898576000816000905550600101613880565b5090565b9056fe4552433131353523736166655472616e7366657246726f6d3a20494e56414c49445f524543495049454e54455243313135355472616461626c652362617463684d696e743a204f4e4c595f43524541544f525f414c4c4f5745444552433131353523736166655472616e7366657246726f6d3a20494e56414c49445f4f50455241544f5245524331313535235f7361666542617463685472616e7366657246726f6d3a20494e56414c49445f4152524159535f4c454e4754484f776e61626c65237472616e736665724f776e6572736869703a20494e56414c49445f4144445245535345524331313535237361666542617463685472616e7366657246726f6d3a20494e56414c49445f524543495049454e544552433732315472616461626c65237572693a204e4f4e4558495354454e545f544f4b454e455243313135352362616c616e63654f6642617463683a20494e56414c49445f41525241595f4c454e47544845524331313535237361666542617463685472616e7366657246726f6d3a20494e56414c49445f4f50455241544f52455243313135354d696e744275726e2362617463684d696e743a20494e56414c49445f4152524159535f4c454e47544845524331313535235f63616c6c6f6e45524331313535426174636852656365697665643a20494e56414c49445f4f4e5f524543454956455f4d45535341474545524331313535235f63616c6c6f6e4552433131353552656365697665643a20494e56414c49445f4f4e5f524543454956455f4d4553534147454f776e61626c65236f6e6c794f776e65723a2053454e4445525f49535f4e4f545f4f574e4552455243313135355472616461626c652373657443726561746f723a20494e56414c49445f414444524553532e455243313135355472616461626c652363726561746f724f6e6c793a204f4e4c595f43524541544f525f414c4c4f574544a265627a7a72315820f5e3c3b1e5ebd7f95227c8a67254cabc58c91a860350766f6c9e02e49848ce5864736f6c63430005100032",
  "source": "pragma solidity ^0.5.12;\r\n\r\nimport \"./utils/Ownable.sol\";\r\nimport './tokens/ERC1155/ERC1155.sol';\r\nimport './tokens/ERC1155/ERC1155Metadata.sol';\r\nimport './tokens/ERC1155/ERC1155MintBurn.sol';\r\nimport \"./Strings.sol\";\r\n\r\ncontract OwnableDelegateProxy { }\r\n\r\ncontract ProxyRegistry {\r\n  mapping(address => OwnableDelegateProxy) public proxies;\r\n}\r\n\r\n/**\r\n * @title ERC1155Tradable\r\n * ERC1155Tradable - ERC1155 contract that whitelists an operator address, has create and mint functionality, and supports useful standards from OpenZeppelin,\r\n  like _exists(), name(), symbol(), and totalSupply()\r\n */\r\ncontract Endurance1155 is ERC1155, ERC1155MintBurn, ERC1155Metadata, Ownable {\r\n  using Strings for string;\r\n\r\n  address proxyRegistryAddress;\r\n  uint256 private _currentTokenID = 0;\r\n  mapping (uint256 => address) public creators;\r\n  mapping (uint256 => uint256) public tokenSupply;\r\n  // Contract name\r\n  string public name;\r\n  // Contract symbol\r\n  string public symbol;\r\n\r\n  /**\r\n   * @dev Require msg.sender to be the creator of the token id\r\n   */\r\n  modifier creatorOnly(uint256 _id) {\r\n    require(creators[_id] == msg.sender, \"ERC1155Tradable#creatorOnly: ONLY_CREATOR_ALLOWED\");\r\n    _;\r\n  }\r\n\r\n  /**\r\n   * @dev Require msg.sender to own more than 0 of the token id\r\n   */\r\n  modifier ownersOnly(uint256 _id) {\r\n    require(balances[msg.sender][_id] > 0, \"ERC1155Tradable#ownersOnly: ONLY_OWNERS_ALLOWED\");\r\n    _;\r\n  }\r\n\r\n  constructor(\r\n    string memory _name,\r\n    string memory _symbol,\r\n    address _proxyRegistryAddress\r\n  ) public {\r\n    name = _name;\r\n    symbol = _symbol;\r\n    proxyRegistryAddress = _proxyRegistryAddress;\r\n  }\r\n\r\n  function uri(\r\n    uint256 _id\r\n  ) public view returns (string memory) {\r\n    require(_exists(_id), \"ERC721Tradable#uri: NONEXISTENT_TOKEN\");\r\n    return Strings.strConcat(\r\n      baseMetadataURI,\r\n      Strings.uint2str(_id)\r\n    );\r\n  }\r\n\r\n  /**\r\n    * @dev Returns the total quantity for a token ID\r\n    * @param _id uint256 ID of the token to query\r\n    * @return amount of token in existence\r\n    */\r\n  function totalSupply(\r\n    uint256 _id\r\n  ) public view returns (uint256) {\r\n    return tokenSupply[_id];\r\n  }\r\n\r\n  /**\r\n   * @dev Will update the base URL of token's URI\r\n   * @param _newBaseMetadataURI New base URL of token's URI\r\n   */\r\n  function setBaseMetadataURI(\r\n    string memory _newBaseMetadataURI\r\n  ) public onlyOwner {\r\n    _setBaseMetadataURI(_newBaseMetadataURI);\r\n  }\r\n\r\n  /**\r\n    * @dev Creates a new token type and assigns _initialSupply to an address\r\n    * NOTE: remove onlyOwner if you want third parties to create new tokens on your contract (which may change your IDs)\r\n    * @param _initialOwner address of the first owner of the token\r\n    * @param _initialSupply amount to supply the first owner\r\n    * @param _uri Optional URI for this token type\r\n    * @param _data Data to pass if receiver is contract\r\n    * @return The newly created token ID\r\n    */\r\n  function create(\r\n    address _initialOwner,\r\n    uint256 _initialSupply,\r\n    string calldata _uri,\r\n    bytes calldata _data\r\n  ) external onlyOwner returns (uint256) {\r\n\r\n    uint256 _id = _getNextTokenID();\r\n    _incrementTokenTypeId();\r\n    creators[_id] = msg.sender;\r\n\r\n    if (bytes(_uri).length > 0) {\r\n      emit URI(_uri, _id);\r\n    }\r\n\r\n    _mint(_initialOwner, _id, _initialSupply, _data);\r\n    tokenSupply[_id] = _initialSupply;\r\n    return _id;\r\n  }\r\n\r\n  /**\r\n    * @dev Mints some amount of tokens to an address\r\n    * @param _to          Address of the future owner of the token\r\n    * @param _id          Token ID to mint\r\n    * @param _quantity    Amount of tokens to mint\r\n    * @param _data        Data to pass if receiver is contract\r\n    */\r\n  function mint(\r\n    address _to,\r\n    uint256 _id,\r\n    uint256 _quantity,\r\n    bytes memory _data\r\n  ) public creatorOnly(_id) {\r\n    _mint(_to, _id, _quantity, _data);\r\n    tokenSupply[_id] = tokenSupply[_id].add(_quantity);\r\n  }\r\n\r\n  /**\r\n    * @dev Mint tokens for each id in _ids\r\n    * @param _to          The address to mint tokens to\r\n    * @param _ids         Array of ids to mint\r\n    * @param _quantities  Array of amounts of tokens to mint per id\r\n    * @param _data        Data to pass if receiver is contract\r\n    */\r\n  function batchMint(\r\n    address _to,\r\n    uint256[] memory _ids,\r\n    uint256[] memory _quantities,\r\n    bytes memory _data\r\n  ) public {\r\n    for (uint256 i = 0; i < _ids.length; i++) {\r\n      uint256 _id = _ids[i];\r\n      require(creators[_id] == msg.sender, \"ERC1155Tradable#batchMint: ONLY_CREATOR_ALLOWED\");\r\n      uint256 quantity = _quantities[i];\r\n      tokenSupply[_id] = tokenSupply[_id].add(quantity);\r\n    }\r\n    _batchMint(_to, _ids, _quantities, _data);\r\n  }\r\n\r\n  /**\r\n    * @dev Change the creator address for given tokens\r\n    * @param _to   Address of the new creator\r\n    * @param _ids  Array of Token IDs to change creator\r\n    */\r\n  function setCreator(\r\n    address _to,\r\n    uint256[] memory _ids\r\n  ) public {\r\n    require(_to != address(0), \"ERC1155Tradable#setCreator: INVALID_ADDRESS.\");\r\n    for (uint256 i = 0; i < _ids.length; i++) {\r\n      uint256 id = _ids[i];\r\n      _setCreator(_to, id);\r\n    }\r\n  }\r\n\r\n  /**\r\n   * Override isApprovedForAll to whitelist user's OpenSea proxy accounts to enable gas-free listings.\r\n   */\r\n  function isApprovedForAll(\r\n    address _owner,\r\n    address _operator\r\n  ) public view returns (bool isOperator) {\r\n    // Whitelist OpenSea proxy contract for easy trading.\r\n    ProxyRegistry proxyRegistry = ProxyRegistry(proxyRegistryAddress);\r\n    if (address(proxyRegistry.proxies(_owner)) == _operator) {\r\n      return true;\r\n    }\r\n\r\n    return ERC1155.isApprovedForAll(_owner, _operator);\r\n  }\r\n\r\n  /**\r\n    * @dev Change the creator address for given token\r\n    * @param _to   Address of the new creator\r\n    * @param _id  Token IDs to change creator of\r\n    */\r\n  function _setCreator(address _to, uint256 _id) internal creatorOnly(_id)\r\n  {\r\n      creators[_id] = _to;\r\n  }\r\n\r\n  /**\r\n    * @dev Returns whether the specified token exists by checking to see if it has a creator\r\n    * @param _id uint256 ID of the token to query the existence of\r\n    * @return bool whether the token exists\r\n    */\r\n  function _exists(\r\n    uint256 _id\r\n  ) internal view returns (bool) {\r\n    return creators[_id] != address(0);\r\n  }\r\n\r\n  /**\r\n    * @dev calculates the next token ID based on value of _currentTokenID\r\n    * @return uint256 for the next token ID\r\n    */\r\n  function _getNextTokenID() private view returns (uint256) {\r\n    return _currentTokenID.add(1);\r\n  }\r\n\r\n  /**\r\n    * @dev increments the value of _currentTokenID\r\n    */\r\n  function _incrementTokenTypeId() private  {\r\n    _currentTokenID++;\r\n  }\r\n}",
  "sourcePath": "C:\\Users\\aggar\\ERC1155\\truffle-env\\contracts\\Endurance1155.sol",
  "compiler": {
    "name": "solc",
    "version": "0.5.16+commit.9c3226ce.Emscripten.clang"
  },
  "schemaVersion": "3.1.0",
  "updatedAt": "2020-05-19T21:47:03.588Z",
  "networkType": "ethereum",
  "devdoc": {
    "methods": {
      "balanceOf(address,uint256)": {
        "params": {
          "_id": "ID of the Token",
          "_owner": "The address of the token holder"
        },
        "return": "The _owner's balance of the Token type requested"
      },
      "balanceOfBatch(address[],uint256[])": {
        "params": {
          "_ids": "ID of the Tokens",
          "_owners": "The addresses of the token holders"
        },
        "return": "The _owner's balance of the Token types requested (i.e. balance for each (owner, id) pair)"
      },
      "batchMint(address,uint256[],uint256[],bytes)": {
        "details": "Mint tokens for each id in _ids",
        "params": {
          "_data": "Data to pass if receiver is contract",
          "_ids": "Array of ids to mint",
          "_quantities": "Array of amounts of tokens to mint per id",
          "_to": "The address to mint tokens to"
        }
      },
      "create(address,uint256,string,bytes)": {
        "details": "Creates a new token type and assigns _initialSupply to an address NOTE: remove onlyOwner if you want third parties to create new tokens on your contract (which may change your IDs)",
        "params": {
          "_data": "Data to pass if receiver is contract",
          "_initialOwner": "address of the first owner of the token",
          "_initialSupply": "amount to supply the first owner",
          "_uri": "Optional URI for this token type"
        },
        "return": "The newly created token ID"
      },
      "mint(address,uint256,uint256,bytes)": {
        "details": "Mints some amount of tokens to an address",
        "params": {
          "_data": "Data to pass if receiver is contract",
          "_id": "Token ID to mint",
          "_quantity": "Amount of tokens to mint",
          "_to": "Address of the future owner of the token"
        }
      },
      "safeBatchTransferFrom(address,address,uint256[],uint256[],bytes)": {
        "params": {
          "_amounts": "Transfer amounts per token type",
          "_data": "Additional data with no specified format, sent in call to `_to`",
          "_from": "Source addresses",
          "_ids": "IDs of each token type",
          "_to": "Target addresses"
        }
      },
      "safeTransferFrom(address,address,uint256,uint256,bytes)": {
        "params": {
          "_amount": "Transfered amount",
          "_data": "Additional data with no specified format, sent in call to `_to`",
          "_from": "Source address",
          "_id": "ID of the token type",
          "_to": "Target address"
        }
      },
      "setApprovalForAll(address,bool)": {
        "params": {
          "_approved": "True if the operator is approved, false to revoke approval",
          "_operator": "Address to add to the set of authorized operators"
        }
      },
      "setBaseMetadataURI(string)": {
        "details": "Will update the base URL of token's URI",
        "params": {
          "_newBaseMetadataURI": "New base URL of token's URI"
        }
      },
      "setCreator(address,uint256[])": {
        "details": "Change the creator address for given tokens",
        "params": {
          "_ids": "Array of Token IDs to change creator",
          "_to": "Address of the new creator"
        }
      },
      "supportsInterface(bytes4)": {
        "params": {
          "_interfaceID": "The interface identifier, as specified in ERC-165"
        },
        "return": "`true` if the contract implements `_interfaceID` and"
      },
      "totalSupply(uint256)": {
        "details": "Returns the total quantity for a token ID",
        "params": {
          "_id": "uint256 ID of the token to query"
        },
        "return": "amount of token in existence"
      },
      "transferOwnership(address)": {
        "params": {
          "_newOwner": "Address of the new owner"
        }
      }
    },
    "title": "ERC1155Tradable ERC1155Tradable - ERC1155 contract that whitelists an operator address, has create and mint functionality, and supports useful standards from OpenZeppelin, like _exists(), name(), symbol(), and totalSupply()"
  },
  "userdoc": {
    "methods": {
      "balanceOf(address,uint256)": {
        "notice": "Get the balance of an account's Tokens"
      },
      "balanceOfBatch(address[],uint256[])": {
        "notice": "Get the balance of multiple account/token pairs"
      },
      "isApprovedForAll(address,address)": {
        "notice": "Override isApprovedForAll to whitelist user's OpenSea proxy accounts to enable gas-free listings."
      },
      "owner()": {
        "notice": "Returns the address of the owner."
      },
      "safeBatchTransferFrom(address,address,uint256[],uint256[],bytes)": {
        "notice": "Send multiple types of Tokens from the _from address to the _to address (with safety call)"
      },
      "safeTransferFrom(address,address,uint256,uint256,bytes)": {
        "notice": "Transfers amount amount of an _id from the _from address to the _to address specified"
      },
      "setApprovalForAll(address,bool)": {
        "notice": "Enable or disable approval for a third party (\"operator\") to manage all of caller's tokens"
      },
      "supportsInterface(bytes4)": {
        "notice": "Query if a contract implements an interface"
      },
      "transferOwnership(address)": {
        "notice": "Transfers the ownership of the contract to new address"
      }
    }
  }
}