{
  "contractName": "ERC1155Meta",
  "abi": [
    {
      "anonymous": false,
      "inputs": [
        {
          "indexed": true,
          "internalType": "address",
          "name": "_owner",
          "type": "address"
        },
        {
          "indexed": true,
          "internalType": "address",
          "name": "_operator",
          "type": "address"
        },
        {
          "indexed": false,
          "internalType": "bool",
          "name": "_approved",
          "type": "bool"
        }
      ],
      "name": "ApprovalForAll",
      "type": "event"
    },
    {
      "anonymous": false,
      "inputs": [
        {
          "indexed": true,
          "internalType": "address",
          "name": "signer",
          "type": "address"
        },
        {
          "indexed": false,
          "internalType": "uint256",
          "name": "newNonce",
          "type": "uint256"
        }
      ],
      "name": "NonceChange",
      "type": "event"
    },
    {
      "anonymous": false,
      "inputs": [
        {
          "indexed": true,
          "internalType": "address",
          "name": "_operator",
          "type": "address"
        },
        {
          "indexed": true,
          "internalType": "address",
          "name": "_from",
          "type": "address"
        },
        {
          "indexed": true,
          "internalType": "address",
          "name": "_to",
          "type": "address"
        },
        {
          "indexed": false,
          "internalType": "uint256[]",
          "name": "_ids",
          "type": "uint256[]"
        },
        {
          "indexed": false,
          "internalType": "uint256[]",
          "name": "_amounts",
          "type": "uint256[]"
        }
      ],
      "name": "TransferBatch",
      "type": "event"
    },
    {
      "anonymous": false,
      "inputs": [
        {
          "indexed": true,
          "internalType": "address",
          "name": "_operator",
          "type": "address"
        },
        {
          "indexed": true,
          "internalType": "address",
          "name": "_from",
          "type": "address"
        },
        {
          "indexed": true,
          "internalType": "address",
          "name": "_to",
          "type": "address"
        },
        {
          "indexed": false,
          "internalType": "uint256",
          "name": "_id",
          "type": "uint256"
        },
        {
          "indexed": false,
          "internalType": "uint256",
          "name": "_amount",
          "type": "uint256"
        }
      ],
      "name": "TransferSingle",
      "type": "event"
    },
    {
      "anonymous": false,
      "inputs": [
        {
          "indexed": false,
          "internalType": "string",
          "name": "_amount",
          "type": "string"
        },
        {
          "indexed": true,
          "internalType": "uint256",
          "name": "_id",
          "type": "uint256"
        }
      ],
      "name": "URI",
      "type": "event"
    },
    {
      "constant": true,
      "inputs": [
        {
          "internalType": "address",
          "name": "_owner",
          "type": "address"
        },
        {
          "internalType": "uint256",
          "name": "_id",
          "type": "uint256"
        }
      ],
      "name": "balanceOf",
      "outputs": [
        {
          "internalType": "uint256",
          "name": "",
          "type": "uint256"
        }
      ],
      "payable": false,
      "stateMutability": "view",
      "type": "function"
    },
    {
      "constant": true,
      "inputs": [
        {
          "internalType": "address[]",
          "name": "_owners",
          "type": "address[]"
        },
        {
          "internalType": "uint256[]",
          "name": "_ids",
          "type": "uint256[]"
        }
      ],
      "name": "balanceOfBatch",
      "outputs": [
        {
          "internalType": "uint256[]",
          "name": "",
          "type": "uint256[]"
        }
      ],
      "payable": false,
      "stateMutability": "view",
      "type": "function"
    },
    {
      "constant": true,
      "inputs": [
        {
          "internalType": "address",
          "name": "_owner",
          "type": "address"
        },
        {
          "internalType": "address",
          "name": "_operator",
          "type": "address"
        }
      ],
      "name": "isApprovedForAll",
      "outputs": [
        {
          "internalType": "bool",
          "name": "isOperator",
          "type": "bool"
        }
      ],
      "payable": false,
      "stateMutability": "view",
      "type": "function"
    },
    {
      "constant": true,
      "inputs": [
        {
          "internalType": "address",
          "name": "_signerAddress",
          "type": "address"
        },
        {
          "internalType": "bytes32",
          "name": "_hash",
          "type": "bytes32"
        },
        {
          "internalType": "bytes",
          "name": "_data",
          "type": "bytes"
        },
        {
          "internalType": "bytes",
          "name": "_sig",
          "type": "bytes"
        }
      ],
      "name": "isValidSignature",
      "outputs": [
        {
          "internalType": "bool",
          "name": "isValid",
          "type": "bool"
        }
      ],
      "payable": false,
      "stateMutability": "view",
      "type": "function"
    },
    {
      "constant": false,
      "inputs": [
        {
          "internalType": "address",
          "name": "_from",
          "type": "address"
        },
        {
          "internalType": "address",
          "name": "_to",
          "type": "address"
        },
        {
          "internalType": "uint256[]",
          "name": "_ids",
          "type": "uint256[]"
        },
        {
          "internalType": "uint256[]",
          "name": "_amounts",
          "type": "uint256[]"
        },
        {
          "internalType": "bytes",
          "name": "_data",
          "type": "bytes"
        }
      ],
      "name": "safeBatchTransferFrom",
      "outputs": [],
      "payable": false,
      "stateMutability": "nonpayable",
      "type": "function"
    },
    {
      "constant": false,
      "inputs": [
        {
          "internalType": "address",
          "name": "_from",
          "type": "address"
        },
        {
          "internalType": "address",
          "name": "_to",
          "type": "address"
        },
        {
          "internalType": "uint256",
          "name": "_id",
          "type": "uint256"
        },
        {
          "internalType": "uint256",
          "name": "_amount",
          "type": "uint256"
        },
        {
          "internalType": "bytes",
          "name": "_data",
          "type": "bytes"
        }
      ],
      "name": "safeTransferFrom",
      "outputs": [],
      "payable": false,
      "stateMutability": "nonpayable",
      "type": "function"
    },
    {
      "constant": false,
      "inputs": [
        {
          "internalType": "address",
          "name": "_operator",
          "type": "address"
        },
        {
          "internalType": "bool",
          "name": "_approved",
          "type": "bool"
        }
      ],
      "name": "setApprovalForAll",
      "outputs": [],
      "payable": false,
      "stateMutability": "nonpayable",
      "type": "function"
    },
    {
      "constant": true,
      "inputs": [
        {
          "internalType": "bytes4",
          "name": "_interfaceID",
          "type": "bytes4"
        }
      ],
      "name": "supportsInterface",
      "outputs": [
        {
          "internalType": "bool",
          "name": "",
          "type": "bool"
        }
      ],
      "payable": false,
      "stateMutability": "view",
      "type": "function"
    },
    {
      "constant": false,
      "inputs": [
        {
          "internalType": "address",
          "name": "_from",
          "type": "address"
        },
        {
          "internalType": "address",
          "name": "_to",
          "type": "address"
        },
        {
          "internalType": "uint256",
          "name": "_id",
          "type": "uint256"
        },
        {
          "internalType": "uint256",
          "name": "_amount",
          "type": "uint256"
        },
        {
          "internalType": "bool",
          "name": "_isGasFee",
          "type": "bool"
        },
        {
          "internalType": "bytes",
          "name": "_data",
          "type": "bytes"
        }
      ],
      "name": "metaSafeTransferFrom",
      "outputs": [],
      "payable": false,
      "stateMutability": "nonpayable",
      "type": "function"
    },
    {
      "constant": false,
      "inputs": [
        {
          "internalType": "address",
          "name": "_from",
          "type": "address"
        },
        {
          "internalType": "address",
          "name": "_to",
          "type": "address"
        },
        {
          "internalType": "uint256[]",
          "name": "_ids",
          "type": "uint256[]"
        },
        {
          "internalType": "uint256[]",
          "name": "_amounts",
          "type": "uint256[]"
        },
        {
          "internalType": "bool",
          "name": "_isGasFee",
          "type": "bool"
        },
        {
          "internalType": "bytes",
          "name": "_data",
          "type": "bytes"
        }
      ],
      "name": "metaSafeBatchTransferFrom",
      "outputs": [],
      "payable": false,
      "stateMutability": "nonpayable",
      "type": "function"
    },
    {
      "constant": false,
      "inputs": [
        {
          "internalType": "address",
          "name": "_owner",
          "type": "address"
        },
        {
          "internalType": "address",
          "name": "_operator",
          "type": "address"
        },
        {
          "internalType": "bool",
          "name": "_approved",
          "type": "bool"
        },
        {
          "internalType": "bool",
          "name": "_isGasFee",
          "type": "bool"
        },
        {
          "internalType": "bytes",
          "name": "_data",
          "type": "bytes"
        }
      ],
      "name": "metaSetApprovalForAll",
      "outputs": [],
      "payable": false,
      "stateMutability": "nonpayable",
      "type": "function"
    },
    {
      "constant": true,
      "inputs": [
        {
          "internalType": "address",
          "name": "_signer",
          "type": "address"
        }
      ],
      "name": "getNonce",
      "outputs": [
        {
          "internalType": "uint256",
          "name": "nonce",
          "type": "uint256"
        }
      ],
      "payable": false,
      "stateMutability": "view",
      "type": "function"
    }
  ],
  "bytecode": "0x608060405234801561001057600080fd5b506143a5806100206000396000f3fe608060405234801561001057600080fd5b50600436106100b35760003560e01c8063a3d4926e11610071578063a3d4926e146101b0578063ce0b514b146101cc578063e985e9c5146101e8578063f242432a14610218578063f5d4c82014610234578063fa4e12d714610250576100b3565b8062fdd58e146100b857806301ffc9a7146100e85780632d0335ab146101185780632eb2c2d6146101485780634e1273f414610164578063a22cb46514610194575b600080fd5b6100d260048036036100cd9190810190612ab9565b610280565b6040516100df9190613ff3565b60405180910390f35b61010260048036036100fd9190810190612b8a565b6102da565b60405161010f9190613b0e565b60405180910390f35b610132600480360361012d91908101906125d1565b61038b565b60405161013f9190613ff3565b60405180910390f35b610162600480360361015d919081019061276c565b6103d4565b005b61017e60048036036101799190810190612af5565b6104e4565b60405161018b9190613ab5565b60405180910390f35b6101ae60048036036101a991908101906129ea565b610614565b005b6101ca60048036036101c5919081019061269b565b610711565b005b6101e660048036036101e191908101906128ba565b6108af565b005b61020260048036036101fd919081019061265f565b610a01565b60405161020f9190613b0e565b60405180910390f35b610232600480360361022d919081019061295b565b610a95565b005b61024e6004803603610249919081019061282b565b610ba5565b005b61026a60048036036102659190810190612a26565b610d4b565b6040516102779190613b0e565b60405180910390f35b60008060008473ffffffffffffffffffffffffffffffffffffffff1673ffffffffffffffffffffffffffffffffffffffff168152602001908152602001600020600083815260200190815260200160002054905092915050565b60006301ffc9a760e01b7bffffffffffffffffffffffffffffffffffffffffffffffffffffffff1916827bffffffffffffffffffffffffffffffffffffffffffffffffffffffff19161480610373575063d9b67a2660e01b7bffffffffffffffffffffffffffffffffffffffffffffffffffffffff1916827bffffffffffffffffffffffffffffffffffffffffffffffffffffffff1916145b156103815760019050610386565b600090505b919050565b6000600260008373ffffffffffffffffffffffffffffffffffffffff1673ffffffffffffffffffffffffffffffffffffffff168152602001908152602001600020549050919050565b8473ffffffffffffffffffffffffffffffffffffffff163373ffffffffffffffffffffffffffffffffffffffff16148061041457506104138533610a01565b5b610453576040517f08c379a000000000000000000000000000000000000000000000000000000000815260040161044a90613ed3565b60405180910390fd5b600073ffffffffffffffffffffffffffffffffffffffff168473ffffffffffffffffffffffffffffffffffffffff1614156104c3576040517f08c379a00000000000000000000000000000000000000000000000000000000081526004016104ba90613e53565b60405180910390fd5b6104cf858585856113b9565b6104dd858585855a86611680565b5050505050565b6060815183511461052a576040517f08c379a000000000000000000000000000000000000000000000000000000000815260040161052190613e73565b60405180910390fd5b6060835160405190808252806020026020018201604052801561055c5781602001602082028038833980820191505090505b50905060008090505b84518110156106095760008086838151811061057d57fe5b602002602001015173ffffffffffffffffffffffffffffffffffffffff1673ffffffffffffffffffffffffffffffffffffffff16815260200190815260200160002060008583815181106105cd57fe5b60200260200101518152602001908152602001600020548282815181106105f057fe5b6020026020010181815250508080600101915050610565565b508091505092915050565b80600160003373ffffffffffffffffffffffffffffffffffffffff1673ffffffffffffffffffffffffffffffffffffffff16815260200190815260200160002060008473ffffffffffffffffffffffffffffffffffffffff1673ffffffffffffffffffffffffffffffffffffffff16815260200190815260200160002060006101000a81548160ff0219169083151502179055508173ffffffffffffffffffffffffffffffffffffffff163373ffffffffffffffffffffffffffffffffffffffff167f17307eab39ab6107e8899845ad3d59bd9653f200f220920489ca2b5937696c31836040516107059190613b0e565b60405180910390a35050565b600073ffffffffffffffffffffffffffffffffffffffff168573ffffffffffffffffffffffffffffffffffffffff161415610781576040517f08c379a000000000000000000000000000000000000000000000000000000000815260040161077890613f13565b60405180910390fd5b606061078b612287565b606061083e89857fa3d4926e8cf8fe8e020cd29f514c256bc2eec62aa2337e415f1a33a4828af5a060001b8c8c8c6040516020016107c99190613880565b604051602081830303815290604052805190602001208c6040516020016107f09190613880565b604051602081830303815290604052805190602001208c610812576000610815565b60015b60405160200161082a96959493929190613b52565b6040516020818303038152906040526117ce565b905061084c898989896113b9565b841561089557808060200190516108669190810190612c89565b819150809050809450819350505061088689898989866020015186611680565b61089089836119fb565b6108a4565b6108a3898989895a86611680565b5b505050505050505050565b600073ffffffffffffffffffffffffffffffffffffffff168573ffffffffffffffffffffffffffffffffffffffff16141561091f576040517f08c379a000000000000000000000000000000000000000000000000000000000815260040161091690613dd3565b60405180910390fd5b6060610929612287565b606061099089857fce0b514b3931bdbe4d5d44e4f035afe7113767b7db71949271f6a62d9c60f55860001b8c8c8c8c8c610964576000610967565b60015b60405160200161097c96959493929190613c06565b6040516020818303038152906040526117ce565b905061099e89898989611cd6565b84156109e757808060200190516109b89190810190612c89565b81915080905080945081935050506109d889898989866020015186611ec4565b6109e289836119fb565b6109f6565b6109f5898989895a86611ec4565b5b505050505050505050565b6000600160008473ffffffffffffffffffffffffffffffffffffffff1673ffffffffffffffffffffffffffffffffffffffff16815260200190815260200160002060008373ffffffffffffffffffffffffffffffffffffffff1673ffffffffffffffffffffffffffffffffffffffff16815260200190815260200160002060009054906101000a900460ff16905092915050565b8473ffffffffffffffffffffffffffffffffffffffff163373ffffffffffffffffffffffffffffffffffffffff161480610ad55750610ad48533610a01565b5b610b14576040517f08c379a0000000000000000000000000000000000000000000000000000000008152600401610b0b90613d53565b60405180910390fd5b600073ffffffffffffffffffffffffffffffffffffffff168473ffffffffffffffffffffffffffffffffffffffff161415610b84576040517f08c379a0000000000000000000000000000000000000000000000000000000008152600401610b7b90613d13565b60405180910390fd5b610b9085858585611cd6565b610b9e858585855a86611ec4565b5050505050565b6060610c1886837ff5d4c820494c8595de274c7ff619bead38aac4fbc3d143b5bf956aa4b84fa52460001b898989610bde576000610be1565b60015b89610bed576000610bf0565b60015b604051602001610c04959493929190613bb3565b6040516020818303038152906040526117ce565b905083600160008873ffffffffffffffffffffffffffffffffffffffff1673ffffffffffffffffffffffffffffffffffffffff16815260200190815260200160002060008773ffffffffffffffffffffffffffffffffffffffff1673ffffffffffffffffffffffffffffffffffffffff16815260200190815260200160002060006101000a81548160ff0219169083151502179055508473ffffffffffffffffffffffffffffffffffffffff168673ffffffffffffffffffffffffffffffffffffffff167f17307eab39ab6107e8899845ad3d59bd9653f200f220920489ca2b5937696c3186604051610d0b9190613b0e565b60405180910390a38215610d4357610d21612287565b81806020019051610d359190810190612c48565b9050610d4187826119fb565b505b505050505050565b600080825111610d90576040517f08c379a0000000000000000000000000000000000000000000000000000000008152600401610d8790613ef3565b60405180910390fd5b600073ffffffffffffffffffffffffffffffffffffffff168573ffffffffffffffffffffffffffffffffffffffff161415610e00576040517f08c379a0000000000000000000000000000000000000000000000000000000008152600401610df790613eb3565b60405180910390fd5b6000610e0b83612012565b60f81c9050600580811115610e1c57fe5b60ff168160ff1610610e63576040517f08c379a0000000000000000000000000000000000000000000000000000000008152600401610e5a90613db3565b60405180910390fd5b60008160ff166005811115610e7457fe5b905060008060008060006005811115610e8957fe5b856005811115610e9557fe5b1415610ed6576040517f08c379a0000000000000000000000000000000000000000000000000000000008152600401610ecd90613df3565b60405180910390fd5b60016005811115610ee357fe5b856005811115610eef57fe5b1415611012576061885114610f39576040517f08c379a0000000000000000000000000000000000000000000000000000000008152600401610f3090613e33565b60405180910390fd5b610f4d60008961208590919063ffffffff16565b9250610f6360208961208590919063ffffffff16565b915087604081518110610f7257fe5b602001015160f81c60f81b60f81c935060018a85858560405160008152602001604052604051610fa59493929190613c97565b6020604051602081039080840390855afa158015610fc7573d6000803e3d6000fd5b5050506020604051035190508073ffffffffffffffffffffffffffffffffffffffff168b73ffffffffffffffffffffffffffffffffffffffff161496508696505050505050506113b1565b6002600581111561101f57fe5b85600581111561102b57fe5b1415611174576061885114611075576040517f08c379a000000000000000000000000000000000000000000000000000000000815260040161106c90613e33565b60405180910390fd5b61108960008961208590919063ffffffff16565b925061109f60208961208590919063ffffffff16565b9150876040815181106110ae57fe5b602001015160f81c60f81b60f81c935060018a6040516020016110d1919061393e565b60405160208183030381529060405280519060200120858585604051600081526020016040526040516111079493929190613c97565b6020604051602081039080840390855afa158015611129573d6000803e3d6000fd5b5050506020604051035190508073ffffffffffffffffffffffffffffffffffffffff168b73ffffffffffffffffffffffffffffffffffffffff161496508696505050505050506113b1565b6003600581111561118157fe5b85600581111561118d57fe5b1415611275578a73ffffffffffffffffffffffffffffffffffffffff166320c13b0b8a8a6040518363ffffffff1660e01b81526004016111ce929190613cdc565b60206040518083038186803b1580156111e657600080fd5b505afa1580156111fa573d6000803e3d6000fd5b505050506040513d601f19601f8201168201806040525061121e9190810190612bb3565b7bffffffffffffffffffffffffffffffffffffffffffffffffffffffff19166320c13b0b60e01b7bffffffffffffffffffffffffffffffffffffffffffffffffffffffff19161496508696505050505050506113b1565b6004600581111561128257fe5b85600581111561128e57fe5b1415611376578a73ffffffffffffffffffffffffffffffffffffffff16631626ba7e8b8a6040518363ffffffff1660e01b81526004016112cf929190613c67565b60206040518083038186803b1580156112e757600080fd5b505afa1580156112fb573d6000803e3d6000fd5b505050506040513d601f19601f8201168201806040525061131f9190810190612bb3565b7bffffffffffffffffffffffffffffffffffffffffffffffffffffffff1916631626ba7e60e01b7bffffffffffffffffffffffffffffffffffffffffffffffffffffffff19161496508696505050505050506113b1565b6040517f08c379a00000000000000000000000000000000000000000000000000000000081526004016113a890613db3565b60405180910390fd5b949350505050565b80518251146113fd576040517f08c379a00000000000000000000000000000000000000000000000000000000081526004016113f490613d93565b60405180910390fd5b60008251905060008090505b818110156115fa5761149983828151811061142057fe5b60200260200101516000808973ffffffffffffffffffffffffffffffffffffffff1673ffffffffffffffffffffffffffffffffffffffff168152602001908152602001600020600087858151811061147457fe5b60200260200101518152602001908152602001600020546120e390919063ffffffff16565b6000808873ffffffffffffffffffffffffffffffffffffffff1673ffffffffffffffffffffffffffffffffffffffff16815260200190815260200160002060008684815181106114e557fe5b602002602001015181526020019081526020016000208190555061158783828151811061150e57fe5b60200260200101516000808873ffffffffffffffffffffffffffffffffffffffff1673ffffffffffffffffffffffffffffffffffffffff168152602001908152602001600020600087858151811061156257fe5b602002602001015181526020019081526020016000205461213990919063ffffffff16565b6000808773ffffffffffffffffffffffffffffffffffffffff1673ffffffffffffffffffffffffffffffffffffffff16815260200190815260200160002060008684815181106115d357fe5b60200260200101518152602001908152602001600020819055508080600101915050611409565b508373ffffffffffffffffffffffffffffffffffffffff168573ffffffffffffffffffffffffffffffffffffffff163373ffffffffffffffffffffffffffffffffffffffff167f4a39dc06d4c0dbc64b70af90fd698a233a518aa5d07e595d983b8c0526c8f7fb8686604051611671929190613ad7565b60405180910390a45050505050565b61169f8573ffffffffffffffffffffffffffffffffffffffff1661218e565b156117c65760008573ffffffffffffffffffffffffffffffffffffffff1663bc197c8184338a8989886040518763ffffffff1660e01b81526004016116e8959493929190613964565b602060405180830381600088803b15801561170257600080fd5b5087f1158015611716573d6000803e3d6000fd5b50505050506040513d601f19601f8201168201806040525061173b9190810190612bb3565b905063bc197c8160e01b7bffffffffffffffffffffffffffffffffffffffffffffffffffffffff1916817bffffffffffffffffffffffffffffffffffffffffffffffffffffffff1916146117c4576040517f08c379a00000000000000000000000000000000000000000000000000000000081526004016117bb90613f33565b60405180910390fd5b505b505050505050565b606080838060200190516117e59190810190612bdc565b81915080905080935081925050506000600260008773ffffffffffffffffffffffffffffffffffffffff1673ffffffffffffffffffffffffffffffffffffffff168152602001908152602001600020549050600061184d60418461208590919063ffffffff16565b60001c905081811015801561186457506064820181105b6118a3576040517f08c379a000000000000000000000000000000000000000000000000000000000815260040161189a90613fb3565b60405180910390fd5b60006118df868387805190602001206040516020016118c493929190613897565b604051602081830303815290604052805190602001206121d3565b905060608683876040516020016118f8939291906138d0565b604051602081830303815290604052905060018301600260008b73ffffffffffffffffffffffffffffffffffffffff1673ffffffffffffffffffffffffffffffffffffffff168152602001908152602001600020819055508873ffffffffffffffffffffffffffffffffffffffff167fb861b7bdbe611a846ab271b8d2810391bc8b5a968f390c322438ecab66bccf59600185016040516119999190613ff3565b60405180910390a26119ad89838388610d4b565b6119ec576040517f08c379a00000000000000000000000000000000000000000000000000000000081526004016119e390613e13565b60405180910390fd5b85955050505050509392505050565b6000611a0a8260600151612012565b60f81c9050600280811115611a1b57fe5b60ff168160ff1610611a62576040517f08c379a0000000000000000000000000000000000000000000000000000000008152600401611a5990613fd3565b60405180910390fd5b60008160ff166002811115611a7357fe5b905060008060008086600001519050600073ffffffffffffffffffffffffffffffffffffffff16876040015173ffffffffffffffffffffffffffffffffffffffff1614611ac4578660400151611ac6565b335b925060006002811115611ad557fe5b856002811115611ae157fe5b1415611be3578660600151806020019051611aff9190810190612623565b81915080935081955050503073ffffffffffffffffffffffffffffffffffffffff168473ffffffffffffffffffffffffffffffffffffffff161415611b6c57611b4a88848484611cd6565b611b678884845a8560405180602001604052806000815250611ec4565b611bde565b8373ffffffffffffffffffffffffffffffffffffffff1663f242432a898585856040518563ffffffff1660e01b8152600401611bab9493929190613a5d565b600060405180830381600087803b158015611bc557600080fd5b505af1158015611bd9573d6000803e3d6000fd5b505050505b611ccc565b8660600151806020019051611bfb91908101906125fa565b93508373ffffffffffffffffffffffffffffffffffffffff166323b872dd8985846040518463ffffffff1660e01b8152600401611c3a93929190613a26565b602060405180830381600087803b158015611c5457600080fd5b505af1158015611c68573d6000803e3d6000fd5b505050506040513d601f19601f82011682018060405250611c8c9190810190612b61565b611ccb576040517f08c379a0000000000000000000000000000000000000000000000000000000008152600401611cc290613e93565b60405180910390fd5b5b5050505050505050565b611d38816000808773ffffffffffffffffffffffffffffffffffffffff1673ffffffffffffffffffffffffffffffffffffffff1681526020019081526020016000206000858152602001908152602001600020546120e390919063ffffffff16565b6000808673ffffffffffffffffffffffffffffffffffffffff1673ffffffffffffffffffffffffffffffffffffffff168152602001908152602001600020600084815260200190815260200160002081905550611ded816000808673ffffffffffffffffffffffffffffffffffffffff1673ffffffffffffffffffffffffffffffffffffffff16815260200190815260200160002060008581526020019081526020016000205461213990919063ffffffff16565b6000808573ffffffffffffffffffffffffffffffffffffffff1673ffffffffffffffffffffffffffffffffffffffff1681526020019081526020016000206000848152602001908152602001600020819055508273ffffffffffffffffffffffffffffffffffffffff168473ffffffffffffffffffffffffffffffffffffffff163373ffffffffffffffffffffffffffffffffffffffff167fc3d58168c5ae7397731d063d5bbf3d657854427343f4c083240f7aacaa2d0f628585604051611eb692919061400e565b60405180910390a450505050565b611ee38573ffffffffffffffffffffffffffffffffffffffff1661218e565b1561200a5760008573ffffffffffffffffffffffffffffffffffffffff1663f23a6e6184338a8989886040518763ffffffff1660e01b8152600401611f2c9594939291906139cc565b602060405180830381600088803b158015611f4657600080fd5b5087f1158015611f5a573d6000803e3d6000fd5b50505050506040513d601f19601f82011682018060405250611f7f9190810190612bb3565b905063f23a6e6160e01b7bffffffffffffffffffffffffffffffffffffffffffffffffffffffff1916817bffffffffffffffffffffffffffffffffffffffffffffffffffffffff191614612008576040517f08c379a0000000000000000000000000000000000000000000000000000000008152600401611fff90613f53565b60405180910390fd5b505b505050505050565b600080825111612057576040517f08c379a000000000000000000000000000000000000000000000000000000000815260040161204e90613d33565b60405180910390fd5b8160018351038151811061206757fe5b602001015160f81c60f81b9050600182510380835250809050919050565b600060208201835110156120ce576040517f08c379a00000000000000000000000000000000000000000000000000000000081526004016120c590613f73565b60405180910390fd5b60208201915081830151905080905092915050565b600082821115612128576040517f08c379a000000000000000000000000000000000000000000000000000000000815260040161211f90613d73565b60405180910390fd5b600082840390508091505092915050565b600080828401905083811015612184576040517f08c379a000000000000000000000000000000000000000000000000000000000815260040161217b90613f93565b60405180910390fd5b8091505092915050565b600080823f90506000801b81141580156121cb57507fc5d2460186f7233c927e7db2dcc703c0e500b653ca82273b7bfad8045d85a47060001b8114155b915050919050565b60006040518060400160405280600281526020017f19010000000000000000000000000000000000000000000000000000000000008152507f035aff83d86937d35b32e04f0ddc6ff469290eef2f1b692d8a815c89404d474960001b30604051602001612241929190613b29565b604051602081830303815290604052805190602001208360405160200161226a93929190613905565b604051602081830303815290604052805190602001209050919050565b60405180608001604052806000815260200160008152602001600073ffffffffffffffffffffffffffffffffffffffff168152602001606081525090565b6000813590506122d4816142d8565b92915050565b6000815190506122e9816142d8565b92915050565b6000815190506122fe816142ef565b92915050565b600082601f83011261231557600080fd5b813561232861232382614064565b614037565b9150818183526020840193506020810190508385602084028201111561234d57600080fd5b60005b8381101561237d578161236388826122c5565b845260208401935060208301925050600181019050612350565b5050505092915050565b600082601f83011261239857600080fd5b81356123ab6123a68261408c565b614037565b915081818352602084019350602081019050838560208402820111156123d057600080fd5b60005b8381101561240057816123e688826125a7565b8452602084019350602083019250506001810190506123d3565b5050505092915050565b60008135905061241981614306565b92915050565b60008151905061242e81614306565b92915050565b6000813590506124438161431d565b92915050565b60008135905061245881614334565b92915050565b60008151905061246d81614334565b92915050565b600082601f83011261248457600080fd5b8151612497612492826140b4565b614037565b915080825260208301602083018583830111156124b357600080fd5b6124be838284614280565b50505092915050565b600082601f8301126124d857600080fd5b81356124eb6124e6826140e0565b614037565b9150808252602083016020830185838301111561250757600080fd5b612512838284614271565b50505092915050565b60006080828403121561252d57600080fd5b6125376080614037565b90506000612547848285016125bc565b600083015250602061255b848285016125bc565b602083015250604061256f848285016122da565b604083015250606082015167ffffffffffffffff81111561258f57600080fd5b61259b84828501612473565b60608301525092915050565b6000813590506125b68161434b565b92915050565b6000815190506125cb8161434b565b92915050565b6000602082840312156125e357600080fd5b60006125f1848285016122c5565b91505092915050565b60006020828403121561260c57600080fd5b600061261a848285016122ef565b91505092915050565b6000806040838503121561263657600080fd5b6000612644858286016122ef565b9250506020612655858286016125bc565b9150509250929050565b6000806040838503121561267257600080fd5b6000612680858286016122c5565b9250506020612691858286016122c5565b9150509250929050565b60008060008060008060c087890312156126b457600080fd5b60006126c289828a016122c5565b96505060206126d389828a016122c5565b955050604087013567ffffffffffffffff8111156126f057600080fd5b6126fc89828a01612387565b945050606087013567ffffffffffffffff81111561271957600080fd5b61272589828a01612387565b935050608061273689828a0161240a565b92505060a087013567ffffffffffffffff81111561275357600080fd5b61275f89828a016124c7565b9150509295509295509295565b600080600080600060a0868803121561278457600080fd5b6000612792888289016122c5565b95505060206127a3888289016122c5565b945050604086013567ffffffffffffffff8111156127c057600080fd5b6127cc88828901612387565b935050606086013567ffffffffffffffff8111156127e957600080fd5b6127f588828901612387565b925050608086013567ffffffffffffffff81111561281257600080fd5b61281e888289016124c7565b9150509295509295909350565b600080600080600060a0868803121561284357600080fd5b6000612851888289016122c5565b9550506020612862888289016122c5565b94505060406128738882890161240a565b93505060606128848882890161240a565b925050608086013567ffffffffffffffff8111156128a157600080fd5b6128ad888289016124c7565b9150509295509295909350565b60008060008060008060c087890312156128d357600080fd5b60006128e189828a016122c5565b96505060206128f289828a016122c5565b955050604061290389828a016125a7565b945050606061291489828a016125a7565b935050608061292589828a0161240a565b92505060a087013567ffffffffffffffff81111561294257600080fd5b61294e89828a016124c7565b9150509295509295509295565b600080600080600060a0868803121561297357600080fd5b6000612981888289016122c5565b9550506020612992888289016122c5565b94505060406129a3888289016125a7565b93505060606129b4888289016125a7565b925050608086013567ffffffffffffffff8111156129d157600080fd5b6129dd888289016124c7565b9150509295509295909350565b600080604083850312156129fd57600080fd5b6000612a0b858286016122c5565b9250506020612a1c8582860161240a565b9150509250929050565b60008060008060808587031215612a3c57600080fd5b6000612a4a878288016122c5565b9450506020612a5b87828801612434565b935050604085013567ffffffffffffffff811115612a7857600080fd5b612a84878288016124c7565b925050606085013567ffffffffffffffff811115612aa157600080fd5b612aad878288016124c7565b91505092959194509250565b60008060408385031215612acc57600080fd5b6000612ada858286016122c5565b9250506020612aeb858286016125a7565b9150509250929050565b60008060408385031215612b0857600080fd5b600083013567ffffffffffffffff811115612b2257600080fd5b612b2e85828601612304565b925050602083013567ffffffffffffffff811115612b4b57600080fd5b612b5785828601612387565b9150509250929050565b600060208284031215612b7357600080fd5b6000612b818482850161241f565b91505092915050565b600060208284031215612b9c57600080fd5b6000612baa84828501612449565b91505092915050565b600060208284031215612bc557600080fd5b6000612bd38482850161245e565b91505092915050565b60008060408385031215612bef57600080fd5b600083015167ffffffffffffffff811115612c0957600080fd5b612c1585828601612473565b925050602083015167ffffffffffffffff811115612c3257600080fd5b612c3e85828601612473565b9150509250929050565b600060208284031215612c5a57600080fd5b600082015167ffffffffffffffff811115612c7457600080fd5b612c808482850161251b565b91505092915050565b60008060408385031215612c9c57600080fd5b600083015167ffffffffffffffff811115612cb657600080fd5b612cc28582860161251b565b925050602083015167ffffffffffffffff811115612cdf57600080fd5b612ceb85828601612473565b9150509250929050565b6000612d01838361382d565b60208301905092915050565b6000612d19838361384b565b60208301905092915050565b612d2e8161423b565b82525050565b612d3d8161419e565b82525050565b6000612d4e8261411c565b612d58818561414a565b9350612d638361410c565b8060005b83811015612d94578151612d7b8882612cf5565b9750612d868361413d565b925050600181019050612d67565b5085935050505092915050565b6000612dac8261411c565b612db6818561415b565b9350612dc18361410c565b8060005b83811015612df2578151612dd98882612d0d565b9750612de48361413d565b925050600181019050612dc5565b5085935050505092915050565b612e08816141c2565b82525050565b612e17816141ce565b82525050565b612e2e612e29826141ce565b6142b3565b82525050565b6000612e3f82614127565b612e498185614166565b9350612e59818560208601614280565b612e62816142c7565b840191505092915050565b6000612e7882614127565b612e828185614177565b9350612e92818560208601614280565b80840191505092915050565b6000612ea982614132565b612eb38185614193565b9350612ec3818560208601614280565b80840191505092915050565b6000612edc602b83614182565b91507f4552433131353523736166655472616e7366657246726f6d3a20494e56414c4960008301527f445f524543495049454e540000000000000000000000000000000000000000006020830152604082019050919050565b6000612f42601c83614193565b91507f19457468657265756d205369676e6564204d6573736167653a0a3332000000006000830152601c82019050919050565b6000612f82603783614182565b91507f4c6962427974657323706f704c617374427974653a20475245415445525f544860008301527f414e5f5a45524f5f4c454e4754485f52455155495245440000000000000000006020830152604082019050919050565b6000612fe8602a83614182565b91507f4552433131353523736166655472616e7366657246726f6d3a20494e56414c4960008301527f445f4f50455241544f52000000000000000000000000000000000000000000006020830152604082019050919050565b600061304e601783614182565b91507f536166654d617468237375623a20554e444552464c4f570000000000000000006000830152602082019050919050565b600061308e603583614182565b91507f45524331313535235f7361666542617463685472616e7366657246726f6d3a2060008301527f494e56414c49445f4152524159535f4c454e47544800000000000000000000006020830152604082019050919050565b60006130f4603a83614182565b91507f5369676e617475726556616c696461746f7223697356616c69645369676e617460008301527f7572653a20554e535550504f525445445f5349474e41545552450000000000006020830152604082019050919050565b600061315a603383614182565b91507f455243313135354d657461236d657461536166655472616e7366657246726f6d60008301527f3a20494e56414c49445f524543495049454e54000000000000000000000000006020830152604082019050919050565b60006131c0603683614182565b91507f5369676e617475726556616c696461746f7223697356616c69645369676e617460008301527f7572653a20494c4c4547414c5f5349474e4154555245000000000000000000006020830152604082019050919050565b6000613226603383614182565b91507f455243313135354d657461235f7369676e617475726556616c69646174696f6e60008301527f3a20494e56414c49445f5349474e4154555245000000000000000000000000006020830152604082019050919050565b600061328c603783614182565b91507f5369676e617475726556616c696461746f7223697356616c69645369676e617460008301527f7572653a204c454e4754485f39375f52455155495245440000000000000000006020830152604082019050919050565b60006132f2603083614182565b91507f45524331313535237361666542617463685472616e7366657246726f6d3a204960008301527f4e56414c49445f524543495049454e54000000000000000000000000000000006020830152604082019050919050565b6000613358602c83614182565b91507f455243313135352362616c616e63654f6642617463683a20494e56414c49445f60008301527f41525241595f4c454e47544800000000000000000000000000000000000000006020830152604082019050919050565b60006133be603283614182565b91507f455243313135354d657461235f7472616e736665724761734665653a2045524360008301527f32305f5452414e534645525f4641494c454400000000000000000000000000006020830152604082019050919050565b6000613424603383614182565b91507f5369676e617475726556616c696461746f7223697356616c69645369676e617460008301527f7572653a20494e56414c49445f5349474e4552000000000000000000000000006020830152604082019050919050565b600061348a602f83614182565b91507f45524331313535237361666542617463685472616e7366657246726f6d3a204960008301527f4e56414c49445f4f50455241544f5200000000000000000000000000000000006020830152604082019050919050565b60006134f0604383614182565b91507f5369676e617475726556616c696461746f7223697356616c69645369676e617460008301527f7572653a204c454e4754485f475245415445525f5448414e5f305f524551554960208301527f52454400000000000000000000000000000000000000000000000000000000006040830152606082019050919050565b600061357c603883614182565b91507f455243313135354d657461236d6574615361666542617463685472616e73666560008301527f7246726f6d3a20494e56414c49445f524543495049454e5400000000000000006020830152604082019050919050565b60006135e2600083614166565b9150600082019050919050565b60006135fc603f83614182565b91507f45524331313535235f63616c6c6f6e455243313135354261746368526563656960008301527f7665643a20494e56414c49445f4f4e5f524543454956455f4d455353414745006020830152604082019050919050565b6000613662603a83614182565b91507f45524331313535235f63616c6c6f6e4552433131353552656365697665643a2060008301527f494e56414c49445f4f4e5f524543454956455f4d4553534147450000000000006020830152604082019050919050565b60006136c8603c83614182565b91507f4c696242797465732372656164427974657333323a20475245415445525f4f5260008301527f5f455155414c5f544f5f33325f4c454e4754485f5245515549524544000000006020830152604082019050919050565b600061372e601683614182565b91507f536166654d617468236164643a204f564552464c4f57000000000000000000006000830152602082019050919050565b600061376e602f83614182565b91507f455243313135354d657461235f7369676e617475726556616c69646174696f6e60008301527f3a20494e56414c49445f4e4f4e434500000000000000000000000000000000006020830152604082019050919050565b60006137d4602e83614182565b91507f455243313135354d657461235f7472616e736665724761734665653a20554e5360008301527f5550504f525445445f544f4b454e0000000000000000000000000000000000006020830152604082019050919050565b61383681614224565b82525050565b61384581614224565b82525050565b61385481614224565b82525050565b61386b61386682614224565b6142bd565b82525050565b61387a8161422e565b82525050565b600061388c8284612da1565b915081905092915050565b60006138a38286612e6d565b91506138af828561385a565b6020820191506138bf8284612e1d565b602082019150819050949350505050565b60006138dc8286612e6d565b91506138e8828561385a565b6020820191506138f88284612e6d565b9150819050949350505050565b60006139118286612e9e565b915061391d8285612e1d565b60208201915061392d8284612e1d565b602082019150819050949350505050565b600061394982612f35565b91506139558284612e1d565b60208201915081905092915050565b600060a0820190506139796000830188612d25565b6139866020830187612d34565b81810360408301526139988186612d43565b905081810360608301526139ac8185612d43565b905081810360808301526139c08184612e34565b90509695505050505050565b600060a0820190506139e16000830188612d25565b6139ee6020830187612d34565b6139fb604083018661383c565b613a08606083018561383c565b8181036080830152613a1a8184612e34565b90509695505050505050565b6000606082019050613a3b6000830186612d34565b613a486020830185612d34565b613a55604083018461383c565b949350505050565b600060a082019050613a726000830187612d34565b613a7f6020830186612d34565b613a8c604083018561383c565b613a99606083018461383c565b8181036080830152613aaa816135d5565b905095945050505050565b60006020820190508181036000830152613acf8184612d43565b905092915050565b60006040820190508181036000830152613af18185612d43565b90508181036020830152613b058184612d43565b90509392505050565b6000602082019050613b236000830184612dff565b92915050565b6000604082019050613b3e6000830185612e0e565b613b4b6020830184612d34565b9392505050565b600060c082019050613b676000830189612e0e565b613b746020830188612d34565b613b816040830187612d34565b613b8e6060830186612e0e565b613b9b6080830185612e0e565b613ba860a083018461383c565b979650505050505050565b600060a082019050613bc86000830188612e0e565b613bd56020830187612d34565b613be26040830186612d34565b613bef606083018561383c565b613bfc608083018461383c565b9695505050505050565b600060c082019050613c1b6000830189612e0e565b613c286020830188612d34565b613c356040830187612d34565b613c42606083018661383c565b613c4f608083018561383c565b613c5c60a083018461383c565b979650505050505050565b6000604082019050613c7c6000830185612e0e565b8181036020830152613c8e8184612e34565b90509392505050565b6000608082019050613cac6000830187612e0e565b613cb96020830186613871565b613cc66040830185612e0e565b613cd36060830184612e0e565b95945050505050565b60006040820190508181036000830152613cf68185612e34565b90508181036020830152613d0a8184612e34565b90509392505050565b60006020820190508181036000830152613d2c81612ecf565b9050919050565b60006020820190508181036000830152613d4c81612f75565b9050919050565b60006020820190508181036000830152613d6c81612fdb565b9050919050565b60006020820190508181036000830152613d8c81613041565b9050919050565b60006020820190508181036000830152613dac81613081565b9050919050565b60006020820190508181036000830152613dcc816130e7565b9050919050565b60006020820190508181036000830152613dec8161314d565b9050919050565b60006020820190508181036000830152613e0c816131b3565b9050919050565b60006020820190508181036000830152613e2c81613219565b9050919050565b60006020820190508181036000830152613e4c8161327f565b9050919050565b60006020820190508181036000830152613e6c816132e5565b9050919050565b60006020820190508181036000830152613e8c8161334b565b9050919050565b60006020820190508181036000830152613eac816133b1565b9050919050565b60006020820190508181036000830152613ecc81613417565b9050919050565b60006020820190508181036000830152613eec8161347d565b9050919050565b60006020820190508181036000830152613f0c816134e3565b9050919050565b60006020820190508181036000830152613f2c8161356f565b9050919050565b60006020820190508181036000830152613f4c816135ef565b9050919050565b60006020820190508181036000830152613f6c81613655565b9050919050565b60006020820190508181036000830152613f8c816136bb565b9050919050565b60006020820190508181036000830152613fac81613721565b9050919050565b60006020820190508181036000830152613fcc81613761565b9050919050565b60006020820190508181036000830152613fec816137c7565b9050919050565b6000602082019050614008600083018461383c565b92915050565b6000604082019050614023600083018561383c565b614030602083018461383c565b9392505050565b6000604051905081810181811067ffffffffffffffff8211171561405a57600080fd5b8060405250919050565b600067ffffffffffffffff82111561407b57600080fd5b602082029050602081019050919050565b600067ffffffffffffffff8211156140a357600080fd5b602082029050602081019050919050565b600067ffffffffffffffff8211156140cb57600080fd5b601f19601f8301169050602081019050919050565b600067ffffffffffffffff8211156140f757600080fd5b601f19601f8301169050602081019050919050565b6000819050602082019050919050565b600081519050919050565b600081519050919050565b600081519050919050565b6000602082019050919050565b600082825260208201905092915050565b600081905092915050565b600082825260208201905092915050565b600081905092915050565b600082825260208201905092915050565b600081905092915050565b60006141a982614204565b9050919050565b60006141bb82614204565b9050919050565b60008115159050919050565b6000819050919050565b60007fffffffff0000000000000000000000000000000000000000000000000000000082169050919050565b600073ffffffffffffffffffffffffffffffffffffffff82169050919050565b6000819050919050565b600060ff82169050919050565b60006142468261424d565b9050919050565b60006142588261425f565b9050919050565b600061426a82614204565b9050919050565b82818337600083830152505050565b60005b8381101561429e578082015181840152602081019050614283565b838111156142ad576000848401525b50505050565b6000819050919050565b6000819050919050565b6000601f19601f8301169050919050565b6142e18161419e565b81146142ec57600080fd5b50565b6142f8816141b0565b811461430357600080fd5b50565b61430f816141c2565b811461431a57600080fd5b50565b614326816141ce565b811461433157600080fd5b50565b61433d816141d8565b811461434857600080fd5b50565b61435481614224565b811461435f57600080fd5b5056fea365627a7a72315820ca8f53ca2eb4f1b0b4307363a1cd8e5a4d50bf84097a0dfd249a8d7cb9855e376c6578706572696d656e74616cf564736f6c63430005100040",
  "source": "pragma solidity ^0.5.16;\r\npragma experimental ABIEncoderV2;\r\n\r\nimport \"./ERC1155.sol\";\r\nimport \"../../interfaces/IERC20.sol\";\r\nimport \"../../interfaces/IERC1155.sol\";\r\nimport \"../../utils/LibBytes.sol\";\r\nimport \"../../utils/SignatureValidator.sol\";\r\n\r\n\r\n/**\r\n * @dev ERC-1155 with native metatransaction methods. These additional functions allow users\r\n *      to presign function calls and allow third parties to execute these on their behalf\r\n */\r\ncontract ERC1155Meta is ERC1155, SignatureValidator {\r\n  using LibBytes for bytes;\r\n\r\n  /***********************************|\r\n  |       Variables and Structs       |\r\n  |__________________________________*/\r\n\r\n  /**\r\n   * Gas Receipt\r\n   *   feeTokenData : (bool, address, ?unit256)\r\n   *     1st element should be the address of the token\r\n   *     2nd argument (if ERC-1155) should be the ID of the token\r\n   *     Last element should be a 0x0 if ERC-20 and 0x1 for ERC-1155\r\n   */\r\n  struct GasReceipt {\r\n    uint256 gasFee;           // Fixed cost for the tx\r\n    uint256 gasLimitCallback; // Maximum amount of gas the callback in transfer functions can use\r\n    address feeRecipient;     // Address to send payment to\r\n    bytes feeTokenData;       // Data for token to pay for gas\r\n  }\r\n\r\n  // Which token standard is used to pay gas fee\r\n  enum FeeTokenType {\r\n    ERC1155,    // 0x00, ERC-1155 token - DEFAULT\r\n    ERC20,      // 0x01, ERC-20 token\r\n    NTypes      // 0x02, number of signature types. Always leave at end.\r\n  }\r\n\r\n  // Signature nonce per address\r\n  mapping (address => uint256) internal nonces;\r\n\r\n\r\n  /***********************************|\r\n  |               Events              |\r\n  |__________________________________*/\r\n\r\n  event NonceChange(address indexed signer, uint256 newNonce);\r\n\r\n\r\n  /****************************************|\r\n  |     Public Meta Transfer Functions     |\r\n  |_______________________________________*/\r\n\r\n  /**\r\n   * @notice Allows anyone with a valid signature to transfer _amount amount of a token _id on the bahalf of _from\r\n   * @param _from     Source address\r\n   * @param _to       Target address\r\n   * @param _id       ID of the token type\r\n   * @param _amount   Transfered amount\r\n   * @param _isGasFee Whether gas is reimbursed to executor or not\r\n   * @param _data     Encodes a meta transfer indicator, signature, gas payment receipt and extra transfer data\r\n   *   _data should be encoded as (\r\n   *   (bytes32 r, bytes32 s, uint8 v, uint256 nonce, SignatureType sigType),\r\n   *   (GasReceipt g, ?bytes transferData)\r\n   * )\r\n   *   i.e. high level encoding should be (bytes, bytes), where the latter bytes array is a nested bytes array\r\n   */\r\n  function metaSafeTransferFrom(\r\n    address _from,\r\n    address _to,\r\n    uint256 _id,\r\n    uint256 _amount,\r\n    bool _isGasFee,\r\n    bytes memory _data)\r\n    public\r\n  {\r\n    require(_to != address(0), \"ERC1155Meta#metaSafeTransferFrom: INVALID_RECIPIENT\");\r\n\r\n    // Initializing\r\n    bytes memory transferData;\r\n    GasReceipt memory gasReceipt;\r\n\r\n    // Verify signature and extract the signed data\r\n    bytes memory signedData = _signatureValidation(\r\n      _from,\r\n      _data,\r\n      abi.encode(\r\n        META_TX_TYPEHASH,\r\n        _from, // Address as uint256\r\n        _to,   // Address as uint256\r\n        _id,\r\n        _amount,\r\n        _isGasFee ? uint256(1) : uint256(0)  // Boolean as uint256\r\n      )\r\n    );\r\n\r\n    // Transfer asset\r\n    _safeTransferFrom(_from, _to, _id, _amount);\r\n\r\n    // If Gas is being reimbursed\r\n    if (_isGasFee) {\r\n      (gasReceipt, transferData) = abi.decode(signedData, (GasReceipt, bytes));\r\n\r\n      // We need to somewhat protect relayers against gas griefing attacks in recipient contract.\r\n      // Hence we only pass the gasLimit to the recipient such that the relayer knows the griefing\r\n      // limit. Nothing can prevent the receiver to revert the transaction as close to the gasLimit as\r\n      // possible, but the relayer can now only accept meta-transaction gasLimit within a certain range.\r\n      _callonERC1155Received(_from, _to, _id, _amount, gasReceipt.gasLimitCallback, signedData);\r\n\r\n      // Transfer gas cost\r\n      _transferGasFee(_from, gasReceipt);\r\n\r\n    } else {\r\n      _callonERC1155Received(_from, _to, _id, _amount, gasleft(), signedData);\r\n    }\r\n  }\r\n\r\n  /**\r\n   * @notice Allows anyone with a valid signature to transfer multiple types of tokens on the bahalf of _from\r\n   * @param _from     Source addresses\r\n   * @param _to       Target addresses\r\n   * @param _ids      IDs of each token type\r\n   * @param _amounts  Transfer amounts per token type\r\n   * @param _isGasFee Whether gas is reimbursed to executor or not\r\n   * @param _data     Encodes a meta transfer indicator, signature, gas payment receipt and extra transfer data\r\n   *   _data should be encoded as (\r\n   *   (bytes32 r, bytes32 s, uint8 v, uint256 nonce, SignatureType sigType),\r\n   *   (GasReceipt g, ?bytes transferData)\r\n   * )\r\n   *   i.e. high level encoding should be (bytes, bytes), where the latter bytes array is a nested bytes array\r\n   */\r\n  function metaSafeBatchTransferFrom(\r\n    address _from,\r\n    address _to,\r\n    uint256[] memory _ids,\r\n    uint256[] memory _amounts,\r\n    bool _isGasFee,\r\n    bytes memory _data)\r\n    public\r\n  {\r\n    require(_to != address(0), \"ERC1155Meta#metaSafeBatchTransferFrom: INVALID_RECIPIENT\");\r\n\r\n    // Initializing\r\n    bytes memory transferData;\r\n    GasReceipt memory gasReceipt;\r\n\r\n    // Verify signature and extract the signed data\r\n    bytes memory signedData = _signatureValidation(\r\n      _from,\r\n      _data,\r\n      abi.encode(\r\n        META_BATCH_TX_TYPEHASH,\r\n        _from, // Address as uint256\r\n        _to,   // Address as uint256\r\n        keccak256(abi.encodePacked(_ids)),\r\n        keccak256(abi.encodePacked(_amounts)),\r\n        _isGasFee ? uint256(1) : uint256(0)  // Boolean as uint256\r\n      )\r\n    );\r\n\r\n    // Transfer assets\r\n    _safeBatchTransferFrom(_from, _to, _ids, _amounts);\r\n\r\n    // If gas fee being reimbursed\r\n    if (_isGasFee) {\r\n      (gasReceipt, transferData) = abi.decode(signedData, (GasReceipt, bytes));\r\n\r\n      // We need to somewhat protect relayers against gas griefing attacks in recipient contract.\r\n      // Hence we only pass the gasLimit to the recipient such that the relayer knows the griefing\r\n      // limit. Nothing can prevent the receiver to revert the transaction as close to the gasLimit as\r\n      // possible, but the relayer can now only accept meta-transaction gasLimit within a certain range.\r\n      _callonERC1155BatchReceived(_from, _to, _ids, _amounts, gasReceipt.gasLimitCallback, signedData);\r\n\r\n      // Handle gas reimbursement\r\n      _transferGasFee(_from, gasReceipt);\r\n\r\n    } else {\r\n      _callonERC1155BatchReceived(_from, _to, _ids, _amounts, gasleft(), signedData);\r\n    }\r\n  }\r\n\r\n\r\n  /***********************************|\r\n  |         Operator Functions        |\r\n  |__________________________________*/\r\n\r\n  /**\r\n   * @notice Approve the passed address to spend on behalf of _from if valid signature is provided\r\n   * @param _owner     Address that wants to set operator status  _spender\r\n   * @param _operator  Address to add to the set of authorized operators\r\n   * @param _approved  True if the operator is approved, false to revoke approval\r\n   * @param _isGasFee  Whether gas will be reimbursed or not, with vlid signature\r\n   * @param _data      Encodes signature and gas payment receipt\r\n   *   _data should be encoded as (\r\n   *     (bytes32 r, bytes32 s, uint8 v, uint256 nonce, SignatureType sigType),\r\n   *     (GasReceipt g)\r\n   *   )\r\n   *   i.e. high level encoding should be (bytes, bytes), where the latter bytes array is a nested bytes array\r\n   */\r\n  function metaSetApprovalForAll(\r\n    address _owner,\r\n    address _operator,\r\n    bool _approved,\r\n    bool _isGasFee,\r\n    bytes memory _data)\r\n    public\r\n  {\r\n    // Verify signature and extract the signed data\r\n    bytes memory signedData = _signatureValidation(\r\n      _owner,\r\n      _data,\r\n      abi.encode(\r\n        META_APPROVAL_TYPEHASH,\r\n        _owner,                              // Address as uint256\r\n        _operator,                           // Address as uint256\r\n        _approved ? uint256(1) : uint256(0), // Boolean as uint256\r\n        _isGasFee ? uint256(1) : uint256(0)  // Boolean as uint256\r\n      )\r\n    );\r\n\r\n    // Update operator status\r\n    operators[_owner][_operator] = _approved;\r\n\r\n    // Emit event\r\n    emit ApprovalForAll(_owner, _operator, _approved);\r\n\r\n    // Handle gas reimbursement\r\n    if (_isGasFee) {\r\n      GasReceipt memory gasReceipt = abi.decode(signedData, (GasReceipt));\r\n      _transferGasFee(_owner, gasReceipt);\r\n    }\r\n  }\r\n\r\n\r\n  /****************************************|\r\n  |      Signature Validation Functions     |\r\n  |_______________________________________*/\r\n\r\n  // keccak256(\r\n  //   \"metaSafeTransferFrom(address,address,uint256,uint256,bool,bytes)\"\r\n  // );\r\n  bytes32 internal constant META_TX_TYPEHASH = 0xce0b514b3931bdbe4d5d44e4f035afe7113767b7db71949271f6a62d9c60f558;\r\n\r\n  // keccak256(\r\n  //   \"metaSafeBatchTransferFrom(address,address,uint256[],uint256[],bool,bytes)\"\r\n  // );\r\n  bytes32 internal constant META_BATCH_TX_TYPEHASH = 0xa3d4926e8cf8fe8e020cd29f514c256bc2eec62aa2337e415f1a33a4828af5a0;\r\n\r\n  // keccak256(\r\n  //   \"metaSetApprovalForAll(address,address,bool,bool,bytes)\"\r\n  // );\r\n  bytes32 internal constant META_APPROVAL_TYPEHASH = 0xf5d4c820494c8595de274c7ff619bead38aac4fbc3d143b5bf956aa4b84fa524;\r\n\r\n  /**\r\n   * @notice Verifies signatures for this contract\r\n   * @param _signer     Address of signer\r\n   * @param _sigData    Encodes signature, gas payment receipt and transfer data (if any)\r\n   * @param _encMembers Encoded EIP-712 type members (except nonce and _data), all need to be 32 bytes size\r\n   * @dev _data should be encoded as (\r\n   *   (bytes32 r, bytes32 s, uint8 v, uint256 nonce, SignatureType sigType),\r\n   *   (GasReceipt g, ?bytes transferData)\r\n   * )\r\n   *   i.e. high level encoding should be (bytes, bytes), where the latter bytes array is a nested bytes array\r\n   * @dev A valid nonce is a nonce that is within 100 value from the current nonce\r\n   */\r\n  function _signatureValidation(\r\n    address _signer,\r\n    bytes memory _sigData,\r\n    bytes memory _encMembers)\r\n    internal returns (bytes memory signedData)\r\n  {\r\n    bytes memory sig;\r\n\r\n    // Get signature and data to sign\r\n    (sig, signedData) = abi.decode(_sigData, (bytes, bytes));\r\n\r\n    // Get current nonce and nonce used for signature\r\n    uint256 currentNonce = nonces[_signer];        // Lowest valid nonce for signer\r\n    uint256 nonce = uint256(sig.readBytes32(65));  // Nonce passed in the signature object\r\n\r\n    // Verify if nonce is valid\r\n    require(\r\n      (nonce >= currentNonce) && (nonce < (currentNonce + 100)),\r\n      \"ERC1155Meta#_signatureValidation: INVALID_NONCE\"\r\n    );\r\n\r\n    // Take hash of bytes arrays\r\n    bytes32 hash = hashEIP712Message(keccak256(abi.encodePacked(_encMembers, nonce, keccak256(signedData))));\r\n\r\n    // Complete data to pass to signer verifier\r\n    bytes memory fullData = abi.encodePacked(_encMembers, nonce, signedData);\r\n\r\n    //Update signature nonce\r\n    nonces[_signer] = nonce + 1;\r\n    emit NonceChange(_signer, nonce + 1);\r\n\r\n    // Verify if _from is the signer\r\n    require(isValidSignature(_signer, hash, fullData, sig), \"ERC1155Meta#_signatureValidation: INVALID_SIGNATURE\");\r\n    return signedData;\r\n  }\r\n\r\n  /**\r\n   * @notice Returns the current nonce associated with a given address\r\n   * @param _signer Address to query signature nonce for\r\n   */\r\n  function getNonce(address _signer)\r\n    public view returns (uint256 nonce)\r\n  {\r\n    return nonces[_signer];\r\n  }\r\n\r\n\r\n  /***********************************|\r\n  |    Gas Reimbursement Functions    |\r\n  |__________________________________*/\r\n\r\n  /**\r\n   * @notice Will reimburse tx.origin or fee recipient for the gas spent execution a transaction\r\n   *         Can reimbuse in any ERC-20 or ERC-1155 token\r\n   * @param _from  Address from which the payment will be made from\r\n   * @param _g     GasReceipt object that contains gas reimbursement information\r\n   */\r\n  function _transferGasFee(address _from, GasReceipt memory _g)\r\n      internal\r\n  {\r\n    // Pop last byte to get token fee type\r\n    uint8 feeTokenTypeRaw = uint8(_g.feeTokenData.popLastByte());\r\n\r\n    // Ensure valid fee token type\r\n    require(\r\n      feeTokenTypeRaw < uint8(FeeTokenType.NTypes),\r\n      \"ERC1155Meta#_transferGasFee: UNSUPPORTED_TOKEN\"\r\n    );\r\n\r\n    // Convert to FeeTokenType corresponding value\r\n    FeeTokenType feeTokenType = FeeTokenType(feeTokenTypeRaw);\r\n\r\n    // Declarations\r\n    address tokenAddress;\r\n    address feeRecipient;\r\n    uint256 tokenID;\r\n    uint256 fee = _g.gasFee;\r\n\r\n    // If receiver is 0x0, then anyone can claim, otherwise, refund addresse provided\r\n    feeRecipient = _g.feeRecipient == address(0) ? msg.sender : _g.feeRecipient;\r\n\r\n    // Fee token is ERC1155\r\n    if (feeTokenType == FeeTokenType.ERC1155) {\r\n      (tokenAddress, tokenID) = abi.decode(_g.feeTokenData, (address, uint256));\r\n\r\n      // Fee is paid from this ERC1155 contract\r\n      if (tokenAddress == address(this)) {\r\n        _safeTransferFrom(_from, feeRecipient, tokenID, fee);\r\n\r\n        // No need to protect against griefing since recipient (if contract) is most likely owned by the relayer\r\n        _callonERC1155Received(_from, feeRecipient, tokenID, gasleft(), fee, \"\");\r\n\r\n      // Fee is paid from another ERC-1155 contract\r\n      } else {\r\n        IERC1155(tokenAddress).safeTransferFrom(_from, feeRecipient, tokenID, fee, \"\");\r\n      }\r\n\r\n    // Fee token is ERC20\r\n    } else {\r\n      tokenAddress = abi.decode(_g.feeTokenData, (address));\r\n      require(\r\n        IERC20(tokenAddress).transferFrom(_from, feeRecipient, fee),\r\n        \"ERC1155Meta#_transferGasFee: ERC20_TRANSFER_FAILED\"\r\n      );\r\n    }\r\n  }\r\n}",
  "sourcePath": "C:\\Users\\aggar\\ERC1155\\truffle-env\\contracts\\tokens\\ERC1155\\ERC1155Meta.sol",
  "compiler": {
    "name": "solc",
    "version": "0.5.16+commit.9c3226ce.Emscripten.clang"
  },
  "schemaVersion": "3.1.0",
  "updatedAt": "2020-05-19T21:47:00.192Z",
  "devdoc": {
    "details": "ERC-1155 with native metatransaction methods. These additional functions allow users     to presign function calls and allow third parties to execute these on their behalf",
    "methods": {
      "balanceOf(address,uint256)": {
        "params": {
          "_id": "ID of the Token",
          "_owner": "The address of the token holder"
        },
        "return": "The _owner's balance of the Token type requested"
      },
      "balanceOfBatch(address[],uint256[])": {
        "params": {
          "_ids": "ID of the Tokens",
          "_owners": "The addresses of the token holders"
        },
        "return": "The _owner's balance of the Token types requested (i.e. balance for each (owner, id) pair)"
      },
      "getNonce(address)": {
        "params": {
          "_signer": "Address to query signature nonce for"
        }
      },
      "isApprovedForAll(address,address)": {
        "params": {
          "_operator": "Address of authorized operator",
          "_owner": "The owner of the Tokens"
        },
        "return": "True if the operator is approved, false if not"
      },
      "isValidSignature(address,bytes32,bytes,bytes)": {
        "details": "Verifies that a hash has been signed by the given signer.",
        "params": {
          "_data": "Full EIP-712 data structure that was hashed and signed",
          "_hash": "Hash of the EIP-712 encoded data",
          "_sig": "Proof that the hash has been signed by signer.     For non wallet signatures, _sig is expected to be an array tightly encoded as     (bytes32 r, bytes32 s, uint8 v, uint256 nonce, SignatureType sigType)",
          "_signerAddress": "Address that should have signed the given hash."
        },
        "return": "True if the address recovered from the provided signature matches the input signer address."
      },
      "metaSafeBatchTransferFrom(address,address,uint256[],uint256[],bool,bytes)": {
        "params": {
          "_amounts": "Transfer amounts per token type",
          "_data": "Encodes a meta transfer indicator, signature, gas payment receipt and extra transfer data  _data should be encoded as (  (bytes32 r, bytes32 s, uint8 v, uint256 nonce, SignatureType sigType),  (GasReceipt g, ?bytes transferData) )  i.e. high level encoding should be (bytes, bytes), where the latter bytes array is a nested bytes array",
          "_from": "Source addresses",
          "_ids": "IDs of each token type",
          "_isGasFee": "Whether gas is reimbursed to executor or not",
          "_to": "Target addresses"
        }
      },
      "metaSafeTransferFrom(address,address,uint256,uint256,bool,bytes)": {
        "params": {
          "_amount": "Transfered amount",
          "_data": "Encodes a meta transfer indicator, signature, gas payment receipt and extra transfer data  _data should be encoded as (  (bytes32 r, bytes32 s, uint8 v, uint256 nonce, SignatureType sigType),  (GasReceipt g, ?bytes transferData) )  i.e. high level encoding should be (bytes, bytes), where the latter bytes array is a nested bytes array",
          "_from": "Source address",
          "_id": "ID of the token type",
          "_isGasFee": "Whether gas is reimbursed to executor or not",
          "_to": "Target address"
        }
      },
      "metaSetApprovalForAll(address,address,bool,bool,bytes)": {
        "params": {
          "_approved": "True if the operator is approved, false to revoke approval",
          "_data": "Encodes signature and gas payment receipt  _data should be encoded as (    (bytes32 r, bytes32 s, uint8 v, uint256 nonce, SignatureType sigType),    (GasReceipt g)  )  i.e. high level encoding should be (bytes, bytes), where the latter bytes array is a nested bytes array",
          "_isGasFee": "Whether gas will be reimbursed or not, with vlid signature",
          "_operator": "Address to add to the set of authorized operators",
          "_owner": "Address that wants to set operator status  _spender"
        }
      },
      "safeBatchTransferFrom(address,address,uint256[],uint256[],bytes)": {
        "params": {
          "_amounts": "Transfer amounts per token type",
          "_data": "Additional data with no specified format, sent in call to `_to`",
          "_from": "Source addresses",
          "_ids": "IDs of each token type",
          "_to": "Target addresses"
        }
      },
      "safeTransferFrom(address,address,uint256,uint256,bytes)": {
        "params": {
          "_amount": "Transfered amount",
          "_data": "Additional data with no specified format, sent in call to `_to`",
          "_from": "Source address",
          "_id": "ID of the token type",
          "_to": "Target address"
        }
      },
      "setApprovalForAll(address,bool)": {
        "params": {
          "_approved": "True if the operator is approved, false to revoke approval",
          "_operator": "Address to add to the set of authorized operators"
        }
      },
      "supportsInterface(bytes4)": {
        "params": {
          "_interfaceID": "The interface identifier, as specified in ERC-165"
        },
        "return": "`true` if the contract implements `_interfaceID` and"
      }
    }
  },
  "userdoc": {
    "methods": {
      "balanceOf(address,uint256)": {
        "notice": "Get the balance of an account's Tokens"
      },
      "balanceOfBatch(address[],uint256[])": {
        "notice": "Get the balance of multiple account/token pairs"
      },
      "getNonce(address)": {
        "notice": "Returns the current nonce associated with a given address"
      },
      "isApprovedForAll(address,address)": {
        "notice": "Queries the approval status of an operator for a given owner"
      },
      "metaSafeBatchTransferFrom(address,address,uint256[],uint256[],bool,bytes)": {
        "notice": "Allows anyone with a valid signature to transfer multiple types of tokens on the bahalf of _from"
      },
      "metaSafeTransferFrom(address,address,uint256,uint256,bool,bytes)": {
        "notice": "Allows anyone with a valid signature to transfer _amount amount of a token _id on the bahalf of _from"
      },
      "metaSetApprovalForAll(address,address,bool,bool,bytes)": {
        "notice": "Approve the passed address to spend on behalf of _from if valid signature is provided"
      },
      "safeBatchTransferFrom(address,address,uint256[],uint256[],bytes)": {
        "notice": "Send multiple types of Tokens from the _from address to the _to address (with safety call)"
      },
      "safeTransferFrom(address,address,uint256,uint256,bytes)": {
        "notice": "Transfers amount amount of an _id from the _from address to the _to address specified"
      },
      "setApprovalForAll(address,bool)": {
        "notice": "Enable or disable approval for a third party (\"operator\") to manage all of caller's tokens"
      },
      "supportsInterface(bytes4)": {
        "notice": "Query if a contract implements an interface"
      }
    }
  }
}