{
  "contractName": "ERC1155MetadataMock",
  "abi": [
    {
      "anonymous": false,
      "inputs": [
        {
          "indexed": false,
          "internalType": "string",
          "name": "_uri",
          "type": "string"
        },
        {
          "indexed": true,
          "internalType": "uint256",
          "name": "_id",
          "type": "uint256"
        }
      ],
      "name": "URI",
      "type": "event"
    },
    {
      "payable": false,
      "stateMutability": "nonpayable",
      "type": "fallback"
    },
    {
      "constant": true,
      "inputs": [
        {
          "internalType": "uint256",
          "name": "_id",
          "type": "uint256"
        }
      ],
      "name": "uri",
      "outputs": [
        {
          "internalType": "string",
          "name": "",
          "type": "string"
        }
      ],
      "payable": false,
      "stateMutability": "view",
      "type": "function"
    },
    {
      "constant": false,
      "inputs": [
        {
          "internalType": "string",
          "name": "_newBaseMetadataURI",
          "type": "string"
        }
      ],
      "name": "setBaseMetadataURI",
      "outputs": [],
      "payable": false,
      "stateMutability": "nonpayable",
      "type": "function"
    },
    {
      "constant": false,
      "inputs": [
        {
          "internalType": "uint256[]",
          "name": "_tokenIDs",
          "type": "uint256[]"
        }
      ],
      "name": "logURIsMock",
      "outputs": [],
      "payable": false,
      "stateMutability": "nonpayable",
      "type": "function"
    }
  ],
  "bytecode": "0x608060405234801561001057600080fd5b506109b8806100206000396000f3fe608060405234801561001057600080fd5b50600436106100415760003560e01c80630e89341c1461007c5780631ea430d4146100ac5780637e518ec8146100c8575b6040517f08c379a000000000000000000000000000000000000000000000000000000000815260040161007390610824565b60405180910390fd5b610096600480360361009191908101906105dd565b6100e4565b6040516100a39190610802565b60405180910390f35b6100c660048036036100c1919081019061055b565b610118565b005b6100e260048036036100dd919081019061059c565b610124565b005b606060006100f183610130565b6040516020016101029291906107d3565b6040516020818303038152906040529050919050565b61012181610263565b50565b61012d816103b0565b50565b60606000821415610178576040518060400160405280600181526020017f3000000000000000000000000000000000000000000000000000000000000000815250905061025e565b6000829050600083905060005b600083146101a7578080600101915050600a838161019f57fe5b049250610185565b6060816040519080825280601f01601f1916602001820160405280156101dc5781602001600182028038833980820191505090505b50905060006001830390505b6000841461025557600a84816101fa57fe5b0660300160f81b8282806001900393508151811061021457fe5b60200101907effffffffffffffffffffffffffffffffffffffffffffffffffffffffffffff1916908160001a905350600a848161024d57fe5b0493506101e8565b81955050505050505b919050565b606060008054600181600116156101000203166002900480601f0160208091040260200160405190810160405280929190818152602001828054600181600116156101000203166002900480156102fb5780601f106102d0576101008083540402835291602001916102fb565b820191906000526020600020905b8154815290600101906020018083116102de57829003601f168201915b50505050509050606060008090505b83518110156103aa578261033085838151811061032357fe5b6020026020010151610130565b6040516020016103419291906107a4565b604051602081830303815290604052915083818151811061035e57fe5b60200260200101517f6bb7ff708619ba0610cba295a58592e0451dee2622938c8755667688daf3529b836040516103959190610802565b60405180910390a2808060010191505061030a565b50505050565b80600090805190602001906103c69291906103ca565b5050565b828054600181600116156101000203166002900490600052602060002090601f016020900481019282601f1061040b57805160ff1916838001178555610439565b82800160010185558215610439579182015b8281111561043857825182559160200191906001019061041d565b5b509050610446919061044a565b5090565b61046c91905b80821115610468576000816000905550600101610450565b5090565b90565b600082601f83011261048057600080fd5b813561049361048e82610871565b610844565b915081818352602084019350602081019050838560208402820111156104b857600080fd5b60005b838110156104e857816104ce8882610546565b8452602084019350602083019250506001810190506104bb565b5050505092915050565b600082601f83011261050357600080fd5b813561051661051182610899565b610844565b9150808252602083016020830185838301111561053257600080fd5b61053d83828461090b565b50505092915050565b6000813590506105558161095e565b92915050565b60006020828403121561056d57600080fd5b600082013567ffffffffffffffff81111561058757600080fd5b6105938482850161046f565b91505092915050565b6000602082840312156105ae57600080fd5b600082013567ffffffffffffffff8111156105c857600080fd5b6105d4848285016104f2565b91505092915050565b6000602082840312156105ef57600080fd5b60006105fd84828501610546565b91505092915050565b6000610611826108da565b61061b81856108e5565b935061062b81856020860161091a565b6106348161094d565b840191505092915050565b600061064a826108da565b61065481856108f6565b935061066481856020860161091a565b80840191505092915050565b60008154600181166000811461068d57600181146106b2576106f6565b607f600283041661069e81876108f6565b955060ff19831686528086019350506106f6565b600282046106c081876108f6565b95506106cb856108c5565b60005b828110156106ed578154818901526001820191506020810190506106ce565b82880195505050505b505092915050565b600061070b6023836108e5565b91507f455243313135354d657461646174614d6f636b3a20494e56414c49445f4d455460008301527f484f4400000000000000000000000000000000000000000000000000000000006020830152604082019050919050565b60006107716005836108f6565b91507f2e6a736f6e0000000000000000000000000000000000000000000000000000006000830152600582019050919050565b60006107b0828561063f565b91506107bc828461063f565b91506107c782610764565b91508190509392505050565b60006107df8285610670565b91506107eb828461063f565b91506107f682610764565b91508190509392505050565b6000602082019050818103600083015261081c8184610606565b905092915050565b6000602082019050818103600083015261083d816106fe565b9050919050565b6000604051905081810181811067ffffffffffffffff8211171561086757600080fd5b8060405250919050565b600067ffffffffffffffff82111561088857600080fd5b602082029050602081019050919050565b600067ffffffffffffffff8211156108b057600080fd5b601f19601f8301169050602081019050919050565b60008190508160005260206000209050919050565b600081519050919050565b600082825260208201905092915050565b600081905092915050565b6000819050919050565b82818337600083830152505050565b60005b8381101561093857808201518184015260208101905061091d565b83811115610947576000848401525b50505050565b6000601f19601f8301169050919050565b61096781610901565b811461097257600080fd5b5056fea365627a7a72315820629132ffe1f144abd1e42f0ca3ceab5340ecf49c389eb96cb933cb2b5b9968ee6c6578706572696d656e74616cf564736f6c63430005100040",
  "source": "pragma solidity ^0.5.16;\r\npragma experimental ABIEncoderV2;\r\n\r\nimport \"../tokens/ERC1155/ERC1155Metadata.sol\";\r\n\r\n\r\ncontract ERC1155MetadataMock is ERC1155Metadata {\r\n\r\n  /***********************************|\r\n  |         Base URI Functions        |\r\n  |__________________________________*/\r\n\r\n  /**\r\n   * @notice Will update the base URL of token's URI\r\n   * @param _newBaseMetadataURI New base URL of token's URI\r\n   */\r\n  function setBaseMetadataURI(string memory _newBaseMetadataURI) public {\r\n    super._setBaseMetadataURI(_newBaseMetadataURI);\r\n  }\r\n\r\n\r\n  /***********************************|\r\n  |         Log URI Functions         |\r\n  |__________________________________*/\r\n\r\n  /**\r\n   * @notice Will emit default URI log event for corresponding token _id\r\n   * @param _tokenIDs Array of IDs of tokens to log default URI\r\n   */\r\n  function logURIsMock(uint256[] memory _tokenIDs) public {\r\n    super._logURIs(_tokenIDs);\r\n  }\r\n\r\n\r\n  /***********************************|\r\n  |       Unsupported Functions       |\r\n  |__________________________________*/\r\n\r\n  function () external {\r\n    revert('ERC1155MetadataMock: INVALID_METHOD');\r\n  }\r\n}",
  "sourcePath": "C:\\Users\\aggar\\ERC1155\\truffle-env\\contracts\\mocks\\ERC1155MetadataMock.sol",
  "compiler": {
    "name": "solc",
    "version": "0.5.16+commit.9c3226ce.Emscripten.clang"
  },
  "schemaVersion": "3.1.0",
  "updatedAt": "2020-05-19T21:47:00.133Z",
  "devdoc": {
    "methods": {
      "logURIsMock(uint256[])": {
        "params": {
          "_tokenIDs": "Array of IDs of tokens to log default URI"
        }
      },
      "setBaseMetadataURI(string)": {
        "params": {
          "_newBaseMetadataURI": "New base URL of token's URI"
        }
      },
      "uri(uint256)": {
        "details": "URIs are defined in RFC 3986.     URIs are assumed to be deterministically generated based on token ID     Token IDs are assumed to be represented in their hex format in URIs",
        "return": "URI string"
      }
    }
  },
  "userdoc": {
    "methods": {
      "logURIsMock(uint256[])": {
        "notice": "Will emit default URI log event for corresponding token _id"
      },
      "setBaseMetadataURI(string)": {
        "notice": "Will update the base URL of token's URI"
      },
      "uri(uint256)": {
        "notice": "A distinct Uniform Resource Identifier (URI) for a given token."
      }
    }
  }
}