{
  "contractName": "ERC1155MetaMintBurnMock",
  "abi": [
    {
      "anonymous": false,
      "inputs": [
        {
          "indexed": true,
          "internalType": "address",
          "name": "_owner",
          "type": "address"
        },
        {
          "indexed": true,
          "internalType": "address",
          "name": "_operator",
          "type": "address"
        },
        {
          "indexed": false,
          "internalType": "bool",
          "name": "_approved",
          "type": "bool"
        }
      ],
      "name": "ApprovalForAll",
      "type": "event"
    },
    {
      "anonymous": false,
      "inputs": [
        {
          "indexed": true,
          "internalType": "address",
          "name": "signer",
          "type": "address"
        },
        {
          "indexed": false,
          "internalType": "uint256",
          "name": "newNonce",
          "type": "uint256"
        }
      ],
      "name": "NonceChange",
      "type": "event"
    },
    {
      "anonymous": false,
      "inputs": [
        {
          "indexed": true,
          "internalType": "address",
          "name": "_operator",
          "type": "address"
        },
        {
          "indexed": true,
          "internalType": "address",
          "name": "_from",
          "type": "address"
        },
        {
          "indexed": true,
          "internalType": "address",
          "name": "_to",
          "type": "address"
        },
        {
          "indexed": false,
          "internalType": "uint256[]",
          "name": "_ids",
          "type": "uint256[]"
        },
        {
          "indexed": false,
          "internalType": "uint256[]",
          "name": "_amounts",
          "type": "uint256[]"
        }
      ],
      "name": "TransferBatch",
      "type": "event"
    },
    {
      "anonymous": false,
      "inputs": [
        {
          "indexed": true,
          "internalType": "address",
          "name": "_operator",
          "type": "address"
        },
        {
          "indexed": true,
          "internalType": "address",
          "name": "_from",
          "type": "address"
        },
        {
          "indexed": true,
          "internalType": "address",
          "name": "_to",
          "type": "address"
        },
        {
          "indexed": false,
          "internalType": "uint256",
          "name": "_id",
          "type": "uint256"
        },
        {
          "indexed": false,
          "internalType": "uint256",
          "name": "_amount",
          "type": "uint256"
        }
      ],
      "name": "TransferSingle",
      "type": "event"
    },
    {
      "anonymous": false,
      "inputs": [
        {
          "indexed": false,
          "internalType": "string",
          "name": "_uri",
          "type": "string"
        },
        {
          "indexed": true,
          "internalType": "uint256",
          "name": "_id",
          "type": "uint256"
        }
      ],
      "name": "URI",
      "type": "event"
    },
    {
      "payable": false,
      "stateMutability": "nonpayable",
      "type": "fallback"
    },
    {
      "constant": true,
      "inputs": [
        {
          "internalType": "address",
          "name": "_owner",
          "type": "address"
        },
        {
          "internalType": "uint256",
          "name": "_id",
          "type": "uint256"
        }
      ],
      "name": "balanceOf",
      "outputs": [
        {
          "internalType": "uint256",
          "name": "",
          "type": "uint256"
        }
      ],
      "payable": false,
      "stateMutability": "view",
      "type": "function"
    },
    {
      "constant": true,
      "inputs": [
        {
          "internalType": "address[]",
          "name": "_owners",
          "type": "address[]"
        },
        {
          "internalType": "uint256[]",
          "name": "_ids",
          "type": "uint256[]"
        }
      ],
      "name": "balanceOfBatch",
      "outputs": [
        {
          "internalType": "uint256[]",
          "name": "",
          "type": "uint256[]"
        }
      ],
      "payable": false,
      "stateMutability": "view",
      "type": "function"
    },
    {
      "constant": true,
      "inputs": [
        {
          "internalType": "address",
          "name": "_signer",
          "type": "address"
        }
      ],
      "name": "getNonce",
      "outputs": [
        {
          "internalType": "uint256",
          "name": "nonce",
          "type": "uint256"
        }
      ],
      "payable": false,
      "stateMutability": "view",
      "type": "function"
    },
    {
      "constant": true,
      "inputs": [
        {
          "internalType": "address",
          "name": "_owner",
          "type": "address"
        },
        {
          "internalType": "address",
          "name": "_operator",
          "type": "address"
        }
      ],
      "name": "isApprovedForAll",
      "outputs": [
        {
          "internalType": "bool",
          "name": "isOperator",
          "type": "bool"
        }
      ],
      "payable": false,
      "stateMutability": "view",
      "type": "function"
    },
    {
      "constant": true,
      "inputs": [
        {
          "internalType": "address",
          "name": "_signerAddress",
          "type": "address"
        },
        {
          "internalType": "bytes32",
          "name": "_hash",
          "type": "bytes32"
        },
        {
          "internalType": "bytes",
          "name": "_data",
          "type": "bytes"
        },
        {
          "internalType": "bytes",
          "name": "_sig",
          "type": "bytes"
        }
      ],
      "name": "isValidSignature",
      "outputs": [
        {
          "internalType": "bool",
          "name": "isValid",
          "type": "bool"
        }
      ],
      "payable": false,
      "stateMutability": "view",
      "type": "function"
    },
    {
      "constant": false,
      "inputs": [
        {
          "internalType": "address",
          "name": "_from",
          "type": "address"
        },
        {
          "internalType": "address",
          "name": "_to",
          "type": "address"
        },
        {
          "internalType": "uint256[]",
          "name": "_ids",
          "type": "uint256[]"
        },
        {
          "internalType": "uint256[]",
          "name": "_amounts",
          "type": "uint256[]"
        },
        {
          "internalType": "bool",
          "name": "_isGasFee",
          "type": "bool"
        },
        {
          "internalType": "bytes",
          "name": "_data",
          "type": "bytes"
        }
      ],
      "name": "metaSafeBatchTransferFrom",
      "outputs": [],
      "payable": false,
      "stateMutability": "nonpayable",
      "type": "function"
    },
    {
      "constant": false,
      "inputs": [
        {
          "internalType": "address",
          "name": "_from",
          "type": "address"
        },
        {
          "internalType": "address",
          "name": "_to",
          "type": "address"
        },
        {
          "internalType": "uint256",
          "name": "_id",
          "type": "uint256"
        },
        {
          "internalType": "uint256",
          "name": "_amount",
          "type": "uint256"
        },
        {
          "internalType": "bool",
          "name": "_isGasFee",
          "type": "bool"
        },
        {
          "internalType": "bytes",
          "name": "_data",
          "type": "bytes"
        }
      ],
      "name": "metaSafeTransferFrom",
      "outputs": [],
      "payable": false,
      "stateMutability": "nonpayable",
      "type": "function"
    },
    {
      "constant": false,
      "inputs": [
        {
          "internalType": "address",
          "name": "_owner",
          "type": "address"
        },
        {
          "internalType": "address",
          "name": "_operator",
          "type": "address"
        },
        {
          "internalType": "bool",
          "name": "_approved",
          "type": "bool"
        },
        {
          "internalType": "bool",
          "name": "_isGasFee",
          "type": "bool"
        },
        {
          "internalType": "bytes",
          "name": "_data",
          "type": "bytes"
        }
      ],
      "name": "metaSetApprovalForAll",
      "outputs": [],
      "payable": false,
      "stateMutability": "nonpayable",
      "type": "function"
    },
    {
      "constant": false,
      "inputs": [
        {
          "internalType": "address",
          "name": "_from",
          "type": "address"
        },
        {
          "internalType": "address",
          "name": "_to",
          "type": "address"
        },
        {
          "internalType": "uint256[]",
          "name": "_ids",
          "type": "uint256[]"
        },
        {
          "internalType": "uint256[]",
          "name": "_amounts",
          "type": "uint256[]"
        },
        {
          "internalType": "bytes",
          "name": "_data",
          "type": "bytes"
        }
      ],
      "name": "safeBatchTransferFrom",
      "outputs": [],
      "payable": false,
      "stateMutability": "nonpayable",
      "type": "function"
    },
    {
      "constant": false,
      "inputs": [
        {
          "internalType": "address",
          "name": "_from",
          "type": "address"
        },
        {
          "internalType": "address",
          "name": "_to",
          "type": "address"
        },
        {
          "internalType": "uint256",
          "name": "_id",
          "type": "uint256"
        },
        {
          "internalType": "uint256",
          "name": "_amount",
          "type": "uint256"
        },
        {
          "internalType": "bytes",
          "name": "_data",
          "type": "bytes"
        }
      ],
      "name": "safeTransferFrom",
      "outputs": [],
      "payable": false,
      "stateMutability": "nonpayable",
      "type": "function"
    },
    {
      "constant": false,
      "inputs": [
        {
          "internalType": "address",
          "name": "_operator",
          "type": "address"
        },
        {
          "internalType": "bool",
          "name": "_approved",
          "type": "bool"
        }
      ],
      "name": "setApprovalForAll",
      "outputs": [],
      "payable": false,
      "stateMutability": "nonpayable",
      "type": "function"
    },
    {
      "constant": true,
      "inputs": [
        {
          "internalType": "bytes4",
          "name": "_interfaceID",
          "type": "bytes4"
        }
      ],
      "name": "supportsInterface",
      "outputs": [
        {
          "internalType": "bool",
          "name": "",
          "type": "bool"
        }
      ],
      "payable": false,
      "stateMutability": "view",
      "type": "function"
    },
    {
      "constant": true,
      "inputs": [
        {
          "internalType": "uint256",
          "name": "_id",
          "type": "uint256"
        }
      ],
      "name": "uri",
      "outputs": [
        {
          "internalType": "string",
          "name": "",
          "type": "string"
        }
      ],
      "payable": false,
      "stateMutability": "view",
      "type": "function"
    },
    {
      "constant": false,
      "inputs": [
        {
          "internalType": "address",
          "name": "_to",
          "type": "address"
        },
        {
          "internalType": "uint256",
          "name": "_id",
          "type": "uint256"
        },
        {
          "internalType": "uint256",
          "name": "_value",
          "type": "uint256"
        },
        {
          "internalType": "bytes",
          "name": "_data",
          "type": "bytes"
        }
      ],
      "name": "mintMock",
      "outputs": [],
      "payable": false,
      "stateMutability": "nonpayable",
      "type": "function"
    },
    {
      "constant": false,
      "inputs": [
        {
          "internalType": "address",
          "name": "_to",
          "type": "address"
        },
        {
          "internalType": "uint256[]",
          "name": "_ids",
          "type": "uint256[]"
        },
        {
          "internalType": "uint256[]",
          "name": "_values",
          "type": "uint256[]"
        },
        {
          "internalType": "bytes",
          "name": "_data",
          "type": "bytes"
        }
      ],
      "name": "batchMintMock",
      "outputs": [],
      "payable": false,
      "stateMutability": "nonpayable",
      "type": "function"
    },
    {
      "constant": false,
      "inputs": [
        {
          "internalType": "address",
          "name": "_from",
          "type": "address"
        },
        {
          "internalType": "uint256",
          "name": "_id",
          "type": "uint256"
        },
        {
          "internalType": "uint256",
          "name": "_value",
          "type": "uint256"
        }
      ],
      "name": "burnMock",
      "outputs": [],
      "payable": false,
      "stateMutability": "nonpayable",
      "type": "function"
    },
    {
      "constant": false,
      "inputs": [
        {
          "internalType": "address",
          "name": "_from",
          "type": "address"
        },
        {
          "internalType": "uint256[]",
          "name": "_ids",
          "type": "uint256[]"
        },
        {
          "internalType": "uint256[]",
          "name": "_values",
          "type": "uint256[]"
        }
      ],
      "name": "batchBurnMock",
      "outputs": [],
      "payable": false,
      "stateMutability": "nonpayable",
      "type": "function"
    }
  ],
  "bytecode": "0x608060405234801561001057600080fd5b50615218806100206000396000f3fe608060405234801561001057600080fd5b506004361061010a5760003560e01c8063a3d4926e116100a2578063d7a0ad9011610071578063d7a0ad90146102f9578063e985e9c514610315578063f242432a14610345578063f5d4c82014610361578063fa4e12d71461037d5761010a565b8063a3d4926e14610289578063a3f091f5146102a5578063bd7a6c41146102c1578063ce0b514b146102dd5761010a565b80632eb2c2d6116100de5780632eb2c2d614610205578063437ecbe9146102215780634e1273f41461023d578063a22cb4651461026d5761010a565b8062fdd58e1461014557806301ffc9a7146101755780630e89341c146101a55780632d0335ab146101d5575b6040517f08c379a000000000000000000000000000000000000000000000000000000000815260040161013c90614c86565b60405180910390fd5b61015f600480360361015a91908101906134fe565b6103ad565b60405161016c9190614e46565b60405180910390f35b61018f600480360361018a9190810190613699565b610407565b60405161019c91906148df565b60405180910390f35b6101bf60048036036101ba9190810190613804565b6104b8565b6040516101cc9190614ae4565b60405180910390f35b6101ef60048036036101ea9190810190612eec565b6104ec565b6040516101fc9190614e46565b60405180910390f35b61021f600480360361021a9190810190613087565b610535565b005b61023b6004803603610236919081019061353a565b610645565b005b61025760048036036102529190810190613604565b610655565b6040516102649190614886565b60405180910390f35b6102876004803603610282919081019061342f565b610785565b005b6102a3600480360361029e9190810190612fb6565b610882565b005b6102bf60048036036102ba9190810190613589565b610a20565b005b6102db60048036036102d69190810190613305565b610a32565b005b6102f760048036036102f291908101906131d5565b610a42565b005b610313600480360361030e9190810190613384565b610b94565b005b61032f600480360361032a9190810190612f7a565b610ba6565b60405161033c91906148df565b60405180910390f35b61035f600480360361035a9190810190613276565b610c3a565b005b61037b60048036036103769190810190613146565b610d4a565b005b6103976004803603610392919081019061346b565b610ef0565b6040516103a491906148df565b60405180910390f35b60008060008473ffffffffffffffffffffffffffffffffffffffff1673ffffffffffffffffffffffffffffffffffffffff168152602001908152602001600020600083815260200190815260200160002054905092915050565b60006301ffc9a760e01b7bffffffffffffffffffffffffffffffffffffffffffffffffffffffff1916827bffffffffffffffffffffffffffffffffffffffffffffffffffffffff191614806104a0575063d9b67a2660e01b7bffffffffffffffffffffffffffffffffffffffffffffffffffffffff1916827bffffffffffffffffffffffffffffffffffffffffffffffffffffffff1916145b156104ae57600190506104b3565b600090505b919050565b606060036104c58361155e565b6040516020016104d69291906146e0565b6040516020818303038152906040529050919050565b6000600260008373ffffffffffffffffffffffffffffffffffffffff1673ffffffffffffffffffffffffffffffffffffffff168152602001908152602001600020549050919050565b8473ffffffffffffffffffffffffffffffffffffffff163373ffffffffffffffffffffffffffffffffffffffff16148061057557506105748533610ba6565b5b6105b4576040517f08c379a00000000000000000000000000000000000000000000000000000000081526004016105ab90614d06565b60405180910390fd5b600073ffffffffffffffffffffffffffffffffffffffff168473ffffffffffffffffffffffffffffffffffffffff161415610624576040517f08c379a000000000000000000000000000000000000000000000000000000000815260040161061b90614c46565b60405180910390fd5b61063085858585611691565b61063e858585855a86611958565b5050505050565b610650838383611aa6565b505050565b6060815183511461069b576040517f08c379a000000000000000000000000000000000000000000000000000000000815260040161069290614ca6565b60405180910390fd5b606083516040519080825280602002602001820160405280156106cd5781602001602082028038833980820191505090505b50905060008090505b845181101561077a576000808683815181106106ee57fe5b602002602001015173ffffffffffffffffffffffffffffffffffffffff1673ffffffffffffffffffffffffffffffffffffffff168152602001908152602001600020600085838151811061073e57fe5b602002602001015181526020019081526020016000205482828151811061076157fe5b60200260200101818152505080806001019150506106d6565b508091505092915050565b80600160003373ffffffffffffffffffffffffffffffffffffffff1673ffffffffffffffffffffffffffffffffffffffff16815260200190815260200160002060008473ffffffffffffffffffffffffffffffffffffffff1673ffffffffffffffffffffffffffffffffffffffff16815260200190815260200160002060006101000a81548160ff0219169083151502179055508173ffffffffffffffffffffffffffffffffffffffff163373ffffffffffffffffffffffffffffffffffffffff167f17307eab39ab6107e8899845ad3d59bd9653f200f220920489ca2b5937696c318360405161087691906148df565b60405180910390a35050565b600073ffffffffffffffffffffffffffffffffffffffff168573ffffffffffffffffffffffffffffffffffffffff1614156108f2576040517f08c379a00000000000000000000000000000000000000000000000000000000081526004016108e990614d66565b60405180910390fd5b60606108fc612ba2565b60606109af89857fa3d4926e8cf8fe8e020cd29f514c256bc2eec62aa2337e415f1a33a4828af5a060001b8c8c8c60405160200161093a9190614622565b604051602081830303815290604052805190602001208c6040516020016109619190614622565b604051602081830303815290604052805190602001208c610983576000610986565b60015b60405160200161099b96959493929190614923565b604051602081830303815290604052611bdf565b90506109bd89898989611691565b8415610a0657808060200190516109d79190810190613798565b81915080905080945081935050506109f789898989866020015186611958565b610a018983611e0c565b610a15565b610a14898989895a86611958565b5b505050505050505050565b610a2c848484846120e7565b50505050565b610a3d838383612230565b505050565b600073ffffffffffffffffffffffffffffffffffffffff168573ffffffffffffffffffffffffffffffffffffffff161415610ab2576040517f08c379a0000000000000000000000000000000000000000000000000000000008152600401610aa990614bc6565b60405180910390fd5b6060610abc612ba2565b6060610b2389857fce0b514b3931bdbe4d5d44e4f035afe7113767b7db71949271f6a62d9c60f55860001b8c8c8c8c8c610af7576000610afa565b60015b604051602001610b0f969594939291906149d7565b604051602081830303815290604052611bdf565b9050610b3189898989612408565b8415610b7a5780806020019051610b4b9190810190613798565b8191508090508094508193505050610b6b898989898660200151866125f6565b610b758983611e0c565b610b89565b610b88898989895a866125f6565b5b505050505050505050565b610ba084848484612744565b50505050565b6000600160008473ffffffffffffffffffffffffffffffffffffffff1673ffffffffffffffffffffffffffffffffffffffff16815260200190815260200160002060008373ffffffffffffffffffffffffffffffffffffffff1673ffffffffffffffffffffffffffffffffffffffff16815260200190815260200160002060009054906101000a900460ff16905092915050565b8473ffffffffffffffffffffffffffffffffffffffff163373ffffffffffffffffffffffffffffffffffffffff161480610c7a5750610c798533610ba6565b5b610cb9576040517f08c379a0000000000000000000000000000000000000000000000000000000008152600401610cb090614b46565b60405180910390fd5b600073ffffffffffffffffffffffffffffffffffffffff168473ffffffffffffffffffffffffffffffffffffffff161415610d29576040517f08c379a0000000000000000000000000000000000000000000000000000000008152600401610d2090614b06565b60405180910390fd5b610d3585858585612408565b610d43858585855a866125f6565b5050505050565b6060610dbd86837ff5d4c820494c8595de274c7ff619bead38aac4fbc3d143b5bf956aa4b84fa52460001b898989610d83576000610d86565b60015b89610d92576000610d95565b60015b604051602001610da9959493929190614984565b604051602081830303815290604052611bdf565b905083600160008873ffffffffffffffffffffffffffffffffffffffff1673ffffffffffffffffffffffffffffffffffffffff16815260200190815260200160002060008773ffffffffffffffffffffffffffffffffffffffff1673ffffffffffffffffffffffffffffffffffffffff16815260200190815260200160002060006101000a81548160ff0219169083151502179055508473ffffffffffffffffffffffffffffffffffffffff168673ffffffffffffffffffffffffffffffffffffffff167f17307eab39ab6107e8899845ad3d59bd9653f200f220920489ca2b5937696c3186604051610eb091906148df565b60405180910390a38215610ee857610ec6612ba2565b81806020019051610eda9190810190613757565b9050610ee68782611e0c565b505b505050505050565b600080825111610f35576040517f08c379a0000000000000000000000000000000000000000000000000000000008152600401610f2c90614d26565b60405180910390fd5b600073ffffffffffffffffffffffffffffffffffffffff168573ffffffffffffffffffffffffffffffffffffffff161415610fa5576040517f08c379a0000000000000000000000000000000000000000000000000000000008152600401610f9c90614ce6565b60405180910390fd5b6000610fb08361292d565b60f81c9050600580811115610fc157fe5b60ff168160ff1610611008576040517f08c379a0000000000000000000000000000000000000000000000000000000008152600401610fff90614ba6565b60405180910390fd5b60008160ff16600581111561101957fe5b90506000806000806000600581111561102e57fe5b85600581111561103a57fe5b141561107b576040517f08c379a000000000000000000000000000000000000000000000000000000000815260040161107290614be6565b60405180910390fd5b6001600581111561108857fe5b85600581111561109457fe5b14156111b75760618851146110de576040517f08c379a00000000000000000000000000000000000000000000000000000000081526004016110d590614c26565b60405180910390fd5b6110f26000896129a090919063ffffffff16565b92506111086020896129a090919063ffffffff16565b91508760408151811061111757fe5b602001015160f81c60f81b60f81c935060018a8585856040516000815260200160405260405161114a9493929190614a68565b6020604051602081039080840390855afa15801561116c573d6000803e3d6000fd5b5050506020604051035190508073ffffffffffffffffffffffffffffffffffffffff168b73ffffffffffffffffffffffffffffffffffffffff16149650869650505050505050611556565b600260058111156111c457fe5b8560058111156111d057fe5b141561131957606188511461121a576040517f08c379a000000000000000000000000000000000000000000000000000000000815260040161121190614c26565b60405180910390fd5b61122e6000896129a090919063ffffffff16565b92506112446020896129a090919063ffffffff16565b91508760408151811061125357fe5b602001015160f81c60f81b60f81c935060018a604051602001611276919061470f565b60405160208183030381529060405280519060200120858585604051600081526020016040526040516112ac9493929190614a68565b6020604051602081039080840390855afa1580156112ce573d6000803e3d6000fd5b5050506020604051035190508073ffffffffffffffffffffffffffffffffffffffff168b73ffffffffffffffffffffffffffffffffffffffff16149650869650505050505050611556565b6003600581111561132657fe5b85600581111561133257fe5b141561141a578a73ffffffffffffffffffffffffffffffffffffffff166320c13b0b8a8a6040518363ffffffff1660e01b8152600401611373929190614aad565b60206040518083038186803b15801561138b57600080fd5b505afa15801561139f573d6000803e3d6000fd5b505050506040513d601f19601f820116820180604052506113c391908101906136c2565b7bffffffffffffffffffffffffffffffffffffffffffffffffffffffff19166320c13b0b60e01b7bffffffffffffffffffffffffffffffffffffffffffffffffffffffff1916149650869650505050505050611556565b6004600581111561142757fe5b85600581111561143357fe5b141561151b578a73ffffffffffffffffffffffffffffffffffffffff16631626ba7e8b8a6040518363ffffffff1660e01b8152600401611474929190614a38565b60206040518083038186803b15801561148c57600080fd5b505afa1580156114a0573d6000803e3d6000fd5b505050506040513d601f19601f820116820180604052506114c491908101906136c2565b7bffffffffffffffffffffffffffffffffffffffffffffffffffffffff1916631626ba7e60e01b7bffffffffffffffffffffffffffffffffffffffffffffffffffffffff1916149650869650505050505050611556565b6040517f08c379a000000000000000000000000000000000000000000000000000000000815260040161154d90614ba6565b60405180910390fd5b949350505050565b606060008214156115a6576040518060400160405280600181526020017f3000000000000000000000000000000000000000000000000000000000000000815250905061168c565b6000829050600083905060005b600083146115d5578080600101915050600a83816115cd57fe5b0492506115b3565b6060816040519080825280601f01601f19166020018201604052801561160a5781602001600182028038833980820191505090505b50905060006001830390505b6000841461168357600a848161162857fe5b0660300160f81b8282806001900393508151811061164257fe5b60200101907effffffffffffffffffffffffffffffffffffffffffffffffffffffffffffff1916908160001a905350600a848161167b57fe5b049350611616565b81955050505050505b919050565b80518251146116d5576040517f08c379a00000000000000000000000000000000000000000000000000000000081526004016116cc90614b86565b60405180910390fd5b60008251905060008090505b818110156118d2576117718382815181106116f857fe5b60200260200101516000808973ffffffffffffffffffffffffffffffffffffffff1673ffffffffffffffffffffffffffffffffffffffff168152602001908152602001600020600087858151811061174c57fe5b60200260200101518152602001908152602001600020546129fe90919063ffffffff16565b6000808873ffffffffffffffffffffffffffffffffffffffff1673ffffffffffffffffffffffffffffffffffffffff16815260200190815260200160002060008684815181106117bd57fe5b602002602001015181526020019081526020016000208190555061185f8382815181106117e657fe5b60200260200101516000808873ffffffffffffffffffffffffffffffffffffffff1673ffffffffffffffffffffffffffffffffffffffff168152602001908152602001600020600087858151811061183a57fe5b6020026020010151815260200190815260200160002054612a5490919063ffffffff16565b6000808773ffffffffffffffffffffffffffffffffffffffff1673ffffffffffffffffffffffffffffffffffffffff16815260200190815260200160002060008684815181106118ab57fe5b602002602001015181526020019081526020016000208190555080806001019150506116e1565b508373ffffffffffffffffffffffffffffffffffffffff168573ffffffffffffffffffffffffffffffffffffffff163373ffffffffffffffffffffffffffffffffffffffff167f4a39dc06d4c0dbc64b70af90fd698a233a518aa5d07e595d983b8c0526c8f7fb86866040516119499291906148a8565b60405180910390a45050505050565b6119778573ffffffffffffffffffffffffffffffffffffffff16612aa9565b15611a9e5760008573ffffffffffffffffffffffffffffffffffffffff1663bc197c8184338a8989886040518763ffffffff1660e01b81526004016119c0959493929190614735565b602060405180830381600088803b1580156119da57600080fd5b5087f11580156119ee573d6000803e3d6000fd5b50505050506040513d601f19601f82011682018060405250611a1391908101906136c2565b905063bc197c8160e01b7bffffffffffffffffffffffffffffffffffffffffffffffffffffffff1916817bffffffffffffffffffffffffffffffffffffffffffffffffffffffff191614611a9c576040517f08c379a0000000000000000000000000000000000000000000000000000000008152600401611a9390614d86565b60405180910390fd5b505b505050505050565b611b08816000808673ffffffffffffffffffffffffffffffffffffffff1673ffffffffffffffffffffffffffffffffffffffff1681526020019081526020016000206000858152602001908152602001600020546129fe90919063ffffffff16565b6000808573ffffffffffffffffffffffffffffffffffffffff1673ffffffffffffffffffffffffffffffffffffffff168152602001908152602001600020600084815260200190815260200160002081905550600073ffffffffffffffffffffffffffffffffffffffff168373ffffffffffffffffffffffffffffffffffffffff163373ffffffffffffffffffffffffffffffffffffffff167fc3d58168c5ae7397731d063d5bbf3d657854427343f4c083240f7aacaa2d0f628585604051611bd2929190614e61565b60405180910390a4505050565b60608083806020019051611bf691908101906136eb565b81915080905080935081925050506000600260008773ffffffffffffffffffffffffffffffffffffffff1673ffffffffffffffffffffffffffffffffffffffff1681526020019081526020016000205490506000611c5e6041846129a090919063ffffffff16565b60001c9050818110158015611c7557506064820181105b611cb4576040517f08c379a0000000000000000000000000000000000000000000000000000000008152600401611cab90614e06565b60405180910390fd5b6000611cf086838780519060200120604051602001611cd593929190614639565b60405160208183030381529060405280519060200120612aee565b90506060868387604051602001611d0993929190614672565b604051602081830303815290604052905060018301600260008b73ffffffffffffffffffffffffffffffffffffffff1673ffffffffffffffffffffffffffffffffffffffff168152602001908152602001600020819055508873ffffffffffffffffffffffffffffffffffffffff167fb861b7bdbe611a846ab271b8d2810391bc8b5a968f390c322438ecab66bccf5960018501604051611daa9190614e46565b60405180910390a2611dbe89838388610ef0565b611dfd576040517f08c379a0000000000000000000000000000000000000000000000000000000008152600401611df490614c06565b60405180910390fd5b85955050505050509392505050565b6000611e1b826060015161292d565b60f81c9050600280811115611e2c57fe5b60ff168160ff1610611e73576040517f08c379a0000000000000000000000000000000000000000000000000000000008152600401611e6a90614e26565b60405180910390fd5b60008160ff166002811115611e8457fe5b905060008060008086600001519050600073ffffffffffffffffffffffffffffffffffffffff16876040015173ffffffffffffffffffffffffffffffffffffffff1614611ed5578660400151611ed7565b335b925060006002811115611ee657fe5b856002811115611ef257fe5b1415611ff4578660600151806020019051611f109190810190612f3e565b81915080935081955050503073ffffffffffffffffffffffffffffffffffffffff168473ffffffffffffffffffffffffffffffffffffffff161415611f7d57611f5b88848484612408565b611f788884845a85604051806020016040528060008152506125f6565b611fef565b8373ffffffffffffffffffffffffffffffffffffffff1663f242432a898585856040518563ffffffff1660e01b8152600401611fbc949392919061482e565b600060405180830381600087803b158015611fd657600080fd5b505af1158015611fea573d6000803e3d6000fd5b505050505b6120dd565b866060015180602001905161200c9190810190612f15565b93508373ffffffffffffffffffffffffffffffffffffffff166323b872dd8985846040518463ffffffff1660e01b815260040161204b939291906147f7565b602060405180830381600087803b15801561206557600080fd5b505af1158015612079573d6000803e3d6000fd5b505050506040513d601f19601f8201168201806040525061209d9190810190613670565b6120dc576040517f08c379a00000000000000000000000000000000000000000000000000000000081526004016120d390614cc6565b60405180910390fd5b5b5050505050505050565b612149826000808773ffffffffffffffffffffffffffffffffffffffff1673ffffffffffffffffffffffffffffffffffffffff168152602001908152602001600020600086815260200190815260200160002054612a5490919063ffffffff16565b6000808673ffffffffffffffffffffffffffffffffffffffff1673ffffffffffffffffffffffffffffffffffffffff1681526020019081526020016000206000858152602001908152602001600020819055508373ffffffffffffffffffffffffffffffffffffffff16600073ffffffffffffffffffffffffffffffffffffffff163373ffffffffffffffffffffffffffffffffffffffff167fc3d58168c5ae7397731d063d5bbf3d657854427343f4c083240f7aacaa2d0f628686604051612213929190614e61565b60405180910390a461222a60008585855a866125f6565b50505050565b60008251905081518114612279576040517f08c379a000000000000000000000000000000000000000000000000000000000815260040161227090614c66565b60405180910390fd5b60008090505b818110156123825761230f83828151811061229657fe5b60200260200101516000808873ffffffffffffffffffffffffffffffffffffffff1673ffffffffffffffffffffffffffffffffffffffff16815260200190815260200160002060008785815181106122ea57fe5b60200260200101518152602001908152602001600020546129fe90919063ffffffff16565b6000808773ffffffffffffffffffffffffffffffffffffffff1673ffffffffffffffffffffffffffffffffffffffff168152602001908152602001600020600086848151811061235b57fe5b6020026020010151815260200190815260200160002081905550808060010191505061227f565b50600073ffffffffffffffffffffffffffffffffffffffff168473ffffffffffffffffffffffffffffffffffffffff163373ffffffffffffffffffffffffffffffffffffffff167f4a39dc06d4c0dbc64b70af90fd698a233a518aa5d07e595d983b8c0526c8f7fb86866040516123fa9291906148a8565b60405180910390a450505050565b61246a816000808773ffffffffffffffffffffffffffffffffffffffff1673ffffffffffffffffffffffffffffffffffffffff1681526020019081526020016000206000858152602001908152602001600020546129fe90919063ffffffff16565b6000808673ffffffffffffffffffffffffffffffffffffffff1673ffffffffffffffffffffffffffffffffffffffff16815260200190815260200160002060008481526020019081526020016000208190555061251f816000808673ffffffffffffffffffffffffffffffffffffffff1673ffffffffffffffffffffffffffffffffffffffff168152602001908152602001600020600085815260200190815260200160002054612a5490919063ffffffff16565b6000808573ffffffffffffffffffffffffffffffffffffffff1673ffffffffffffffffffffffffffffffffffffffff1681526020019081526020016000206000848152602001908152602001600020819055508273ffffffffffffffffffffffffffffffffffffffff168473ffffffffffffffffffffffffffffffffffffffff163373ffffffffffffffffffffffffffffffffffffffff167fc3d58168c5ae7397731d063d5bbf3d657854427343f4c083240f7aacaa2d0f6285856040516125e8929190614e61565b60405180910390a450505050565b6126158573ffffffffffffffffffffffffffffffffffffffff16612aa9565b1561273c5760008573ffffffffffffffffffffffffffffffffffffffff1663f23a6e6184338a8989886040518763ffffffff1660e01b815260040161265e95949392919061479d565b602060405180830381600088803b15801561267857600080fd5b5087f115801561268c573d6000803e3d6000fd5b50505050506040513d601f19601f820116820180604052506126b191908101906136c2565b905063f23a6e6160e01b7bffffffffffffffffffffffffffffffffffffffffffffffffffffffff1916817bffffffffffffffffffffffffffffffffffffffffffffffffffffffff19161461273a576040517f08c379a000000000000000000000000000000000000000000000000000000000815260040161273190614da6565b60405180910390fd5b505b505050505050565b8151835114612788576040517f08c379a000000000000000000000000000000000000000000000000000000000815260040161277f90614d46565b60405180910390fd5b60008351905060008090505b81811015612897576128248482815181106127ab57fe5b60200260200101516000808973ffffffffffffffffffffffffffffffffffffffff1673ffffffffffffffffffffffffffffffffffffffff16815260200190815260200160002060008885815181106127ff57fe5b6020026020010151815260200190815260200160002054612a5490919063ffffffff16565b6000808873ffffffffffffffffffffffffffffffffffffffff1673ffffffffffffffffffffffffffffffffffffffff168152602001908152602001600020600087848151811061287057fe5b60200260200101518152602001908152602001600020819055508080600101915050612794565b508473ffffffffffffffffffffffffffffffffffffffff16600073ffffffffffffffffffffffffffffffffffffffff163373ffffffffffffffffffffffffffffffffffffffff167f4a39dc06d4c0dbc64b70af90fd698a233a518aa5d07e595d983b8c0526c8f7fb878760405161290f9291906148a8565b60405180910390a461292660008686865a87611958565b5050505050565b600080825111612972576040517f08c379a000000000000000000000000000000000000000000000000000000000815260040161296990614b26565b60405180910390fd5b8160018351038151811061298257fe5b602001015160f81c60f81b9050600182510380835250809050919050565b600060208201835110156129e9576040517f08c379a00000000000000000000000000000000000000000000000000000000081526004016129e090614dc6565b60405180910390fd5b60208201915081830151905080905092915050565b600082821115612a43576040517f08c379a0000000000000000000000000000000000000000000000000000000008152600401612a3a90614b66565b60405180910390fd5b600082840390508091505092915050565b600080828401905083811015612a9f576040517f08c379a0000000000000000000000000000000000000000000000000000000008152600401612a9690614de6565b60405180910390fd5b8091505092915050565b600080823f90506000801b8114158015612ae657507fc5d2460186f7233c927e7db2dcc703c0e500b653ca82273b7bfad8045d85a47060001b8114155b915050919050565b60006040518060400160405280600281526020017f19010000000000000000000000000000000000000000000000000000000000008152507f035aff83d86937d35b32e04f0ddc6ff469290eef2f1b692d8a815c89404d474960001b30604051602001612b5c9291906148fa565b6040516020818303038152906040528051906020012083604051602001612b85939291906146a7565b604051602081830303815290604052805190602001209050919050565b60405180608001604052806000815260200160008152602001600073ffffffffffffffffffffffffffffffffffffffff168152602001606081525090565b600081359050612bef8161514b565b92915050565b600081519050612c048161514b565b92915050565b600081519050612c1981615162565b92915050565b600082601f830112612c3057600080fd5b8135612c43612c3e82614eb7565b614e8a565b91508181835260208401935060208101905083856020840282011115612c6857600080fd5b60005b83811015612c985781612c7e8882612be0565b845260208401935060208301925050600181019050612c6b565b5050505092915050565b600082601f830112612cb357600080fd5b8135612cc6612cc182614edf565b614e8a565b91508181835260208401935060208101905083856020840282011115612ceb57600080fd5b60005b83811015612d1b5781612d018882612ec2565b845260208401935060208301925050600181019050612cee565b5050505092915050565b600081359050612d3481615179565b92915050565b600081519050612d4981615179565b92915050565b600081359050612d5e81615190565b92915050565b600081359050612d73816151a7565b92915050565b600081519050612d88816151a7565b92915050565b600082601f830112612d9f57600080fd5b8151612db2612dad82614f07565b614e8a565b91508082526020830160208301858383011115612dce57600080fd5b612dd98382846150f3565b50505092915050565b600082601f830112612df357600080fd5b8135612e06612e0182614f33565b614e8a565b91508082526020830160208301858383011115612e2257600080fd5b612e2d8382846150e4565b50505092915050565b600060808284031215612e4857600080fd5b612e526080614e8a565b90506000612e6284828501612ed7565b6000830152506020612e7684828501612ed7565b6020830152506040612e8a84828501612bf5565b604083015250606082015167ffffffffffffffff811115612eaa57600080fd5b612eb684828501612d8e565b60608301525092915050565b600081359050612ed1816151be565b92915050565b600081519050612ee6816151be565b92915050565b600060208284031215612efe57600080fd5b6000612f0c84828501612be0565b91505092915050565b600060208284031215612f2757600080fd5b6000612f3584828501612c0a565b91505092915050565b60008060408385031215612f5157600080fd5b6000612f5f85828601612c0a565b9250506020612f7085828601612ed7565b9150509250929050565b60008060408385031215612f8d57600080fd5b6000612f9b85828601612be0565b9250506020612fac85828601612be0565b9150509250929050565b60008060008060008060c08789031215612fcf57600080fd5b6000612fdd89828a01612be0565b9650506020612fee89828a01612be0565b955050604087013567ffffffffffffffff81111561300b57600080fd5b61301789828a01612ca2565b945050606087013567ffffffffffffffff81111561303457600080fd5b61304089828a01612ca2565b935050608061305189828a01612d25565b92505060a087013567ffffffffffffffff81111561306e57600080fd5b61307a89828a01612de2565b9150509295509295509295565b600080600080600060a0868803121561309f57600080fd5b60006130ad88828901612be0565b95505060206130be88828901612be0565b945050604086013567ffffffffffffffff8111156130db57600080fd5b6130e788828901612ca2565b935050606086013567ffffffffffffffff81111561310457600080fd5b61311088828901612ca2565b925050608086013567ffffffffffffffff81111561312d57600080fd5b61313988828901612de2565b9150509295509295909350565b600080600080600060a0868803121561315e57600080fd5b600061316c88828901612be0565b955050602061317d88828901612be0565b945050604061318e88828901612d25565b935050606061319f88828901612d25565b925050608086013567ffffffffffffffff8111156131bc57600080fd5b6131c888828901612de2565b9150509295509295909350565b60008060008060008060c087890312156131ee57600080fd5b60006131fc89828a01612be0565b965050602061320d89828a01612be0565b955050604061321e89828a01612ec2565b945050606061322f89828a01612ec2565b935050608061324089828a01612d25565b92505060a087013567ffffffffffffffff81111561325d57600080fd5b61326989828a01612de2565b9150509295509295509295565b600080600080600060a0868803121561328e57600080fd5b600061329c88828901612be0565b95505060206132ad88828901612be0565b94505060406132be88828901612ec2565b93505060606132cf88828901612ec2565b925050608086013567ffffffffffffffff8111156132ec57600080fd5b6132f888828901612de2565b9150509295509295909350565b60008060006060848603121561331a57600080fd5b600061332886828701612be0565b935050602084013567ffffffffffffffff81111561334557600080fd5b61335186828701612ca2565b925050604084013567ffffffffffffffff81111561336e57600080fd5b61337a86828701612ca2565b9150509250925092565b6000806000806080858703121561339a57600080fd5b60006133a887828801612be0565b945050602085013567ffffffffffffffff8111156133c557600080fd5b6133d187828801612ca2565b935050604085013567ffffffffffffffff8111156133ee57600080fd5b6133fa87828801612ca2565b925050606085013567ffffffffffffffff81111561341757600080fd5b61342387828801612de2565b91505092959194509250565b6000806040838503121561344257600080fd5b600061345085828601612be0565b925050602061346185828601612d25565b9150509250929050565b6000806000806080858703121561348157600080fd5b600061348f87828801612be0565b94505060206134a087828801612d4f565b935050604085013567ffffffffffffffff8111156134bd57600080fd5b6134c987828801612de2565b925050606085013567ffffffffffffffff8111156134e657600080fd5b6134f287828801612de2565b91505092959194509250565b6000806040838503121561351157600080fd5b600061351f85828601612be0565b925050602061353085828601612ec2565b9150509250929050565b60008060006060848603121561354f57600080fd5b600061355d86828701612be0565b935050602061356e86828701612ec2565b925050604061357f86828701612ec2565b9150509250925092565b6000806000806080858703121561359f57600080fd5b60006135ad87828801612be0565b94505060206135be87828801612ec2565b93505060406135cf87828801612ec2565b925050606085013567ffffffffffffffff8111156135ec57600080fd5b6135f887828801612de2565b91505092959194509250565b6000806040838503121561361757600080fd5b600083013567ffffffffffffffff81111561363157600080fd5b61363d85828601612c1f565b925050602083013567ffffffffffffffff81111561365a57600080fd5b61366685828601612ca2565b9150509250929050565b60006020828403121561368257600080fd5b600061369084828501612d3a565b91505092915050565b6000602082840312156136ab57600080fd5b60006136b984828501612d64565b91505092915050565b6000602082840312156136d457600080fd5b60006136e284828501612d79565b91505092915050565b600080604083850312156136fe57600080fd5b600083015167ffffffffffffffff81111561371857600080fd5b61372485828601612d8e565b925050602083015167ffffffffffffffff81111561374157600080fd5b61374d85828601612d8e565b9150509250929050565b60006020828403121561376957600080fd5b600082015167ffffffffffffffff81111561378357600080fd5b61378f84828501612e36565b91505092915050565b600080604083850312156137ab57600080fd5b600083015167ffffffffffffffff8111156137c557600080fd5b6137d185828601612e36565b925050602083015167ffffffffffffffff8111156137ee57600080fd5b6137fa85828601612d8e565b9150509250929050565b60006020828403121561381657600080fd5b600061382484828501612ec2565b91505092915050565b600061383983836145cf565b60208301905092915050565b600061385183836145ed565b60208301905092915050565b613866816150ae565b82525050565b61387581615011565b82525050565b600061388682614f84565b6138908185614fbd565b935061389b83614f5f565b8060005b838110156138cc5781516138b3888261382d565b97506138be83614fb0565b92505060018101905061389f565b5085935050505092915050565b60006138e482614f84565b6138ee8185614fce565b93506138f983614f5f565b8060005b8381101561392a5781516139118882613845565b975061391c83614fb0565b9250506001810190506138fd565b5085935050505092915050565b61394081615035565b82525050565b61394f81615041565b82525050565b61396661396182615041565b615126565b82525050565b600061397782614f8f565b6139818185614fd9565b93506139918185602086016150f3565b61399a8161513a565b840191505092915050565b60006139b082614f8f565b6139ba8185614fea565b93506139ca8185602086016150f3565b80840191505092915050565b60006139e182614fa5565b6139eb8185614ff5565b93506139fb8185602086016150f3565b613a048161513a565b840191505092915050565b6000613a1a82614fa5565b613a248185615006565b9350613a348185602086016150f3565b80840191505092915050565b6000613a4b82614f9a565b613a558185615006565b9350613a658185602086016150f3565b80840191505092915050565b600081546001811660008114613a8e5760018114613ab357613af7565b607f6002830416613a9f8187615006565b955060ff1983168652808601935050613af7565b60028204613ac18187615006565b9550613acc85614f6f565b60005b82811015613aee57815481890152600182019150602081019050613acf565b82880195505050505b505092915050565b6000613b0c602b83614ff5565b91507f4552433131353523736166655472616e7366657246726f6d3a20494e56414c4960008301527f445f524543495049454e540000000000000000000000000000000000000000006020830152604082019050919050565b6000613b72601c83615006565b91507f19457468657265756d205369676e6564204d6573736167653a0a3332000000006000830152601c82019050919050565b6000613bb2603783614ff5565b91507f4c6962427974657323706f704c617374427974653a20475245415445525f544860008301527f414e5f5a45524f5f4c454e4754485f52455155495245440000000000000000006020830152604082019050919050565b6000613c18602a83614ff5565b91507f4552433131353523736166655472616e7366657246726f6d3a20494e56414c4960008301527f445f4f50455241544f52000000000000000000000000000000000000000000006020830152604082019050919050565b6000613c7e601783614ff5565b91507f536166654d617468237375623a20554e444552464c4f570000000000000000006000830152602082019050919050565b6000613cbe603583614ff5565b91507f45524331313535235f7361666542617463685472616e7366657246726f6d3a2060008301527f494e56414c49445f4152524159535f4c454e47544800000000000000000000006020830152604082019050919050565b6000613d24603a83614ff5565b91507f5369676e617475726556616c696461746f7223697356616c69645369676e617460008301527f7572653a20554e535550504f525445445f5349474e41545552450000000000006020830152604082019050919050565b6000613d8a603383614ff5565b91507f455243313135354d657461236d657461536166655472616e7366657246726f6d60008301527f3a20494e56414c49445f524543495049454e54000000000000000000000000006020830152604082019050919050565b6000613df0603683614ff5565b91507f5369676e617475726556616c696461746f7223697356616c69645369676e617460008301527f7572653a20494c4c4547414c5f5349474e4154555245000000000000000000006020830152604082019050919050565b6000613e56603383614ff5565b91507f455243313135354d657461235f7369676e617475726556616c69646174696f6e60008301527f3a20494e56414c49445f5349474e4154555245000000000000000000000000006020830152604082019050919050565b6000613ebc603783614ff5565b91507f5369676e617475726556616c696461746f7223697356616c69645369676e617460008301527f7572653a204c454e4754485f39375f52455155495245440000000000000000006020830152604082019050919050565b6000613f22603083614ff5565b91507f45524331313535237361666542617463685472616e7366657246726f6d3a204960008301527f4e56414c49445f524543495049454e54000000000000000000000000000000006020830152604082019050919050565b6000613f88603083614ff5565b91507f455243313135354d696e744275726e2362617463684275726e3a20494e56414c60008301527f49445f4152524159535f4c454e475448000000000000000000000000000000006020830152604082019050919050565b6000613fee600583615006565b91507f2e6a736f6e0000000000000000000000000000000000000000000000000000006000830152600582019050919050565b600061402e602783614ff5565b91507f455243313135354d6574614d696e744275726e4d6f636b3a20494e56414c494460008301527f5f4d4554484f44000000000000000000000000000000000000000000000000006020830152604082019050919050565b6000614094602c83614ff5565b91507f455243313135352362616c616e63654f6642617463683a20494e56414c49445f60008301527f41525241595f4c454e47544800000000000000000000000000000000000000006020830152604082019050919050565b60006140fa603283614ff5565b91507f455243313135354d657461235f7472616e736665724761734665653a2045524360008301527f32305f5452414e534645525f4641494c454400000000000000000000000000006020830152604082019050919050565b6000614160603383614ff5565b91507f5369676e617475726556616c696461746f7223697356616c69645369676e617460008301527f7572653a20494e56414c49445f5349474e4552000000000000000000000000006020830152604082019050919050565b60006141c6602f83614ff5565b91507f45524331313535237361666542617463685472616e7366657246726f6d3a204960008301527f4e56414c49445f4f50455241544f5200000000000000000000000000000000006020830152604082019050919050565b600061422c604383614ff5565b91507f5369676e617475726556616c696461746f7223697356616c69645369676e617460008301527f7572653a204c454e4754485f475245415445525f5448414e5f305f524551554960208301527f52454400000000000000000000000000000000000000000000000000000000006040830152606082019050919050565b60006142b8603083614ff5565b91507f455243313135354d696e744275726e2362617463684d696e743a20494e56414c60008301527f49445f4152524159535f4c454e475448000000000000000000000000000000006020830152604082019050919050565b600061431e603883614ff5565b91507f455243313135354d657461236d6574615361666542617463685472616e73666560008301527f7246726f6d3a20494e56414c49445f524543495049454e5400000000000000006020830152604082019050919050565b6000614384600083614fd9565b9150600082019050919050565b600061439e603f83614ff5565b91507f45524331313535235f63616c6c6f6e455243313135354261746368526563656960008301527f7665643a20494e56414c49445f4f4e5f524543454956455f4d455353414745006020830152604082019050919050565b6000614404603a83614ff5565b91507f45524331313535235f63616c6c6f6e4552433131353552656365697665643a2060008301527f494e56414c49445f4f4e5f524543454956455f4d4553534147450000000000006020830152604082019050919050565b600061446a603c83614ff5565b91507f4c696242797465732372656164427974657333323a20475245415445525f4f5260008301527f5f455155414c5f544f5f33325f4c454e4754485f5245515549524544000000006020830152604082019050919050565b60006144d0601683614ff5565b91507f536166654d617468236164643a204f564552464c4f57000000000000000000006000830152602082019050919050565b6000614510602f83614ff5565b91507f455243313135354d657461235f7369676e617475726556616c69646174696f6e60008301527f3a20494e56414c49445f4e4f4e434500000000000000000000000000000000006020830152604082019050919050565b6000614576602e83614ff5565b91507f455243313135354d657461235f7472616e736665724761734665653a20554e5360008301527f5550504f525445445f544f4b454e0000000000000000000000000000000000006020830152604082019050919050565b6145d881615097565b82525050565b6145e781615097565b82525050565b6145f681615097565b82525050565b61460d61460882615097565b615130565b82525050565b61461c816150a1565b82525050565b600061462e82846138d9565b915081905092915050565b600061464582866139a5565b915061465182856145fc565b6020820191506146618284613955565b602082019150819050949350505050565b600061467e82866139a5565b915061468a82856145fc565b60208201915061469a82846139a5565b9150819050949350505050565b60006146b38286613a40565b91506146bf8285613955565b6020820191506146cf8284613955565b602082019150819050949350505050565b60006146ec8285613a71565b91506146f88284613a0f565b915061470382613fe1565b91508190509392505050565b600061471a82613b65565b91506147268284613955565b60208201915081905092915050565b600060a08201905061474a600083018861385d565b614757602083018761386c565b8181036040830152614769818661387b565b9050818103606083015261477d818561387b565b90508181036080830152614791818461396c565b90509695505050505050565b600060a0820190506147b2600083018861385d565b6147bf602083018761386c565b6147cc60408301866145de565b6147d960608301856145de565b81810360808301526147eb818461396c565b90509695505050505050565b600060608201905061480c600083018661386c565b614819602083018561386c565b61482660408301846145de565b949350505050565b600060a082019050614843600083018761386c565b614850602083018661386c565b61485d60408301856145de565b61486a60608301846145de565b818103608083015261487b81614377565b905095945050505050565b600060208201905081810360008301526148a0818461387b565b905092915050565b600060408201905081810360008301526148c2818561387b565b905081810360208301526148d6818461387b565b90509392505050565b60006020820190506148f46000830184613937565b92915050565b600060408201905061490f6000830185613946565b61491c602083018461386c565b9392505050565b600060c0820190506149386000830189613946565b614945602083018861386c565b614952604083018761386c565b61495f6060830186613946565b61496c6080830185613946565b61497960a08301846145de565b979650505050505050565b600060a0820190506149996000830188613946565b6149a6602083018761386c565b6149b3604083018661386c565b6149c060608301856145de565b6149cd60808301846145de565b9695505050505050565b600060c0820190506149ec6000830189613946565b6149f9602083018861386c565b614a06604083018761386c565b614a1360608301866145de565b614a2060808301856145de565b614a2d60a08301846145de565b979650505050505050565b6000604082019050614a4d6000830185613946565b8181036020830152614a5f818461396c565b90509392505050565b6000608082019050614a7d6000830187613946565b614a8a6020830186614613565b614a976040830185613946565b614aa46060830184613946565b95945050505050565b60006040820190508181036000830152614ac7818561396c565b90508181036020830152614adb818461396c565b90509392505050565b60006020820190508181036000830152614afe81846139d6565b905092915050565b60006020820190508181036000830152614b1f81613aff565b9050919050565b60006020820190508181036000830152614b3f81613ba5565b9050919050565b60006020820190508181036000830152614b5f81613c0b565b9050919050565b60006020820190508181036000830152614b7f81613c71565b9050919050565b60006020820190508181036000830152614b9f81613cb1565b9050919050565b60006020820190508181036000830152614bbf81613d17565b9050919050565b60006020820190508181036000830152614bdf81613d7d565b9050919050565b60006020820190508181036000830152614bff81613de3565b9050919050565b60006020820190508181036000830152614c1f81613e49565b9050919050565b60006020820190508181036000830152614c3f81613eaf565b9050919050565b60006020820190508181036000830152614c5f81613f15565b9050919050565b60006020820190508181036000830152614c7f81613f7b565b9050919050565b60006020820190508181036000830152614c9f81614021565b9050919050565b60006020820190508181036000830152614cbf81614087565b9050919050565b60006020820190508181036000830152614cdf816140ed565b9050919050565b60006020820190508181036000830152614cff81614153565b9050919050565b60006020820190508181036000830152614d1f816141b9565b9050919050565b60006020820190508181036000830152614d3f8161421f565b9050919050565b60006020820190508181036000830152614d5f816142ab565b9050919050565b60006020820190508181036000830152614d7f81614311565b9050919050565b60006020820190508181036000830152614d9f81614391565b9050919050565b60006020820190508181036000830152614dbf816143f7565b9050919050565b60006020820190508181036000830152614ddf8161445d565b9050919050565b60006020820190508181036000830152614dff816144c3565b9050919050565b60006020820190508181036000830152614e1f81614503565b9050919050565b60006020820190508181036000830152614e3f81614569565b9050919050565b6000602082019050614e5b60008301846145de565b92915050565b6000604082019050614e7660008301856145de565b614e8360208301846145de565b9392505050565b6000604051905081810181811067ffffffffffffffff82111715614ead57600080fd5b8060405250919050565b600067ffffffffffffffff821115614ece57600080fd5b602082029050602081019050919050565b600067ffffffffffffffff821115614ef657600080fd5b602082029050602081019050919050565b600067ffffffffffffffff821115614f1e57600080fd5b601f19601f8301169050602081019050919050565b600067ffffffffffffffff821115614f4a57600080fd5b601f19601f8301169050602081019050919050565b6000819050602082019050919050565b60008190508160005260206000209050919050565b600081519050919050565b600081519050919050565b600081519050919050565b600081519050919050565b6000602082019050919050565b600082825260208201905092915050565b600081905092915050565b600082825260208201905092915050565b600081905092915050565b600082825260208201905092915050565b600081905092915050565b600061501c82615077565b9050919050565b600061502e82615077565b9050919050565b60008115159050919050565b6000819050919050565b60007fffffffff0000000000000000000000000000000000000000000000000000000082169050919050565b600073ffffffffffffffffffffffffffffffffffffffff82169050919050565b6000819050919050565b600060ff82169050919050565b60006150b9826150c0565b9050919050565b60006150cb826150d2565b9050919050565b60006150dd82615077565b9050919050565b82818337600083830152505050565b60005b838110156151115780820151818401526020810190506150f6565b83811115615120576000848401525b50505050565b6000819050919050565b6000819050919050565b6000601f19601f8301169050919050565b61515481615011565b811461515f57600080fd5b50565b61516b81615023565b811461517657600080fd5b50565b61518281615035565b811461518d57600080fd5b50565b61519981615041565b81146151a457600080fd5b50565b6151b08161504b565b81146151bb57600080fd5b50565b6151c781615097565b81146151d257600080fd5b5056fea365627a7a723158204e429bc3362c1d9cde02fe1f3e194de421b300f795736a19a531758d4ed71c156c6578706572696d656e74616cf564736f6c63430005100040",
  "source": "pragma solidity ^0.5.16;\r\npragma experimental ABIEncoderV2;\r\n\r\nimport \"../tokens/ERC1155/ERC1155Meta.sol\";\r\nimport \"../tokens/ERC1155/ERC1155MintBurn.sol\";\r\nimport \"../tokens/ERC1155/ERC1155Metadata.sol\";\r\n\r\n\r\ncontract ERC1155MetaMintBurnMock is ERC1155Meta, ERC1155MintBurn, ERC1155Metadata {\r\n\r\n  /***********************************|\r\n  |         Minting Functions         |\r\n  |__________________________________*/\r\n\r\n  /**\r\n   * @dev Mint _value of tokens of a given id\r\n   * @param _to The address to mint tokens to.\r\n   * @param _id token id to mint\r\n   * @param _value The amount to be minted\r\n   * @param _data Data to be passed if receiver is contract\r\n   */\r\n  function mintMock(address _to, uint256 _id, uint256 _value, bytes memory _data)\r\n    public\r\n  {\r\n    super._mint(_to, _id, _value, _data);\r\n  }\r\n\r\n  /**\r\n   * @dev Mint tokens for each ids in _ids\r\n   * @param _to The address to mint tokens to.\r\n   * @param _ids Array of ids to mint\r\n   * @param _values Array of amount of tokens to mint per id\r\n   * @param _data Data to be passed if receiver is contract\r\n   */\r\n  function batchMintMock(address _to, uint256[] memory _ids, uint256[] memory _values, bytes memory _data)\r\n    public\r\n  {\r\n    super._batchMint(_to, _ids, _values, _data);\r\n  }\r\n\r\n\r\n  /***********************************|\r\n  |         Burning Functions         |\r\n  |__________________________________*/\r\n\r\n  /**\r\n   * @dev burn _value of tokens of a given token id\r\n   * @param _from The address to burn tokens from.\r\n   * @param _id token id to burn\r\n   * @param _value The amount to be burned\r\n   */\r\n  function burnMock(address _from, uint256 _id, uint256 _value)\r\n    public\r\n  {\r\n    super._burn(_from, _id, _value);\r\n  }\r\n\r\n  /**\r\n   * @dev burn _value of tokens of a given token id\r\n   * @param _from The address to burn tokens from.\r\n   * @param _ids Array of token ids to burn\r\n   * @param _values Array of the amount to be burned\r\n   */\r\n  function batchBurnMock(address _from, uint256[] memory _ids, uint256[] memory _values)\r\n    public\r\n  {\r\n    super._batchBurn(_from, _ids, _values);\r\n  }\r\n\r\n  /***********************************|\r\n  |       Unsupported Functions       |\r\n  |__________________________________*/\r\n\r\n  function () external {\r\n    revert(\"ERC1155MetaMintBurnMock: INVALID_METHOD\");\r\n  }\r\n}",
  "sourcePath": "C:\\Users\\aggar\\ERC1155\\truffle-env\\contracts\\mocks\\ERC1155MetaMintBurnMock.sol",
  "compiler": {
    "name": "solc",
    "version": "0.5.16+commit.9c3226ce.Emscripten.clang"
  },
  "schemaVersion": "3.1.0",
  "updatedAt": "2020-05-19T21:47:00.130Z",
  "devdoc": {
    "methods": {
      "balanceOf(address,uint256)": {
        "params": {
          "_id": "ID of the Token",
          "_owner": "The address of the token holder"
        },
        "return": "The _owner's balance of the Token type requested"
      },
      "balanceOfBatch(address[],uint256[])": {
        "params": {
          "_ids": "ID of the Tokens",
          "_owners": "The addresses of the token holders"
        },
        "return": "The _owner's balance of the Token types requested (i.e. balance for each (owner, id) pair)"
      },
      "batchBurnMock(address,uint256[],uint256[])": {
        "details": "burn _value of tokens of a given token id",
        "params": {
          "_from": "The address to burn tokens from.",
          "_ids": "Array of token ids to burn",
          "_values": "Array of the amount to be burned"
        }
      },
      "batchMintMock(address,uint256[],uint256[],bytes)": {
        "details": "Mint tokens for each ids in _ids",
        "params": {
          "_data": "Data to be passed if receiver is contract",
          "_ids": "Array of ids to mint",
          "_to": "The address to mint tokens to.",
          "_values": "Array of amount of tokens to mint per id"
        }
      },
      "burnMock(address,uint256,uint256)": {
        "details": "burn _value of tokens of a given token id",
        "params": {
          "_from": "The address to burn tokens from.",
          "_id": "token id to burn",
          "_value": "The amount to be burned"
        }
      },
      "getNonce(address)": {
        "params": {
          "_signer": "Address to query signature nonce for"
        }
      },
      "isApprovedForAll(address,address)": {
        "params": {
          "_operator": "Address of authorized operator",
          "_owner": "The owner of the Tokens"
        },
        "return": "True if the operator is approved, false if not"
      },
      "isValidSignature(address,bytes32,bytes,bytes)": {
        "details": "Verifies that a hash has been signed by the given signer.",
        "params": {
          "_data": "Full EIP-712 data structure that was hashed and signed",
          "_hash": "Hash of the EIP-712 encoded data",
          "_sig": "Proof that the hash has been signed by signer.     For non wallet signatures, _sig is expected to be an array tightly encoded as     (bytes32 r, bytes32 s, uint8 v, uint256 nonce, SignatureType sigType)",
          "_signerAddress": "Address that should have signed the given hash."
        },
        "return": "True if the address recovered from the provided signature matches the input signer address."
      },
      "metaSafeBatchTransferFrom(address,address,uint256[],uint256[],bool,bytes)": {
        "params": {
          "_amounts": "Transfer amounts per token type",
          "_data": "Encodes a meta transfer indicator, signature, gas payment receipt and extra transfer data  _data should be encoded as (  (bytes32 r, bytes32 s, uint8 v, uint256 nonce, SignatureType sigType),  (GasReceipt g, ?bytes transferData) )  i.e. high level encoding should be (bytes, bytes), where the latter bytes array is a nested bytes array",
          "_from": "Source addresses",
          "_ids": "IDs of each token type",
          "_isGasFee": "Whether gas is reimbursed to executor or not",
          "_to": "Target addresses"
        }
      },
      "metaSafeTransferFrom(address,address,uint256,uint256,bool,bytes)": {
        "params": {
          "_amount": "Transfered amount",
          "_data": "Encodes a meta transfer indicator, signature, gas payment receipt and extra transfer data  _data should be encoded as (  (bytes32 r, bytes32 s, uint8 v, uint256 nonce, SignatureType sigType),  (GasReceipt g, ?bytes transferData) )  i.e. high level encoding should be (bytes, bytes), where the latter bytes array is a nested bytes array",
          "_from": "Source address",
          "_id": "ID of the token type",
          "_isGasFee": "Whether gas is reimbursed to executor or not",
          "_to": "Target address"
        }
      },
      "metaSetApprovalForAll(address,address,bool,bool,bytes)": {
        "params": {
          "_approved": "True if the operator is approved, false to revoke approval",
          "_data": "Encodes signature and gas payment receipt  _data should be encoded as (    (bytes32 r, bytes32 s, uint8 v, uint256 nonce, SignatureType sigType),    (GasReceipt g)  )  i.e. high level encoding should be (bytes, bytes), where the latter bytes array is a nested bytes array",
          "_isGasFee": "Whether gas will be reimbursed or not, with vlid signature",
          "_operator": "Address to add to the set of authorized operators",
          "_owner": "Address that wants to set operator status  _spender"
        }
      },
      "mintMock(address,uint256,uint256,bytes)": {
        "details": "Mint _value of tokens of a given id",
        "params": {
          "_data": "Data to be passed if receiver is contract",
          "_id": "token id to mint",
          "_to": "The address to mint tokens to.",
          "_value": "The amount to be minted"
        }
      },
      "safeBatchTransferFrom(address,address,uint256[],uint256[],bytes)": {
        "params": {
          "_amounts": "Transfer amounts per token type",
          "_data": "Additional data with no specified format, sent in call to `_to`",
          "_from": "Source addresses",
          "_ids": "IDs of each token type",
          "_to": "Target addresses"
        }
      },
      "safeTransferFrom(address,address,uint256,uint256,bytes)": {
        "params": {
          "_amount": "Transfered amount",
          "_data": "Additional data with no specified format, sent in call to `_to`",
          "_from": "Source address",
          "_id": "ID of the token type",
          "_to": "Target address"
        }
      },
      "setApprovalForAll(address,bool)": {
        "params": {
          "_approved": "True if the operator is approved, false to revoke approval",
          "_operator": "Address to add to the set of authorized operators"
        }
      },
      "supportsInterface(bytes4)": {
        "params": {
          "_interfaceID": "The interface identifier, as specified in ERC-165"
        },
        "return": "`true` if the contract implements `_interfaceID` and"
      },
      "uri(uint256)": {
        "details": "URIs are defined in RFC 3986.     URIs are assumed to be deterministically generated based on token ID     Token IDs are assumed to be represented in their hex format in URIs",
        "return": "URI string"
      }
    }
  },
  "userdoc": {
    "methods": {
      "balanceOf(address,uint256)": {
        "notice": "Get the balance of an account's Tokens"
      },
      "balanceOfBatch(address[],uint256[])": {
        "notice": "Get the balance of multiple account/token pairs"
      },
      "getNonce(address)": {
        "notice": "Returns the current nonce associated with a given address"
      },
      "isApprovedForAll(address,address)": {
        "notice": "Queries the approval status of an operator for a given owner"
      },
      "metaSafeBatchTransferFrom(address,address,uint256[],uint256[],bool,bytes)": {
        "notice": "Allows anyone with a valid signature to transfer multiple types of tokens on the bahalf of _from"
      },
      "metaSafeTransferFrom(address,address,uint256,uint256,bool,bytes)": {
        "notice": "Allows anyone with a valid signature to transfer _amount amount of a token _id on the bahalf of _from"
      },
      "metaSetApprovalForAll(address,address,bool,bool,bytes)": {
        "notice": "Approve the passed address to spend on behalf of _from if valid signature is provided"
      },
      "safeBatchTransferFrom(address,address,uint256[],uint256[],bytes)": {
        "notice": "Send multiple types of Tokens from the _from address to the _to address (with safety call)"
      },
      "safeTransferFrom(address,address,uint256,uint256,bytes)": {
        "notice": "Transfers amount amount of an _id from the _from address to the _to address specified"
      },
      "setApprovalForAll(address,bool)": {
        "notice": "Enable or disable approval for a third party (\"operator\") to manage all of caller's tokens"
      },
      "supportsInterface(bytes4)": {
        "notice": "Query if a contract implements an interface"
      },
      "uri(uint256)": {
        "notice": "A distinct Uniform Resource Identifier (URI) for a given token."
      }
    }
  }
}