{
  "contractName": "ERC1271WalletValidationMock",
  "abi": [
    {
      "inputs": [
        {
          "internalType": "bytes32",
          "name": "domain_hash_1155",
          "type": "bytes32"
        }
      ],
      "payable": false,
      "stateMutability": "nonpayable",
      "type": "constructor"
    },
    {
      "constant": true,
      "inputs": [],
      "name": "ERC1271_INVALID",
      "outputs": [
        {
          "internalType": "bytes4",
          "name": "",
          "type": "bytes4"
        }
      ],
      "payable": false,
      "stateMutability": "view",
      "type": "function"
    },
    {
      "constant": true,
      "inputs": [],
      "name": "ERC1271_MAGICVALUE_BYTES32",
      "outputs": [
        {
          "internalType": "bytes4",
          "name": "",
          "type": "bytes4"
        }
      ],
      "payable": false,
      "stateMutability": "view",
      "type": "function"
    },
    {
      "constant": true,
      "inputs": [],
      "name": "ERC1271_MAGIC_VAL",
      "outputs": [
        {
          "internalType": "bytes4",
          "name": "",
          "type": "bytes4"
        }
      ],
      "payable": false,
      "stateMutability": "view",
      "type": "function"
    },
    {
      "constant": true,
      "inputs": [],
      "name": "owner",
      "outputs": [
        {
          "internalType": "address",
          "name": "",
          "type": "address"
        }
      ],
      "payable": false,
      "stateMutability": "view",
      "type": "function"
    },
    {
      "constant": true,
      "inputs": [
        {
          "internalType": "bytes32",
          "name": "_hash",
          "type": "bytes32"
        },
        {
          "internalType": "bytes",
          "name": "_signature",
          "type": "bytes"
        }
      ],
      "name": "isValidSignature",
      "outputs": [
        {
          "internalType": "bytes4",
          "name": "magicValue",
          "type": "bytes4"
        }
      ],
      "payable": false,
      "stateMutability": "view",
      "type": "function"
    },
    {
      "constant": true,
      "inputs": [
        {
          "internalType": "bytes",
          "name": "_data",
          "type": "bytes"
        },
        {
          "internalType": "bytes",
          "name": "_signature",
          "type": "bytes"
        }
      ],
      "name": "isValidSignature",
      "outputs": [
        {
          "internalType": "bytes4",
          "name": "magicValue",
          "type": "bytes4"
        }
      ],
      "payable": false,
      "stateMutability": "view",
      "type": "function"
    },
    {
      "constant": false,
      "inputs": [
        {
          "internalType": "address",
          "name": "_operator",
          "type": "address"
        },
        {
          "internalType": "address",
          "name": "_from",
          "type": "address"
        },
        {
          "internalType": "uint256",
          "name": "_id",
          "type": "uint256"
        },
        {
          "internalType": "uint256",
          "name": "_value",
          "type": "uint256"
        },
        {
          "internalType": "bytes",
          "name": "_data",
          "type": "bytes"
        }
      ],
      "name": "onERC1155Received",
      "outputs": [
        {
          "internalType": "bytes4",
          "name": "",
          "type": "bytes4"
        }
      ],
      "payable": false,
      "stateMutability": "nonpayable",
      "type": "function"
    },
    {
      "constant": false,
      "inputs": [
        {
          "internalType": "address",
          "name": "_operator",
          "type": "address"
        },
        {
          "internalType": "address",
          "name": "_from",
          "type": "address"
        },
        {
          "internalType": "uint256[]",
          "name": "_ids",
          "type": "uint256[]"
        },
        {
          "internalType": "uint256[]",
          "name": "_values",
          "type": "uint256[]"
        },
        {
          "internalType": "bytes",
          "name": "_data",
          "type": "bytes"
        }
      ],
      "name": "onERC1155BatchReceived",
      "outputs": [
        {
          "internalType": "bytes4",
          "name": "",
          "type": "bytes4"
        }
      ],
      "payable": false,
      "stateMutability": "nonpayable",
      "type": "function"
    }
  ],
  "bytecode": "0x608060405234801561001057600080fd5b506040516112d93803806112d98339818101604052602081101561003357600080fd5b810190808051906020019092919050505080806000819055505033600160006101000a81548173ffffffffffffffffffffffffffffffffffffffff021916908373ffffffffffffffffffffffffffffffffffffffff1602179055505061123b8061009e6000396000f3fe608060405234801561001057600080fd5b50600436106100885760003560e01c80638da5cb5b1161005b5780638da5cb5b1461033a578063a886100f14610384578063bc197c81146103e0578063f23a6e611461065557610088565b80630c0b5b8b1461008d5780631626ba7e146100e957806320c13b0b146101be5780632ec40aa4146102de575b600080fd5b6100956107b6565b60405180827bffffffffffffffffffffffffffffffffffffffffffffffffffffffff19167bffffffffffffffffffffffffffffffffffffffffffffffffffffffff1916815260200191505060405180910390f35b61016a600480360360408110156100ff57600080fd5b81019080803590602001909291908035906020019064010000000081111561012657600080fd5b82018360208201111561013857600080fd5b8035906020019184600183028401116401000000008311171561015a57600080fd5b90919293919293905050506107c1565b60405180827bffffffffffffffffffffffffffffffffffffffffffffffffffffffff19167bffffffffffffffffffffffffffffffffffffffffffffffffffffffff1916815260200191505060405180910390f35b61028a600480360360408110156101d457600080fd5b81019080803590602001906401000000008111156101f157600080fd5b82018360208201111561020357600080fd5b8035906020019184600183028401116401000000008311171561022557600080fd5b90919293919293908035906020019064010000000081111561024657600080fd5b82018360208201111561025857600080fd5b8035906020019184600183028401116401000000008311171561027a57600080fd5b90919293919293905050506109c9565b60405180827bffffffffffffffffffffffffffffffffffffffffffffffffffffffff19167bffffffffffffffffffffffffffffffffffffffffffffffffffffffff1916815260200191505060405180910390f35b6102e6610e1f565b60405180827bffffffffffffffffffffffffffffffffffffffffffffffffffffffff19167bffffffffffffffffffffffffffffffffffffffffffffffffffffffff1916815260200191505060405180910390f35b610342610e2a565b604051808273ffffffffffffffffffffffffffffffffffffffff1673ffffffffffffffffffffffffffffffffffffffff16815260200191505060405180910390f35b61038c610e50565b60405180827bffffffffffffffffffffffffffffffffffffffffffffffffffffffff19167bffffffffffffffffffffffffffffffffffffffffffffffffffffffff1916815260200191505060405180910390f35b610601600480360360a08110156103f657600080fd5b81019080803573ffffffffffffffffffffffffffffffffffffffff169060200190929190803573ffffffffffffffffffffffffffffffffffffffff1690602001909291908035906020019064010000000081111561045357600080fd5b82018360208201111561046557600080fd5b8035906020019184602083028401116401000000008311171561048757600080fd5b919080806020026020016040519081016040528093929190818152602001838360200280828437600081840152601f19601f820116905080830192505050505050509192919290803590602001906401000000008111156104e757600080fd5b8201836020820111156104f957600080fd5b8035906020019184602083028401116401000000008311171561051b57600080fd5b919080806020026020016040519081016040528093929190818152602001838360200280828437600081840152601f19601f8201169050808301925050505050505091929192908035906020019064010000000081111561057b57600080fd5b82018360208201111561058d57600080fd5b803590602001918460018302840111640100000000831117156105af57600080fd5b91908080601f016020809104026020016040519081016040528093929190818152602001838380828437600081840152601f19601f820116905080830192505050505050509192919290505050610e5b565b60405180827bffffffffffffffffffffffffffffffffffffffffffffffffffffffff19167bffffffffffffffffffffffffffffffffffffffffffffffffffffffff1916815260200191505060405180910390f35b610762600480360360a081101561066b57600080fd5b81019080803573ffffffffffffffffffffffffffffffffffffffff169060200190929190803573ffffffffffffffffffffffffffffffffffffffff1690602001909291908035906020019092919080359060200190929190803590602001906401000000008111156106dc57600080fd5b8201836020820111156106ee57600080fd5b8035906020019184600183028401116401000000008311171561071057600080fd5b91908080601f016020809104026020016040519081016040528093929190818152602001838380828437600081840152601f19601f820116905080830192505050505050509192919290505050610e70565b60405180827bffffffffffffffffffffffffffffffffffffffffffffffffffffffff19167bffffffffffffffffffffffffffffffffffffffffffffffffffffffff1916815260200191505060405180910390f35b6320c13b0b60e01b81565b60008061081c600085858080601f016020809104026020016040519081016040528093929190818152602001838380828437600081840152601f19601f82011690508083019250505050505050610e8590919063ffffffff16565b90506000610878602086868080601f016020809104026020016040519081016040528093929190818152602001838380828437600081840152601f19601f82011690508083019250505050505050610e8590919063ffffffff16565b905060008585604081811061088957fe5b9050013560f81c60f81b60f81c9050600060018860405160200180807f19457468657265756d205369676e6564204d6573736167653a0a333200000000815250601c018281526020019150506040516020818303038152906040528051906020012083868660405160008152602001604052604051808581526020018460ff1660ff1681526020018381526020018281526020019450505050506020604051602081039080840390855afa158015610945573d6000803e3d6000fd5b5050506020604051035190508073ffffffffffffffffffffffffffffffffffffffff16600160009054906101000a900473ffffffffffffffffffffffffffffffffffffffff1673ffffffffffffffffffffffffffffffffffffffff16146109b35763deadbeef60e01b6109bc565b631626ba7e60e01b5b9450505050509392505050565b600080610a24600087878080601f016020809104026020016040519081016040528093929190818152602001838380828437600081840152601f19601f82011690508083019250505050505050610e8590919063ffffffff16565b905060006060807fce0b514b3931bdbe4d5d44e4f035afe7113767b7db71949271f6a62d9c60f55860001b841415610bf057610aa789898080601f016020809104026020016040519081016040528093929190818152602001838380828437600081840152601f19601f82011690508083019250505050505050600060e0610ef9565b91506000610abf606084610e8590919063ffffffff16565b60001c90506000610ada608085610e8590919063ffffffff16565b60001c9050604282141580610aef5750606481115b15610b095763deadbeef60e01b9650505050505050610e17565b610b5c8b8b8080601f016020809104026020016040519081016040528093929190818152602001838380828437600081840152601f19601f8201169050808301925050505050505060e08d8d9050610ef9565b9250610be78484805190602001206040516020018083805190602001908083835b60208310610ba05780518252602082019150602081019050602083039250610b7d565b6001836020036101000a0380198251168184511680821785525050505050509050018281526020019250505060405160208183030381529060405280519060200120611048565b94505050610c12565b8888604051808383808284378083019250505092505050604051809103902092505b6000610c6c600089898080601f016020809104026020016040519081016040528093929190818152602001838380828437600081840152601f19601f82011690508083019250505050505050610e8590919063ffffffff16565b90506000610cc860208a8a8080601f016020809104026020016040519081016040528093929190818152602001838380828437600081840152601f19601f82011690508083019250505050505050610e8590919063ffffffff16565b9050600089896040818110610cd957fe5b9050013560f81c60f81b60f81c9050600060018760405160200180807f19457468657265756d205369676e6564204d6573736167653a0a333200000000815250601c018281526020019150506040516020818303038152906040528051906020012083868660405160008152602001604052604051808581526020018460ff1660ff1681526020018381526020018281526020019450505050506020604051602081039080840390855afa158015610d95573d6000803e3d6000fd5b5050506020604051035190508073ffffffffffffffffffffffffffffffffffffffff16600160009054906101000a900473ffffffffffffffffffffffffffffffffffffffff1673ffffffffffffffffffffffffffffffffffffffff1614610e035763deadbeef60e01b610e0c565b6320c13b0b60e01b5b985050505050505050505b949350505050565b631626ba7e60e01b81565b600160009054906101000a900473ffffffffffffffffffffffffffffffffffffffff1681565b63deadbeef60e01b81565b600063bc197c8160e01b905095945050505050565b600063f23a6e6160e01b905095945050505050565b60006020820183511015610ee4576040517f08c379a000000000000000000000000000000000000000000000000000000000815260040180806020018281038252603c8152602001806111cb603c913960400191505060405180910390fd5b60208201915081830151905080905092915050565b606081831115610f71576040517f08c379a000000000000000000000000000000000000000000000000000000000815260040180806020018281038252601e8152602001807f4552433132373157616c6c65744d6f636b23736c6963653a204572726f72000081525060200191505060405180910390fd5b8351821115610fe8576040517f08c379a000000000000000000000000000000000000000000000000000000000815260040180806020018281038252601e8152602001807f4552433132373157616c6c65744d6f636b23736c6963653a204572726f72000081525060200191505060405180910390fd5b8282036040519080825280601f01601f19166020018201604052801561101d5781602001600182028038833980820191505090505b50905061103e61102c8261110a565b846110368761110a565b01835161111a565b8090509392505050565b60006040518060400160405280600281526020017f1901000000000000000000000000000000000000000000000000000000000000815250600054836040516020018084805190602001908083835b602083106110ba5780518252602082019150602081019050602083039250611097565b6001836020036101000a0380198251168184511680821785525050505050509050018381526020018281526020019350505050604051602081830303815290604052805190602001209050919050565b6000602082019050809050919050565b6020811015611144576001816020036101000a0380198351168185511680821786525050506111c4565b82821415611151576111c5565b828211156111905760208103905080820181840181515b828510156111855784518652602085019450602086019550611168565b8082525050506111c3565b60208103905080820181840183515b818612156111bc578251825260208303925060208203915061119f565b8086525050505b5b5b50505056fe4c696242797465732372656164427974657333323a20475245415445525f4f525f455155414c5f544f5f33325f4c454e4754485f5245515549524544a265627a7a72315820c5e052124f6f1cf63c1e51eb064190702af06251c592883ed77ed7510f88660864736f6c63430005100032",
  "source": "pragma solidity ^0.5.16;\r\n\r\nimport \"../interfaces/IERC1271Wallet.sol\";\r\nimport \"../utils/LibBytes.sol\";\r\n\r\n// Constructor of this LibEIP712 takes domain hash of mock ERC-1155\r\ncontract LibEIP712 {\r\n\r\n  /***********************************|\r\n  |             Variables             |\r\n  |__________________________________*/\r\n\r\n  // keccak256(\r\n  //   \"EIP712Domain(address verifyingContract)\"\r\n  // );\r\n  bytes32 internal constant DOMAIN_SEPARATOR_TYPEHASH = 0x035aff83d86937d35b32e04f0ddc6ff469290eef2f1b692d8a815c89404d4749;\r\n\r\n  // EIP-191 Header\r\n  string constant internal EIP191_HEADER = \"\\x19\\x01\";\r\n\r\n  // Domain seperator created in constructor\r\n  bytes32 internal EIP712_DOMAIN_HASH;\r\n\r\n  // Instantiate EIP712_DOMAIN_HASH\r\n  constructor (bytes32 domain_hash_1155)\r\n    public\r\n  {\r\n    EIP712_DOMAIN_HASH = domain_hash_1155;\r\n  }\r\n\r\n\r\n  /***********************************|\r\n  |              EIP-712              |\r\n  |__________________________________*/\r\n\r\n  /**\r\n   * @dev Calculates EIP712 encoding for a hash struct in this EIP712 Domain.\r\n   * @param hashStruct The EIP712 hash struct.\r\n   * @return EIP712 hash applied to this EIP712 Domain.\r\n   */\r\n  function hashEIP712Message(bytes32 hashStruct)\r\n      internal\r\n      view\r\n      returns (bytes32 result)\r\n  {\r\n    return keccak256(\r\n      abi.encodePacked(\r\n        EIP191_HEADER,\r\n        EIP712_DOMAIN_HASH,\r\n        hashStruct\r\n    ));\r\n  }\r\n}\r\n\r\n\r\n// Contract to test safe transfer behavior and verify content of signed meta-tx\r\n// Will actively check the signature\r\ncontract ERC1271WalletValidationMock is LibEIP712 {\r\n  using LibBytes for bytes;\r\n\r\n  /***********************************|\r\n  |             Variables             |\r\n  |__________________________________*/\r\n\r\n  bytes4 constant public ERC1271_MAGIC_VAL = 0x20c13b0b;\r\n  bytes4 constant public ERC1271_MAGICVALUE_BYTES32 = 0x1626ba7e;\r\n  bytes4 constant public ERC1271_INVALID = 0xdeadbeef;\r\n\r\n  address public owner;\r\n\r\n  // keccak256(\r\n  //   \"metaSafeTransferFrom(address,address,uint256,uint256,bool,bytes)\"\r\n  // );\r\n  bytes32 internal constant META_TX_TYPEHASH = 0xce0b514b3931bdbe4d5d44e4f035afe7113767b7db71949271f6a62d9c60f558;\r\n  \r\n\r\n  /***********************************|\r\n  |            Constructor            |\r\n  |__________________________________*/\r\n\r\n  // Set rejection to true by default\r\n  constructor (bytes32 domain_hash_1155) public LibEIP712(domain_hash_1155) {\r\n    owner = msg.sender;\r\n  }\r\n\r\n\r\n  /***********************************|\r\n  |        Signature Validation       |\r\n  |__________________________________*/\r\n\r\n  /**\r\n   * @dev Should return whether the signature provided is valid for the provided data\r\n   * @param _data Arbitrary length data signed on the behalf of address(this)\r\n   * @param _signature Signature byte array associated with _data\r\n   *\r\n   * MUST return the bytes4 magic value 0x20c13b0b when function passes.\r\n   * MUST NOT modify state (using STATICCALL for solc < 0.5, view modifier for solc > 0.5)\r\n   */\r\n  function isValidSignature(\r\n    bytes calldata _data,\r\n    bytes calldata _signature)\r\n    external\r\n    view\r\n    returns (bytes4 magicValue)\r\n  {\r\n    // Get bytes32 of what data represents\r\n    bytes32 data_signature = _data.readBytes32(0);\r\n    bytes32 signedHash;\r\n    bytes memory data;\r\n    bytes memory signedData;\r\n\r\n    // Check if amount is less than 100\r\n    // Check if ID is 66\r\n    // Need to read last bytes array to hash it for EIP-712 hashstruct\r\n    if (data_signature == META_TX_TYPEHASH) {\r\n\r\n      // Get data without last byte array\r\n      data = slice(_data, 0, 0xe0);\r\n\r\n      // Get amount and ID\r\n      uint256 id = uint256(data.readBytes32(0x60));\r\n      uint256 amount = uint256(data.readBytes32(0x80));\r\n\r\n      // Check requirements\r\n      if (id != 66 || amount > 100) {\r\n        return ERC1271_INVALID;\r\n      }\r\n\r\n      // Get byte array\r\n      signedData = slice(_data, 0xe0, _data.length);\r\n\r\n      // Get hash struct\r\n      signedHash = hashEIP712Message(\r\n        keccak256(\r\n          abi.encodePacked(\r\n            data,\r\n            keccak256(signedData)\r\n          )\r\n        )\r\n      );\r\n\r\n    } else {\r\n      signedHash = keccak256(_data);\r\n    }\r\n\r\n    bytes32 r = _signature.readBytes32(0);\r\n    bytes32 s = _signature.readBytes32(32);\r\n    uint8 v = uint8(_signature[64]);\r\n    address recovered = ecrecover(\r\n      keccak256(abi.encodePacked(\"\\x19Ethereum Signed Message:\\n32\", signedHash)),\r\n      v,\r\n      r,\r\n      s\r\n    );\r\n\r\n    return owner == recovered ? ERC1271_MAGIC_VAL : ERC1271_INVALID;\r\n  }\r\n\r\n  /**\r\n   * @dev Should return whether the signature provided is valid for the provided hash\r\n   * @param _hash keccak256 hash that was signed\r\n   * @param _signature Signature byte array associated with _data\r\n   *\r\n   * MUST return the bytes4 magic value 0x1626ba7e when function passes.\r\n   * MUST NOT modify state (using STATICCALL for solc < 0.5, view modifier for solc > 0.5)\r\n   */\r\n  function isValidSignature(\r\n    bytes32 _hash,\r\n    bytes calldata _signature)\r\n    external\r\n    view\r\n    returns (bytes4 magicValue)\r\n  {\r\n    bytes32 r = _signature.readBytes32(0);\r\n    bytes32 s = _signature.readBytes32(32);\r\n    uint8 v = uint8(_signature[64]);\r\n    address recovered = ecrecover(\r\n      keccak256(abi.encodePacked(\"\\x19Ethereum Signed Message:\\n32\", _hash)),\r\n      v,\r\n      r,\r\n      s\r\n    );\r\n\r\n    return owner == recovered ? ERC1271_MAGICVALUE_BYTES32 : ERC1271_INVALID;\r\n  }\r\n\r\n\r\n  /***********************************|\r\n  |              Receiver             |\r\n  |__________________________________*/\r\n\r\n  function onERC1155Received(address _operator, address _from, uint256 _id, uint256 _value, bytes memory _data)\r\n    public returns(bytes4)\r\n  {\r\n    return 0xf23a6e61;\r\n  }\r\n\r\n  function onERC1155BatchReceived(address _operator, address _from, uint256[] memory _ids, uint256[] memory _values, bytes memory _data)\r\n    public returns(bytes4)\r\n  {\r\n    return 0xbc197c81;\r\n  }\r\n\r\n  /***********************************|\r\n  |          Bytes Functions          |\r\n  |__________________________________*/\r\n\r\n  /**\r\n   * @dev Returns a slices from a byte array.\r\n   * @param b The byte array to take a slice from.\r\n   * @param from The starting index for the slice (inclusive).\r\n   * @param to The final index for the slice (exclusive).\r\n   * @return result The slice containing bytes at indices [from, to)\r\n   */\r\n  function slice(bytes memory b, uint256 from, uint256 to)\r\n    internal pure returns (bytes memory result)\r\n  {\r\n    // Ensure that the from and to positions are valid positions for a slice within\r\n    // the byte array that is being used.\r\n    if (from > to) {\r\n      revert(\"ERC1271WalletMock#slice: Error\");\r\n    }\r\n    if (to > b.length) {\r\n      revert(\"ERC1271WalletMock#slice: Error\");\r\n    }\r\n\r\n    // Create a new bytes structure and copy contents\r\n    result = new bytes(to - from);\r\n    memCopy(\r\n      contentAddress(result),\r\n      contentAddress(b) + from,\r\n      result.length\r\n    );\r\n    return result;\r\n  }\r\n\r\n  /**\r\n   * @dev Copies `length` bytes from memory location `source` to `dest`.\r\n   * @param dest memory address to copy bytes to.\r\n   * @param source memory address to copy bytes from.\r\n   * @param length number of bytes to copy.\r\n   */\r\n  function memCopy(uint256 dest, uint256 source, uint256 length)\r\n    internal\r\n    pure\r\n  {\r\n    if (length < 32) {\r\n      // Handle a partial word by reading destination and masking\r\n      // off the bits we are interested in.\r\n      // This correctly handles overlap, zero lengths and source == dest\r\n      assembly {\r\n        let mask := sub(exp(256, sub(32, length)), 1)\r\n        let s := and(mload(source), not(mask))\r\n        let d := and(mload(dest), mask)\r\n        mstore(dest, or(s, d))\r\n      }\r\n    } else {\r\n      // Skip the O(length) loop when source == dest.\r\n      if (source == dest) {\r\n        return;\r\n      }\r\n\r\n      // For large copies we copy whole words at a time. The final\r\n      // word is aligned to the end of the range (instead of after the\r\n      // previous) to handle partial words. So a copy will look like this:\r\n      //\r\n      //  ####\r\n      //      ####\r\n      //          ####\r\n      //            ####\r\n      //\r\n      // We handle overlap in the source and destination range by\r\n      // changing the copying direction. This prevents us from\r\n      // overwriting parts of source that we still need to copy.\r\n      //\r\n      // This correctly handles source == dest\r\n      //\r\n      if (source > dest) {\r\n        assembly {\r\n          // We subtract 32 from `sEnd` and `dEnd` because it\r\n          // is easier to compare with in the loop, and these\r\n          // are also the addresses we need for copying the\r\n          // last bytes.\r\n          length := sub(length, 32)\r\n          let sEnd := add(source, length)\r\n          let dEnd := add(dest, length)\r\n\r\n          // Remember the last 32 bytes of source\r\n          // This needs to be done here and not after the loop\r\n          // because we may have overwritten the last bytes in\r\n          // source already due to overlap.\r\n          let last := mload(sEnd)\r\n\r\n          // Copy whole words front to back\r\n          // Note: the first check is always true,\r\n          // this could have been a do-while loop.\r\n          // solhint-disable-next-line no-empty-blocks\r\n          for {} lt(source, sEnd) {} {\r\n            mstore(dest, mload(source))\r\n            source := add(source, 32)\r\n            dest := add(dest, 32)\r\n          }\r\n\r\n          // Write the last 32 bytes\r\n          mstore(dEnd, last)\r\n        }\r\n      } else {\r\n        assembly {\r\n          // We subtract 32 from `sEnd` and `dEnd` because those\r\n          // are the starting points when copying a word at the end.\r\n          length := sub(length, 32)\r\n          let sEnd := add(source, length)\r\n          let dEnd := add(dest, length)\r\n\r\n          // Remember the first 32 bytes of source\r\n          // This needs to be done here and not after the loop\r\n          // because we may have overwritten the first bytes in\r\n          // source already due to overlap.\r\n          let first := mload(source)\r\n\r\n          // Copy whole words back to front\r\n          // We use a signed comparisson here to allow dEnd to become\r\n          // negative (happens when source and dest < 32). Valid\r\n          // addresses in local memory will never be larger than\r\n          // 2**255, so they can be safely re-interpreted as signed.\r\n          // Note: the first check is always true,\r\n          // this could have been a do-while loop.\r\n          // solhint-disable-next-line no-empty-blocks\r\n          for {} slt(dest, dEnd) {} {\r\n            mstore(dEnd, mload(sEnd))\r\n            sEnd := sub(sEnd, 32)\r\n            dEnd := sub(dEnd, 32)\r\n          }\r\n\r\n          // Write the first 32 bytes\r\n          mstore(dest, first)\r\n        }\r\n      }\r\n    }\r\n  }\r\n\r\n  /**\r\n   * @dev Gets the memory address for the contents of a byte array.\r\n   * @param input Byte array to lookup.\r\n   * @return memoryAddress Memory address of the contents of the byte array.\r\n   */\r\n  function contentAddress(bytes memory input) internal pure returns (uint256 memoryAddress)\r\n  {\r\n    assembly {\r\n      memoryAddress := add(input, 32)\r\n    }\r\n    return memoryAddress;\r\n  }\r\n}\r\n\r\n",
  "sourcePath": "C:\\Users\\aggar\\ERC1155\\truffle-env\\contracts\\mocks\\ERC1271WalletValidationMock.sol",
  "compiler": {
    "name": "solc",
    "version": "0.5.16+commit.9c3226ce.Emscripten.clang"
  },
  "schemaVersion": "3.1.0",
  "updatedAt": "2020-05-19T21:47:00.151Z",
  "devdoc": {
    "methods": {
      "isValidSignature(bytes,bytes)": {
        "details": "Should return whether the signature provided is valid for the provided data",
        "params": {
          "_data": "Arbitrary length data signed on the behalf of address(this)",
          "_signature": "Signature byte array associated with _data    * MUST return the bytes4 magic value 0x20c13b0b when function passes. MUST NOT modify state (using STATICCALL for solc < 0.5, view modifier for solc > 0.5)"
        }
      },
      "isValidSignature(bytes32,bytes)": {
        "details": "Should return whether the signature provided is valid for the provided hash",
        "params": {
          "_hash": "keccak256 hash that was signed",
          "_signature": "Signature byte array associated with _data    * MUST return the bytes4 magic value 0x1626ba7e when function passes. MUST NOT modify state (using STATICCALL for solc < 0.5, view modifier for solc > 0.5)"
        }
      }
    }
  },
  "userdoc": {
    "methods": {
      "constructor": "*********************************| |            Constructor            | |__________________________________",
      "onERC1155Received(address,address,uint256,uint256,bytes)": {
        "notice": "*********************************| |              Receiver             | |__________________________________"
      }
    }
  }
}