{
  "contractName": "ERC1155ReceiverMock",
  "abi": [
    {
      "anonymous": false,
      "inputs": [
        {
          "indexed": false,
          "internalType": "address",
          "name": "_from",
          "type": "address"
        },
        {
          "indexed": false,
          "internalType": "address",
          "name": "_to",
          "type": "address"
        },
        {
          "indexed": false,
          "internalType": "uint256[]",
          "name": "_fromBalances",
          "type": "uint256[]"
        },
        {
          "indexed": false,
          "internalType": "uint256[]",
          "name": "_toBalances",
          "type": "uint256[]"
        }
      ],
      "name": "TransferBatchReceiver",
      "type": "event"
    },
    {
      "anonymous": false,
      "inputs": [
        {
          "indexed": false,
          "internalType": "address",
          "name": "_from",
          "type": "address"
        },
        {
          "indexed": false,
          "internalType": "address",
          "name": "_to",
          "type": "address"
        },
        {
          "indexed": false,
          "internalType": "uint256",
          "name": "_fromBalance",
          "type": "uint256"
        },
        {
          "indexed": false,
          "internalType": "uint256",
          "name": "_toBalance",
          "type": "uint256"
        }
      ],
      "name": "TransferSingleReceiver",
      "type": "event"
    },
    {
      "constant": true,
      "inputs": [],
      "name": "lastData",
      "outputs": [
        {
          "internalType": "bytes",
          "name": "",
          "type": "bytes"
        }
      ],
      "payable": false,
      "stateMutability": "view",
      "type": "function"
    },
    {
      "constant": true,
      "inputs": [],
      "name": "lastId",
      "outputs": [
        {
          "internalType": "uint256",
          "name": "",
          "type": "uint256"
        }
      ],
      "payable": false,
      "stateMutability": "view",
      "type": "function"
    },
    {
      "constant": true,
      "inputs": [],
      "name": "lastOperator",
      "outputs": [
        {
          "internalType": "address",
          "name": "",
          "type": "address"
        }
      ],
      "payable": false,
      "stateMutability": "view",
      "type": "function"
    },
    {
      "constant": true,
      "inputs": [],
      "name": "lastValue",
      "outputs": [
        {
          "internalType": "uint256",
          "name": "",
          "type": "uint256"
        }
      ],
      "payable": false,
      "stateMutability": "view",
      "type": "function"
    },
    {
      "constant": true,
      "inputs": [],
      "name": "shouldReject",
      "outputs": [
        {
          "internalType": "bool",
          "name": "",
          "type": "bool"
        }
      ],
      "payable": false,
      "stateMutability": "view",
      "type": "function"
    },
    {
      "constant": false,
      "inputs": [
        {
          "internalType": "address",
          "name": "_operator",
          "type": "address"
        },
        {
          "internalType": "address",
          "name": "_from",
          "type": "address"
        },
        {
          "internalType": "uint256",
          "name": "_id",
          "type": "uint256"
        },
        {
          "internalType": "uint256",
          "name": "_value",
          "type": "uint256"
        },
        {
          "internalType": "bytes",
          "name": "_data",
          "type": "bytes"
        }
      ],
      "name": "onERC1155Received",
      "outputs": [
        {
          "internalType": "bytes4",
          "name": "",
          "type": "bytes4"
        }
      ],
      "payable": false,
      "stateMutability": "nonpayable",
      "type": "function"
    },
    {
      "constant": false,
      "inputs": [
        {
          "internalType": "address",
          "name": "_operator",
          "type": "address"
        },
        {
          "internalType": "address",
          "name": "_from",
          "type": "address"
        },
        {
          "internalType": "uint256[]",
          "name": "_ids",
          "type": "uint256[]"
        },
        {
          "internalType": "uint256[]",
          "name": "_values",
          "type": "uint256[]"
        },
        {
          "internalType": "bytes",
          "name": "_data",
          "type": "bytes"
        }
      ],
      "name": "onERC1155BatchReceived",
      "outputs": [
        {
          "internalType": "bytes4",
          "name": "",
          "type": "bytes4"
        }
      ],
      "payable": false,
      "stateMutability": "nonpayable",
      "type": "function"
    },
    {
      "constant": true,
      "inputs": [
        {
          "internalType": "bytes4",
          "name": "interfaceID",
          "type": "bytes4"
        }
      ],
      "name": "supportsInterface",
      "outputs": [
        {
          "internalType": "bool",
          "name": "",
          "type": "bool"
        }
      ],
      "payable": false,
      "stateMutability": "view",
      "type": "function"
    },
    {
      "constant": false,
      "inputs": [
        {
          "internalType": "bool",
          "name": "_value",
          "type": "bool"
        }
      ],
      "name": "setShouldReject",
      "outputs": [],
      "payable": false,
      "stateMutability": "nonpayable",
      "type": "function"
    }
  ],
  "bytecode": "0x608060405234801561001057600080fd5b50611020806100206000396000f3fe608060405234801561001057600080fd5b50600436106100925760003560e01c80636eb3cd49116100665780636eb3cd49146101bf578063a175b63814610209578063bc197c8114610239578063c1292cc3146104ae578063f23a6e61146104cc57610092565b80626e75ec1461009757806301ffc9a71461011a5780631dbb93811461017f57806343183834146101a1575b600080fd5b61009f61062d565b6040518080602001828103825283818151815260200191508051906020019080838360005b838110156100df5780820151818401526020810190506100c4565b50505050905090810190601f16801561010c5780820380516001836020036101000a031916815260200191505b509250505060405180910390f35b6101656004803603602081101561013057600080fd5b8101908080357bffffffffffffffffffffffffffffffffffffffffffffffffffffffff191690602001909291905050506106cb565b604051808215151515815260200191505060405180910390f35b61018761072d565b604051808215151515815260200191505060405180910390f35b6101a961073f565b6040518082815260200191505060405180910390f35b6101c7610745565b604051808273ffffffffffffffffffffffffffffffffffffffff1673ffffffffffffffffffffffffffffffffffffffff16815260200191505060405180910390f35b6102376004803603602081101561021f57600080fd5b8101908080351515906020019092919050505061076b565b005b61045a600480360360a081101561024f57600080fd5b81019080803573ffffffffffffffffffffffffffffffffffffffff169060200190929190803573ffffffffffffffffffffffffffffffffffffffff169060200190929190803590602001906401000000008111156102ac57600080fd5b8201836020820111156102be57600080fd5b803590602001918460208302840111640100000000831117156102e057600080fd5b919080806020026020016040519081016040528093929190818152602001838360200280828437600081840152601f19601f8201169050808301925050505050505091929192908035906020019064010000000081111561034057600080fd5b82018360208201111561035257600080fd5b8035906020019184602083028401116401000000008311171561037457600080fd5b919080806020026020016040519081016040528093929190818152602001838360200280828437600081840152601f19601f820116905080830192505050505050509192919290803590602001906401000000008111156103d457600080fd5b8201836020820111156103e657600080fd5b8035906020019184600183028401116401000000008311171561040857600080fd5b91908080601f016020809104026020016040519081016040528093929190818152602001838380828437600081840152601f19601f820116905080830192505050505050509192919290505050610787565b60405180827bffffffffffffffffffffffffffffffffffffffffffffffffffffffff19167bffffffffffffffffffffffffffffffffffffffffffffffffffffffff1916815260200191505060405180910390f35b6104b6610d75565b6040518082815260200191505060405180910390f35b6105d9600480360360a08110156104e257600080fd5b81019080803573ffffffffffffffffffffffffffffffffffffffff169060200190929190803573ffffffffffffffffffffffffffffffffffffffff16906020019092919080359060200190929190803590602001909291908035906020019064010000000081111561055357600080fd5b82018360208201111561056557600080fd5b8035906020019184600183028401116401000000008311171561058757600080fd5b91908080601f016020809104026020016040519081016040528093929190818152602001838380828437600081840152601f19601f820116905080830192505050505050509192919290505050610d7b565b60405180827bffffffffffffffffffffffffffffffffffffffffffffffffffffffff19167bffffffffffffffffffffffffffffffffffffffffffffffffffffffff1916815260200191505060405180910390f35b60018054600181600116156101000203166002900480601f0160208091040260200160405190810160405280929190818152602001828054600181600116156101000203166002900480156106c35780601f10610698576101008083540402835291602001916106c3565b820191906000526020600020905b8154815290600101906020018083116106a657829003601f168201915b505050505081565b60006301ffc9a760e01b827bffffffffffffffffffffffffffffffffffffffffffffffffffffffff191614806107265750634e2312e060e01b827bffffffffffffffffffffffffffffffffffffffffffffffffffffffff1916145b9050919050565b6000809054906101000a900460ff1681565b60045481565b600260009054906101000a900473ffffffffffffffffffffffffffffffffffffffff1681565b806000806101000a81548160ff02191690831515021790555050565b6000606084516040519080825280602002602001820160405280156107bb5781602001602082028038833980820191505090505b509050606085516040519080825280602002602001820160405280156107f05781602001602082028038833980820191505090505b50905060008090505b865181101561089d578783828151811061080f57fe5b602002602001019073ffffffffffffffffffffffffffffffffffffffff16908173ffffffffffffffffffffffffffffffffffffffff16815250503082828151811061085657fe5b602002602001019073ffffffffffffffffffffffffffffffffffffffff16908173ffffffffffffffffffffffffffffffffffffffff168152505080806001019150506107f9565b5060603373ffffffffffffffffffffffffffffffffffffffff16634e1273f484896040518363ffffffff1660e01b8152600401808060200180602001838103835285818151815260200191508051906020019060200280838360005b838110156109145780820151818401526020810190506108f9565b50505050905001838103825284818151815260200191508051906020019060200280838360005b8381101561095657808201518184015260208101905061093b565b5050505090500194505050505060006040518083038186803b15801561097b57600080fd5b505afa15801561098f573d6000803e3d6000fd5b505050506040513d6000823e3d601f19601f8201168201806040525060208110156109b957600080fd5b81019080805160405193929190846401000000008211156109d957600080fd5b838201915060208201858111156109ef57600080fd5b8251866020820283011164010000000082111715610a0c57600080fd5b8083526020830192505050908051906020019060200280838360005b83811015610a43578082015181840152602081019050610a28565b50505050905001604052505050905060603373ffffffffffffffffffffffffffffffffffffffff16634e1273f4848a6040518363ffffffff1660e01b8152600401808060200180602001838103835285818151815260200191508051906020019060200280838360005b83811015610ac8578082015181840152602081019050610aad565b50505050905001838103825284818151815260200191508051906020019060200280838360005b83811015610b0a578082015181840152602081019050610aef565b5050505090500194505050505060006040518083038186803b158015610b2f57600080fd5b505afa158015610b43573d6000803e3d6000fd5b505050506040513d6000823e3d601f19601f820116820180604052506020811015610b6d57600080fd5b8101908080516040519392919084640100000000821115610b8d57600080fd5b83820191506020820185811115610ba357600080fd5b8251866020820283011164010000000082111715610bc057600080fd5b8083526020830192505050908051906020019060200280838360005b83811015610bf7578082015181840152602081019050610bdc565b5050505090500160405250505090507f342e0fabcfd1ee833d876ecb1c45c3c2128e88b7cb5ba33cb71476504c75ac9689308484604051808573ffffffffffffffffffffffffffffffffffffffff1673ffffffffffffffffffffffffffffffffffffffff1681526020018473ffffffffffffffffffffffffffffffffffffffff1673ffffffffffffffffffffffffffffffffffffffff1681526020018060200180602001838103835285818151815260200191508051906020019060200280838360005b83811015610cd6578082015181840152602081019050610cbb565b50505050905001838103825284818151815260200191508051906020019060200280838360005b83811015610d18578082015181840152602081019050610cfd565b50505050905001965050505050505060405180910390a1600115156000809054906101000a900460ff1615151415610d5d5763deadbeef60e01b945050505050610d6c565b63bc197c8160e01b9450505050505b95945050505050565b60035481565b6000803373ffffffffffffffffffffffffffffffffffffffff1662fdd58e87876040518363ffffffff1660e01b8152600401808373ffffffffffffffffffffffffffffffffffffffff1673ffffffffffffffffffffffffffffffffffffffff1681526020018281526020019250505060206040518083038186803b158015610e0257600080fd5b505afa158015610e16573d6000803e3d6000fd5b505050506040513d6020811015610e2c57600080fd5b8101908080519060200190929190505050905060003373ffffffffffffffffffffffffffffffffffffffff1662fdd58e30886040518363ffffffff1660e01b8152600401808373ffffffffffffffffffffffffffffffffffffffff1673ffffffffffffffffffffffffffffffffffffffff1681526020018281526020019250505060206040518083038186803b158015610ec557600080fd5b505afa158015610ed9573d6000803e3d6000fd5b505050506040513d6020811015610eef57600080fd5b810190808051906020019092919050505090507f35754fc132e57c492c060947310a879a2a3bc6d8360c268803988f6366a5ffa287308484604051808573ffffffffffffffffffffffffffffffffffffffff1673ffffffffffffffffffffffffffffffffffffffff1681526020018473ffffffffffffffffffffffffffffffffffffffff1673ffffffffffffffffffffffffffffffffffffffff16815260200183815260200182815260200194505050505060405180910390a1600115156000809054906101000a900460ff1615151415610fd55763deadbeef60e01b92505050610fe2565b63f23a6e6160e01b925050505b9594505050505056fea265627a7a7231582031d7079f1627f1d68b118b206b00b61be24366b6a5cc791351618915ff2fb78664736f6c63430005100032",
  "source": "pragma solidity ^0.5.16;\r\n\r\nimport \"../interfaces/IERC1155.sol\";\r\n\r\n\r\n// Contract to test safe transfer behavior.\r\ncontract ERC1155ReceiverMock {\r\n\r\n  /***********************************|\r\n  |        Variables and Events       |\r\n  |__________________________________*/\r\n\r\n  bytes4 constant internal ERC1155_RECEIVED_SIG = 0xf23a6e61;\r\n  bytes4 constant internal ERC1155_BATCH_RECEIVED_SIG = 0xbc197c81;\r\n  bytes4 constant internal ERC1155_RECEIVED_INVALID = 0xdeadbeef;\r\n  bytes4 constant internal IS_ERC1155_RECEIVER = 0x0d912442; //bytes4(keccak256(\"isERC1155TokenReceiver()\"));\r\n\r\n  // Keep values from last received contract.\r\n  bool public shouldReject;\r\n\r\n  bytes public lastData;\r\n  address public lastOperator;\r\n  uint256 public lastId;\r\n  uint256 public lastValue;\r\n\r\n  //Debug event\r\n  event TransferSingleReceiver(address _from, address _to, uint256 _fromBalance, uint256 _toBalance);\r\n  event TransferBatchReceiver(address _from, address _to, uint256[] _fromBalances, uint256[] _toBalances);\r\n\r\n\r\n  /***********************************|\r\n  |         OnReceive Functions       |\r\n  |__________________________________*/\r\n\r\n  /**\r\n   * @notice Handle the receipt of a single ERC1155 token type.\r\n   * @dev An ERC1155-compliant smart contract MUST call this function on the token recipient contract, at the end of a `safeTransferFrom` after the balance has been updated.\r\n   * This function MAY throw to revert and reject the transfer.\r\n   * Return of other than the magic value MUST result in the transaction being reverted.\r\n   * Note: The contract address is always the message sender.\r\n   * @param _operator  The address which called the `safeTransferFrom` function\r\n   * @param _from      The address which previously owned the token\r\n   * @param _id        The id of the token being transferred\r\n   * @param _value     The amount of tokens being transferred\r\n   * @param _data      Additional data with no specified format\r\n   * @return           `bytes4(keccak256(\"onERC1155Received(address,address,uint256,uint256,bytes)\"))`\r\n   */\r\n  function onERC1155Received(address _operator, address _from, uint256 _id, uint256 _value, bytes memory _data)\r\n    public returns(bytes4)\r\n  {\r\n    // To check the following conditions;\r\n    //   All the balances in the transfer MUST have been updated to match the senders intent before any hook is called on a recipient.\r\n    //   All the transfer events for the transfer MUST have been emitted to reflect the balance changes before any hook is called on a recipient.\r\n    uint256 fromBalance = IERC1155(msg.sender).balanceOf(_from, _id);\r\n    uint256 toBalance = IERC1155(msg.sender).balanceOf(address(this), _id);\r\n    emit TransferSingleReceiver(_from, address(this), fromBalance, toBalance);\r\n\r\n    if (shouldReject == true) {\r\n      return ERC1155_RECEIVED_INVALID; // Some random value\r\n    } else {\r\n      return ERC1155_RECEIVED_SIG;\r\n    }\r\n  }\r\n\r\n  /**\r\n   * @notice Handle the receipt of multiple ERC1155 token types.\r\n   * @dev An ERC1155-compliant smart contract MUST call this function on the token recipient contract, at the end of a `safeBatchTransferFrom` after the balances have been updated.\r\n   * This function MAY throw to revert and reject the transfer.\r\n   * Return of other than the magic value WILL result in the transaction being reverted.\r\n   * Note: The contract address is always the message sender.\r\n   * @param _operator  The address which called the `safeBatchTransferFrom` function\r\n   * @param _from      The address which previously owned the token\r\n   * @param _ids       An array containing ids of each token being transferred\r\n   * @param _values    An array containing amounts of each token being transferred\r\n   * @param _data      Additional data with no specified format\r\n   * @return           `bytes4(keccak256(\"onERC1155BatchReceived(address,address,uint256[],uint256[],bytes)\"))`\r\n   */\r\n  function onERC1155BatchReceived(address _operator, address _from, uint256[] memory _ids, uint256[] memory _values, bytes memory _data) \r\n    public returns(bytes4)\r\n  {\r\n    // To check the following conditions;\r\n    //   All the balances in the transfer MUST have been updated to match the senders intent before any hook is called on a recipient.\r\n    //   All the transfer events for the transfer MUST have been emitted to reflect the balance changes before any hook is called on a recipient.\r\n    address[] memory fromAddressArray = new address[](_ids.length);\r\n    address[] memory toAddressArray = new address[](_ids.length);\r\n    for (uint i = 0; i < _ids.length; i++ ) {\r\n      fromAddressArray[i] = _from;\r\n      toAddressArray[i] = (address(this));\r\n    }\r\n    uint256[] memory fromBalances = IERC1155(msg.sender).balanceOfBatch(fromAddressArray, _ids);\r\n    uint256[] memory toBalances = IERC1155(msg.sender).balanceOfBatch(toAddressArray, _ids);\r\n    emit TransferBatchReceiver(_from, address(this), fromBalances, toBalances);\r\n\r\n    if (shouldReject == true) {\r\n      return ERC1155_RECEIVED_INVALID; // Some random value\r\n    } else {\r\n      return ERC1155_BATCH_RECEIVED_SIG;\r\n    }\r\n  }\r\n\r\n\r\n  /***********************************|\r\n  |          ERC165 Functions         |\r\n  |__________________________________*/\r\n\r\n  /**\r\n   * @notice Indicates whether a contract implements the `ERC1155TokenReceiver` functions and so can accept ERC1155 token types.\r\n   * @param  interfaceID The ERC-165 interface ID that is queried for support.s\r\n   * @dev This function MUST return true if it implements the ERC1155TokenReceiver interface and ERC-165 interface.\r\n   *      This function MUST NOT consume more than 5,000 gas.\r\n   * @return Wheter ERC-165 or ERC1155TokenReceiver interfaces are supported.\r\n   */\r\n  function supportsInterface(bytes4 interfaceID) external view returns (bool) {\r\n    return  interfaceID == 0x01ffc9a7 || // ERC-165 support (i.e. `bytes4(keccak256('supportsInterface(bytes4)'))`).\r\n      interfaceID == 0x4e2312e0;         // ERC-1155 `ERC1155TokenReceiver` support\r\n  }\r\n\r\n  function setShouldReject(bool _value) public {\r\n    shouldReject = _value;\r\n  }\r\n}",
  "sourcePath": "C:\\Users\\aggar\\ERC1155\\truffle-env\\contracts\\mocks\\ERC1155ReceiverMock.sol",
  "compiler": {
    "name": "solc",
    "version": "0.5.16+commit.9c3226ce.Emscripten.clang"
  },
  "schemaVersion": "3.1.0",
  "updatedAt": "2020-05-19T21:47:00.140Z",
  "devdoc": {
    "methods": {
      "onERC1155BatchReceived(address,address,uint256[],uint256[],bytes)": {
        "details": "An ERC1155-compliant smart contract MUST call this function on the token recipient contract, at the end of a `safeBatchTransferFrom` after the balances have been updated. This function MAY throw to revert and reject the transfer. Return of other than the magic value WILL result in the transaction being reverted. Note: The contract address is always the message sender.",
        "params": {
          "_data": "Additional data with no specified format",
          "_from": "The address which previously owned the token",
          "_ids": "An array containing ids of each token being transferred",
          "_operator": "The address which called the `safeBatchTransferFrom` function",
          "_values": "An array containing amounts of each token being transferred"
        },
        "return": "`bytes4(keccak256(\"onERC1155BatchReceived(address,address,uint256[],uint256[],bytes)\"))`"
      },
      "onERC1155Received(address,address,uint256,uint256,bytes)": {
        "details": "An ERC1155-compliant smart contract MUST call this function on the token recipient contract, at the end of a `safeTransferFrom` after the balance has been updated. This function MAY throw to revert and reject the transfer. Return of other than the magic value MUST result in the transaction being reverted. Note: The contract address is always the message sender.",
        "params": {
          "_data": "Additional data with no specified format",
          "_from": "The address which previously owned the token",
          "_id": "The id of the token being transferred",
          "_operator": "The address which called the `safeTransferFrom` function",
          "_value": "The amount of tokens being transferred"
        },
        "return": "`bytes4(keccak256(\"onERC1155Received(address,address,uint256,uint256,bytes)\"))`"
      },
      "supportsInterface(bytes4)": {
        "details": "This function MUST return true if it implements the ERC1155TokenReceiver interface and ERC-165 interface.     This function MUST NOT consume more than 5,000 gas.",
        "params": {
          "interfaceID": "The ERC-165 interface ID that is queried for support.s"
        },
        "return": "Wheter ERC-165 or ERC1155TokenReceiver interfaces are supported."
      }
    }
  },
  "userdoc": {
    "methods": {
      "onERC1155BatchReceived(address,address,uint256[],uint256[],bytes)": {
        "notice": "Handle the receipt of multiple ERC1155 token types."
      },
      "onERC1155Received(address,address,uint256,uint256,bytes)": {
        "notice": "Handle the receipt of a single ERC1155 token type."
      },
      "supportsInterface(bytes4)": {
        "notice": "Indicates whether a contract implements the `ERC1155TokenReceiver` functions and so can accept ERC1155 token types."
      }
    }
  }
}