{
  "contractName": "ERC1155OperatorMock",
  "abi": [
    {
      "constant": false,
      "inputs": [
        {
          "internalType": "address",
          "name": "_tokenAddress",
          "type": "address"
        },
        {
          "internalType": "address",
          "name": "_from",
          "type": "address"
        },
        {
          "internalType": "address",
          "name": "_to",
          "type": "address"
        },
        {
          "internalType": "uint256",
          "name": "_id",
          "type": "uint256"
        },
        {
          "internalType": "uint256",
          "name": "_amount",
          "type": "uint256"
        },
        {
          "internalType": "bytes",
          "name": "_data",
          "type": "bytes"
        }
      ],
      "name": "safeTransferFrom",
      "outputs": [],
      "payable": false,
      "stateMutability": "nonpayable",
      "type": "function"
    },
    {
      "constant": false,
      "inputs": [
        {
          "internalType": "address",
          "name": "_tokenAddress",
          "type": "address"
        },
        {
          "internalType": "address",
          "name": "_from",
          "type": "address"
        },
        {
          "internalType": "address",
          "name": "_to",
          "type": "address"
        },
        {
          "internalType": "uint256[]",
          "name": "_ids",
          "type": "uint256[]"
        },
        {
          "internalType": "uint256[]",
          "name": "_amounts",
          "type": "uint256[]"
        },
        {
          "internalType": "bytes",
          "name": "_data",
          "type": "bytes"
        }
      ],
      "name": "safeBatchTransferFrom",
      "outputs": [],
      "payable": false,
      "stateMutability": "nonpayable",
      "type": "function"
    },
    {
      "constant": false,
      "inputs": [
        {
          "internalType": "address",
          "name": "_tokenAddress",
          "type": "address"
        },
        {
          "internalType": "address",
          "name": "_from",
          "type": "address"
        },
        {
          "internalType": "address",
          "name": "_to",
          "type": "address"
        },
        {
          "internalType": "uint256",
          "name": "_id",
          "type": "uint256"
        },
        {
          "internalType": "uint256",
          "name": "_amount",
          "type": "uint256"
        },
        {
          "internalType": "bool",
          "name": "_isGasFee",
          "type": "bool"
        },
        {
          "internalType": "bytes",
          "name": "_data",
          "type": "bytes"
        }
      ],
      "name": "metaSafeTransferFrom",
      "outputs": [],
      "payable": false,
      "stateMutability": "nonpayable",
      "type": "function"
    },
    {
      "constant": false,
      "inputs": [
        {
          "internalType": "address",
          "name": "_tokenAddress",
          "type": "address"
        },
        {
          "internalType": "address",
          "name": "_from",
          "type": "address"
        },
        {
          "internalType": "address",
          "name": "_to",
          "type": "address"
        },
        {
          "internalType": "uint256[]",
          "name": "_ids",
          "type": "uint256[]"
        },
        {
          "internalType": "uint256[]",
          "name": "_amounts",
          "type": "uint256[]"
        },
        {
          "internalType": "bool",
          "name": "_isGasFee",
          "type": "bool"
        },
        {
          "internalType": "bytes",
          "name": "_data",
          "type": "bytes"
        }
      ],
      "name": "metaSafeBatchTransferFrom",
      "outputs": [],
      "payable": false,
      "stateMutability": "nonpayable",
      "type": "function"
    },
    {
      "constant": false,
      "inputs": [
        {
          "internalType": "address",
          "name": "_tokenAddress",
          "type": "address"
        },
        {
          "internalType": "address",
          "name": "_owner",
          "type": "address"
        },
        {
          "internalType": "address",
          "name": "_operator",
          "type": "address"
        },
        {
          "internalType": "bool",
          "name": "_approved",
          "type": "bool"
        },
        {
          "internalType": "bool",
          "name": "_isGasFee",
          "type": "bool"
        },
        {
          "internalType": "bytes",
          "name": "_data",
          "type": "bytes"
        }
      ],
      "name": "metaSetApprovalForAll",
      "outputs": [],
      "payable": false,
      "stateMutability": "nonpayable",
      "type": "function"
    }
  ],
  "bytecode": "0x608060405234801561001057600080fd5b50611076806100206000396000f3fe608060405234801561001057600080fd5b50600436106100575760003560e01c80637ee7f69b1461005c57806387fd22fc1461029f578063e7e4f052146103da578063eb46c45b14610629578063f06978b714610758575b600080fd5b61029d600480360360c081101561007257600080fd5b81019080803573ffffffffffffffffffffffffffffffffffffffff169060200190929190803573ffffffffffffffffffffffffffffffffffffffff169060200190929190803573ffffffffffffffffffffffffffffffffffffffff169060200190929190803590602001906401000000008111156100ef57600080fd5b82018360208201111561010157600080fd5b8035906020019184602083028401116401000000008311171561012357600080fd5b919080806020026020016040519081016040528093929190818152602001838360200280828437600081840152601f19601f8201169050808301925050505050505091929192908035906020019064010000000081111561018357600080fd5b82018360208201111561019557600080fd5b803590602001918460208302840111640100000000831117156101b757600080fd5b919080806020026020016040519081016040528093929190818152602001838360200280828437600081840152601f19601f8201169050808301925050505050505091929192908035906020019064010000000081111561021757600080fd5b82018360208201111561022957600080fd5b8035906020019184600183028401116401000000008311171561024b57600080fd5b91908080601f016020809104026020016040519081016040528093929190818152602001838380828437600081840152601f19601f82011690508083019250505050505050919291929050505061088b565b005b6103d8600480360360e08110156102b557600080fd5b81019080803573ffffffffffffffffffffffffffffffffffffffff169060200190929190803573ffffffffffffffffffffffffffffffffffffffff169060200190929190803573ffffffffffffffffffffffffffffffffffffffff16906020019092919080359060200190929190803590602001909291908035151590602001909291908035906020019064010000000081111561035257600080fd5b82018360208201111561036457600080fd5b8035906020019184600183028401116401000000008311171561038657600080fd5b91908080601f016020809104026020016040519081016040528093929190818152602001838380828437600081840152601f19601f820116905080830192505050505050509192919290505050610a5d565b005b610627600480360360e08110156103f057600080fd5b81019080803573ffffffffffffffffffffffffffffffffffffffff169060200190929190803573ffffffffffffffffffffffffffffffffffffffff169060200190929190803573ffffffffffffffffffffffffffffffffffffffff1690602001909291908035906020019064010000000081111561046d57600080fd5b82018360208201111561047f57600080fd5b803590602001918460208302840111640100000000831117156104a157600080fd5b919080806020026020016040519081016040528093929190818152602001838360200280828437600081840152601f19601f8201169050808301925050505050505091929192908035906020019064010000000081111561050157600080fd5b82018360208201111561051357600080fd5b8035906020019184602083028401116401000000008311171561053557600080fd5b919080806020026020016040519081016040528093929190818152602001838360200280828437600081840152601f19601f820116905080830192505050505050509192919290803515159060200190929190803590602001906401000000008111156105a157600080fd5b8201836020820111156105b357600080fd5b803590602001918460018302840111640100000000831117156105d557600080fd5b91908080601f016020809104026020016040519081016040528093929190818152602001838380828437600081840152601f19601f820116905080830192505050505050509192919290505050610bba565b005b610756600480360360c081101561063f57600080fd5b81019080803573ffffffffffffffffffffffffffffffffffffffff169060200190929190803573ffffffffffffffffffffffffffffffffffffffff169060200190929190803573ffffffffffffffffffffffffffffffffffffffff1690602001909291908035906020019092919080359060200190929190803590602001906401000000008111156106d057600080fd5b8201836020820111156106e257600080fd5b8035906020019184600183028401116401000000008311171561070457600080fd5b91908080601f016020809104026020016040519081016040528093929190818152602001838380828437600081840152601f19601f820116905080830192505050505050509192919290505050610d99565b005b610889600480360360c081101561076e57600080fd5b81019080803573ffffffffffffffffffffffffffffffffffffffff169060200190929190803573ffffffffffffffffffffffffffffffffffffffff169060200190929190803573ffffffffffffffffffffffffffffffffffffffff1690602001909291908035151590602001909291908035151590602001909291908035906020019064010000000081111561080357600080fd5b82018360208201111561081557600080fd5b8035906020019184600183028401116401000000008311171561083757600080fd5b91908080601f016020809104026020016040519081016040528093929190818152602001838380828437600081840152601f19601f820116905080830192505050505050509192919290505050610ee9565b005b8573ffffffffffffffffffffffffffffffffffffffff16632eb2c2d686868686866040518663ffffffff1660e01b8152600401808673ffffffffffffffffffffffffffffffffffffffff1673ffffffffffffffffffffffffffffffffffffffff1681526020018573ffffffffffffffffffffffffffffffffffffffff1673ffffffffffffffffffffffffffffffffffffffff168152602001806020018060200180602001848103845287818151815260200191508051906020019060200280838360005b8381101561096a57808201518184015260208101905061094f565b50505050905001848103835286818151815260200191508051906020019060200280838360005b838110156109ac578082015181840152602081019050610991565b50505050905001848103825285818151815260200191508051906020019080838360005b838110156109eb5780820151818401526020810190506109d0565b50505050905090810190601f168015610a185780820380516001836020036101000a031916815260200191505b5098505050505050505050600060405180830381600087803b158015610a3d57600080fd5b505af1158015610a51573d6000803e3d6000fd5b50505050505050505050565b8673ffffffffffffffffffffffffffffffffffffffff1663ce0b514b8787878787876040518763ffffffff1660e01b8152600401808773ffffffffffffffffffffffffffffffffffffffff1673ffffffffffffffffffffffffffffffffffffffff1681526020018673ffffffffffffffffffffffffffffffffffffffff1673ffffffffffffffffffffffffffffffffffffffff1681526020018581526020018481526020018315151515815260200180602001828103825283818151815260200191508051906020019080838360005b83811015610b48578082015181840152602081019050610b2d565b50505050905090810190601f168015610b755780820380516001836020036101000a031916815260200191505b50975050505050505050600060405180830381600087803b158015610b9957600080fd5b505af1158015610bad573d6000803e3d6000fd5b5050505050505050505050565b8673ffffffffffffffffffffffffffffffffffffffff1663a3d4926e8787878787876040518763ffffffff1660e01b8152600401808773ffffffffffffffffffffffffffffffffffffffff1673ffffffffffffffffffffffffffffffffffffffff1681526020018673ffffffffffffffffffffffffffffffffffffffff1673ffffffffffffffffffffffffffffffffffffffff16815260200180602001806020018515151515815260200180602001848103845288818151815260200191508051906020019060200280838360005b83811015610ca4578082015181840152602081019050610c89565b50505050905001848103835287818151815260200191508051906020019060200280838360005b83811015610ce6578082015181840152602081019050610ccb565b50505050905001848103825285818151815260200191508051906020019080838360005b83811015610d25578082015181840152602081019050610d0a565b50505050905090810190601f168015610d525780820380516001836020036101000a031916815260200191505b509950505050505050505050600060405180830381600087803b158015610d7857600080fd5b505af1158015610d8c573d6000803e3d6000fd5b5050505050505050505050565b8573ffffffffffffffffffffffffffffffffffffffff1663f242432a86868686866040518663ffffffff1660e01b8152600401808673ffffffffffffffffffffffffffffffffffffffff1673ffffffffffffffffffffffffffffffffffffffff1681526020018573ffffffffffffffffffffffffffffffffffffffff1673ffffffffffffffffffffffffffffffffffffffff16815260200184815260200183815260200180602001828103825283818151815260200191508051906020019080838360005b83811015610e79578082015181840152602081019050610e5e565b50505050905090810190601f168015610ea65780820380516001836020036101000a031916815260200191505b509650505050505050600060405180830381600087803b158015610ec957600080fd5b505af1158015610edd573d6000803e3d6000fd5b50505050505050505050565b8573ffffffffffffffffffffffffffffffffffffffff1663f5d4c82086868686866040518663ffffffff1660e01b8152600401808673ffffffffffffffffffffffffffffffffffffffff1673ffffffffffffffffffffffffffffffffffffffff1681526020018573ffffffffffffffffffffffffffffffffffffffff1673ffffffffffffffffffffffffffffffffffffffff168152602001841515151581526020018315151515815260200180602001828103825283818151815260200191508051906020019080838360005b83811015610fd1578082015181840152602081019050610fb6565b50505050905090810190601f168015610ffe5780820380516001836020036101000a031916815260200191505b509650505050505050600060405180830381600087803b15801561102157600080fd5b505af1158015611035573d6000803e3d6000fd5b5050505050505050505056fea265627a7a72315820e39ad34f8fd4d45446172f61f27240046b348fea46feb38bbd4942cd0613c3b264736f6c63430005100032",
  "source": "pragma solidity ^0.5.16;\r\n\r\nimport \"../interfaces/IERC1155.sol\";\r\nimport \"../interfaces/IERC1155Meta.sol\";\r\n\r\n\r\n/**\r\n * @dev Contract that acts as an operator contract.\r\n */\r\ncontract ERC1155OperatorMock {\r\n\r\n  /****************************************|\r\n  |   Public Regular Transfer Functions    |\r\n  |_______________________________________*/\r\n\r\n  /**\r\n   * @dev Allow _from or an operator to transfer tokens from one address to another\r\n   * @param _tokenAddress The address of the token contract to call\r\n   * @param _from The address which you want to send tokens from\r\n   * @param _to The address which you want to transfer to\r\n   * @param _id token id to update balance of\r\n   * @param _amount The amount of tokens of provided token ID to be transferred\r\n   * @param _data Data to pass to onERC1155Received() function if recipient is contract\r\n   */\r\n  function safeTransferFrom(\r\n    address _tokenAddress,\r\n    address _from,\r\n    address _to,\r\n    uint256 _id,\r\n    uint256 _amount,\r\n    bytes memory _data)\r\n    public\r\n  {\r\n    IERC1155(_tokenAddress).safeTransferFrom(_from, _to, _id, _amount, _data);\r\n  }\r\n\r\n  /**\r\n   * @dev transfer objects from different ids to specified address\r\n   * @param _tokenAddress The address of the token contract to call\r\n   * @param _from The address to batchTransfer objects from.\r\n   * @param _to The address to batchTransfer objects to.\r\n   * @param _ids Array of ids to update balance of\r\n   * @param _amounts Array of amount of object per id to be transferred.\r\n   * @param _data Data to pass to onERC1155Received() function if recipient is contract\r\n   * Note:  Arrays should be sorted so that all ids in a same bin are adjacent (more efficient).\r\n   */\r\n  function safeBatchTransferFrom(\r\n    address _tokenAddress,\r\n    address _from,\r\n    address _to,\r\n    uint256[] memory _ids,\r\n    uint256[] memory _amounts,\r\n    bytes memory _data)\r\n    public\r\n  {\r\n    IERC1155(_tokenAddress).safeBatchTransferFrom(_from, _to, _ids, _amounts, _data);\r\n  }\r\n\r\n  /****************************************|\r\n  |     Public Meta Transfer Functions     |\r\n  |_______________________________________*/\r\n\r\n  /**\r\n   * @notice Allows anyone with a valid signature to transfer _amount amount of a token _id on the bahalf of _from\r\n   * @param _tokenAddress The address of the token contract to call\r\n   * @param _from     Source address\r\n   * @param _to       Target address\r\n   * @param _id       ID of the token type\r\n   * @param _amount   Transfered amount\r\n   * @param _isGasFee Whether gas is reimbursed to executor or not\r\n   * @param _data     Encodes a meta transfer indicator, signature, gas payment receipt and extra transfer data\r\n   *   _data should be encoded as ((bytes32 r, bytes32 s, uint8 v, SignatureType sigType), (GasReceipt g, bytes data))\r\n   *   i.e. high level encoding should be (bytes, bytes), where the latter bytes array is a nested bytes array\r\n   */\r\n  function metaSafeTransferFrom(\r\n    address _tokenAddress,\r\n    address _from,\r\n    address _to,\r\n    uint256 _id,\r\n    uint256 _amount,\r\n    bool _isGasFee,\r\n    bytes memory _data)\r\n    public\r\n  {\r\n    IERC1155Meta(_tokenAddress).metaSafeTransferFrom(_from, _to, _id, _amount, _isGasFee, _data);\r\n  }\r\n\r\n\r\n  /**\r\n   * @notice Allows anyone with a valid signature to transfer multiple types of tokens on the bahalf of _from\r\n   * @param _tokenAddress The address of the token contract to call\r\n   * @param _from     Source addresses\r\n   * @param _to       Target addresses\r\n   * @param _ids      IDs of each token type\r\n   * @param _amounts  Transfer amounts per token type\r\n   * @param _data     Encodes a meta transfer indicator, signature, gas payment receipt and extra transfer data\r\n   *   _data should be encoded as ((bytes32 r, bytes32 s, uint8 v, SignatureType sigType), (GasReceipt g, bytes data))\r\n   *   i.e. high level encoding should be (bytes, bytes), where the latter bytes array is a nested bytes array\r\n   */\r\n  function metaSafeBatchTransferFrom(\r\n    address _tokenAddress,\r\n    address _from,\r\n    address _to,\r\n    uint256[] memory _ids,\r\n    uint256[] memory _amounts,\r\n    bool _isGasFee,\r\n    bytes memory _data)\r\n    public\r\n  {\r\n    IERC1155Meta(_tokenAddress).metaSafeBatchTransferFrom(_from, _to, _ids, _amounts, _isGasFee, _data);\r\n  }\r\n\r\n\r\n  /***********************************|\r\n  |         Operator Functions        |\r\n  |__________________________________*/\r\n\r\n  /**\r\n   * @notice Approve the passed address to spend on behalf of _from if valid signature is provided\r\n   * @param _tokenAddress The address of the token contract to call\r\n   * @param _owner     Address that wants to set operator status  _spender\r\n   * @param _operator  Address to add to the set of authorized operators\r\n   * @param _approved  True if the operator is approved, false to revoke approval\r\n   * @param _isGasFee  Whether gas will be reimbursed or not, with vlid signature\r\n   * @param _data      Encodes signature and gas payment receipt\r\n   *   _data should be encoded as ((bytes32 r, bytes32 s, uint8 v, SignatureType sigType), (GasReceipt g))\r\n   *   i.e. high level encoding should be (bytes, bytes), where the latter bytes array is a nested bytes array\r\n   */\r\n  function metaSetApprovalForAll(\r\n    address _tokenAddress,\r\n    address _owner,\r\n    address _operator,\r\n    bool _approved,\r\n    bool _isGasFee,\r\n    bytes memory _data)\r\n    public\r\n  {\r\n    IERC1155Meta(_tokenAddress).metaSetApprovalForAll(_owner, _operator, _approved, _isGasFee, _data);\r\n  }\r\n}",
  "sourcePath": "C:\\Users\\aggar\\ERC1155\\truffle-env\\contracts\\mocks\\ERC1155OperatorMock.sol",
  "compiler": {
    "name": "solc",
    "version": "0.5.16+commit.9c3226ce.Emscripten.clang"
  },
  "schemaVersion": "3.1.0",
  "updatedAt": "2020-05-19T21:47:00.136Z",
  "devdoc": {
    "details": "Contract that acts as an operator contract.",
    "methods": {
      "metaSafeBatchTransferFrom(address,address,address,uint256[],uint256[],bool,bytes)": {
        "params": {
          "_amounts": "Transfer amounts per token type",
          "_data": "Encodes a meta transfer indicator, signature, gas payment receipt and extra transfer data  _data should be encoded as ((bytes32 r, bytes32 s, uint8 v, SignatureType sigType), (GasReceipt g, bytes data))  i.e. high level encoding should be (bytes, bytes), where the latter bytes array is a nested bytes array",
          "_from": "Source addresses",
          "_ids": "IDs of each token type",
          "_to": "Target addresses",
          "_tokenAddress": "The address of the token contract to call"
        }
      },
      "metaSafeTransferFrom(address,address,address,uint256,uint256,bool,bytes)": {
        "params": {
          "_amount": "Transfered amount",
          "_data": "Encodes a meta transfer indicator, signature, gas payment receipt and extra transfer data  _data should be encoded as ((bytes32 r, bytes32 s, uint8 v, SignatureType sigType), (GasReceipt g, bytes data))  i.e. high level encoding should be (bytes, bytes), where the latter bytes array is a nested bytes array",
          "_from": "Source address",
          "_id": "ID of the token type",
          "_isGasFee": "Whether gas is reimbursed to executor or not",
          "_to": "Target address",
          "_tokenAddress": "The address of the token contract to call"
        }
      },
      "metaSetApprovalForAll(address,address,address,bool,bool,bytes)": {
        "params": {
          "_approved": "True if the operator is approved, false to revoke approval",
          "_data": "Encodes signature and gas payment receipt  _data should be encoded as ((bytes32 r, bytes32 s, uint8 v, SignatureType sigType), (GasReceipt g))  i.e. high level encoding should be (bytes, bytes), where the latter bytes array is a nested bytes array",
          "_isGasFee": "Whether gas will be reimbursed or not, with vlid signature",
          "_operator": "Address to add to the set of authorized operators",
          "_owner": "Address that wants to set operator status  _spender",
          "_tokenAddress": "The address of the token contract to call"
        }
      },
      "safeBatchTransferFrom(address,address,address,uint256[],uint256[],bytes)": {
        "details": "transfer objects from different ids to specified address",
        "params": {
          "_amounts": "Array of amount of object per id to be transferred.",
          "_data": "Data to pass to onERC1155Received() function if recipient is contract Note:  Arrays should be sorted so that all ids in a same bin are adjacent (more efficient).",
          "_from": "The address to batchTransfer objects from.",
          "_ids": "Array of ids to update balance of",
          "_to": "The address to batchTransfer objects to.",
          "_tokenAddress": "The address of the token contract to call"
        }
      },
      "safeTransferFrom(address,address,address,uint256,uint256,bytes)": {
        "details": "Allow _from or an operator to transfer tokens from one address to another",
        "params": {
          "_amount": "The amount of tokens of provided token ID to be transferred",
          "_data": "Data to pass to onERC1155Received() function if recipient is contract",
          "_from": "The address which you want to send tokens from",
          "_id": "token id to update balance of",
          "_to": "The address which you want to transfer to",
          "_tokenAddress": "The address of the token contract to call"
        }
      }
    }
  },
  "userdoc": {
    "methods": {
      "metaSafeBatchTransferFrom(address,address,address,uint256[],uint256[],bool,bytes)": {
        "notice": "Allows anyone with a valid signature to transfer multiple types of tokens on the bahalf of _from"
      },
      "metaSafeTransferFrom(address,address,address,uint256,uint256,bool,bytes)": {
        "notice": "Allows anyone with a valid signature to transfer _amount amount of a token _id on the bahalf of _from"
      },
      "metaSetApprovalForAll(address,address,address,bool,bool,bytes)": {
        "notice": "Approve the passed address to spend on behalf of _from if valid signature is provided"
      }
    }
  }
}