{
  "contractName": "OwnableMock",
  "abi": [
    {
      "anonymous": false,
      "inputs": [
        {
          "indexed": true,
          "internalType": "address",
          "name": "previousOwner",
          "type": "address"
        },
        {
          "indexed": true,
          "internalType": "address",
          "name": "newOwner",
          "type": "address"
        }
      ],
      "name": "OwnershipTransferred",
      "type": "event"
    },
    {
      "constant": true,
      "inputs": [],
      "name": "owner",
      "outputs": [
        {
          "internalType": "address",
          "name": "",
          "type": "address"
        }
      ],
      "payable": false,
      "stateMutability": "view",
      "type": "function"
    },
    {
      "constant": false,
      "inputs": [
        {
          "internalType": "address",
          "name": "_newOwner",
          "type": "address"
        }
      ],
      "name": "transferOwnership",
      "outputs": [],
      "payable": false,
      "stateMutability": "nonpayable",
      "type": "function"
    },
    {
      "constant": false,
      "inputs": [],
      "name": "ownerCall",
      "outputs": [],
      "payable": false,
      "stateMutability": "nonpayable",
      "type": "function"
    },
    {
      "constant": false,
      "inputs": [],
      "name": "nonOwnerCall",
      "outputs": [],
      "payable": false,
      "stateMutability": "nonpayable",
      "type": "function"
    }
  ],
  "bytecode": "0x608060405260006001556000600255336000806101000a81548173ffffffffffffffffffffffffffffffffffffffff021916908373ffffffffffffffffffffffffffffffffffffffff1602179055506000809054906101000a900473ffffffffffffffffffffffffffffffffffffffff1673ffffffffffffffffffffffffffffffffffffffff16600073ffffffffffffffffffffffffffffffffffffffff167f8be0079c531659141344cd1fd0a4f28419497f9722a3daafe3b4186f6b6457e060405160405180910390a3610454806100d96000396000f3fe608060405234801561001057600080fd5b506004361061004c5760003560e01c8063776e8c30146100515780638da5cb5b1461005b578063aae7aa4b146100a5578063f2fde38b146100af575b600080fd5b6100596100f3565b005b610063610106565b604051808273ffffffffffffffffffffffffffffffffffffffff1673ffffffffffffffffffffffffffffffffffffffff16815260200191505060405180910390f35b6100ad61012f565b005b6100f1600480360360208110156100c557600080fd5b81019080803573ffffffffffffffffffffffffffffffffffffffff1690602001909291905050506101e6565b005b6001600260008282540192505081905550565b60008060009054906101000a900473ffffffffffffffffffffffffffffffffffffffff16905090565b6000809054906101000a900473ffffffffffffffffffffffffffffffffffffffff1673ffffffffffffffffffffffffffffffffffffffff163373ffffffffffffffffffffffffffffffffffffffff16146101d4576040517f08c379a00000000000000000000000000000000000000000000000000000000081526004018080602001828103825260268152602001806103fa6026913960400191505060405180910390fd5b60018060008282540192505081905550565b6000809054906101000a900473ffffffffffffffffffffffffffffffffffffffff1673ffffffffffffffffffffffffffffffffffffffff163373ffffffffffffffffffffffffffffffffffffffff161461028b576040517f08c379a00000000000000000000000000000000000000000000000000000000081526004018080602001828103825260268152602001806103fa6026913960400191505060405180910390fd5b600073ffffffffffffffffffffffffffffffffffffffff168173ffffffffffffffffffffffffffffffffffffffff161415610311576040517f08c379a000000000000000000000000000000000000000000000000000000000815260040180806020018281038252602a8152602001806103d0602a913960400191505060405180910390fd5b8073ffffffffffffffffffffffffffffffffffffffff166000809054906101000a900473ffffffffffffffffffffffffffffffffffffffff1673ffffffffffffffffffffffffffffffffffffffff167f8be0079c531659141344cd1fd0a4f28419497f9722a3daafe3b4186f6b6457e060405160405180910390a3806000806101000a81548173ffffffffffffffffffffffffffffffffffffffff021916908373ffffffffffffffffffffffffffffffffffffffff1602179055505056fe4f776e61626c65237472616e736665724f776e6572736869703a20494e56414c49445f414444524553534f776e61626c65236f6e6c794f776e65723a2053454e4445525f49535f4e4f545f4f574e4552a265627a7a723158208d60568973ef25480b34247406cf04d34eeb0423367f6ecc94fc2c6e0a7854be64736f6c63430005100032",
  "source": "pragma solidity ^0.5.14;\r\n\r\nimport \"../utils/Ownable.sol\";\r\n\r\n\r\n/**\r\n * @dev Contract that is ownable\r\n */\r\ncontract OwnableMock is Ownable {\r\n  uint256 internal mockStateOwner = 0;\r\n  uint256 internal mockStateNonOwner = 0;\r\n\r\n  function ownerCall() external onlyOwner() {\r\n    mockStateOwner += 1;\r\n  }\r\n\r\n  function nonOwnerCall() external {\r\n    mockStateNonOwner += 1;\r\n  }\r\n}",
  "sourcePath": "C:\\Users\\aggar\\ERC1155\\truffle-env\\contracts\\mocks\\OwnableMock.sol",
  "compiler": {
    "name": "solc",
    "version": "0.5.16+commit.9c3226ce.Emscripten.clang"
  },
  "schemaVersion": "3.1.0",
  "updatedAt": "2020-05-19T21:47:00.176Z",
  "devdoc": {
    "details": "Contract that is ownable",
    "methods": {
      "transferOwnership(address)": {
        "params": {
          "_newOwner": "Address of the new owner"
        }
      }
    }
  },
  "userdoc": {
    "methods": {
      "owner()": {
        "notice": "Returns the address of the owner."
      },
      "transferOwnership(address)": {
        "notice": "Transfers the ownership of the contract to new address"
      }
    }
  }
}