{
  "contractName": "ProxyRegistry",
  "abi": [
    {
      "constant": true,
      "inputs": [
        {
          "internalType": "address",
          "name": "",
          "type": "address"
        }
      ],
      "name": "proxies",
      "outputs": [
        {
          "internalType": "contract OwnableDelegateProxy",
          "name": "",
          "type": "address"
        }
      ],
      "payable": false,
      "stateMutability": "view",
      "type": "function"
    }
  ],
  "bytecode": "0x608060405234801561001057600080fd5b50610116806100206000396000f3fe6080604052348015600f57600080fd5b506004361060285760003560e01c8063c455279114602d575b600080fd5b606c60048036036020811015604157600080fd5b81019080803573ffffffffffffffffffffffffffffffffffffffff16906020019092919050505060ae565b604051808273ffffffffffffffffffffffffffffffffffffffff1673ffffffffffffffffffffffffffffffffffffffff16815260200191505060405180910390f35b60006020528060005260406000206000915054906101000a900473ffffffffffffffffffffffffffffffffffffffff168156fea265627a7a723158201b6e62f605fd6f61f5cb9927772c02c9fa882d3f64eb3cf948c61c295d908a7664736f6c63430005100032",
  "source": "pragma solidity ^0.5.12;\r\n\r\nimport \"./utils/Ownable.sol\";\r\nimport './tokens/ERC1155/ERC1155.sol';\r\nimport './tokens/ERC1155/ERC1155Metadata.sol';\r\nimport './tokens/ERC1155/ERC1155MintBurn.sol';\r\nimport \"./Strings.sol\";\r\n\r\ncontract OwnableDelegateProxy { }\r\n\r\ncontract ProxyRegistry {\r\n  mapping(address => OwnableDelegateProxy) public proxies;\r\n}\r\n\r\n/**\r\n * @title ERC1155Tradable\r\n * ERC1155Tradable - ERC1155 contract that whitelists an operator address, has create and mint functionality, and supports useful standards from OpenZeppelin,\r\n  like _exists(), name(), symbol(), and totalSupply()\r\n */\r\ncontract Endurance1155 is ERC1155, ERC1155MintBurn, ERC1155Metadata, Ownable {\r\n  using Strings for string;\r\n\r\n  address proxyRegistryAddress;\r\n  uint256 private _currentTokenID = 0;\r\n  mapping (uint256 => address) public creators;\r\n  mapping (uint256 => uint256) public tokenSupply;\r\n  // Contract name\r\n  string public name;\r\n  // Contract symbol\r\n  string public symbol;\r\n\r\n  /**\r\n   * @dev Require msg.sender to be the creator of the token id\r\n   */\r\n  modifier creatorOnly(uint256 _id) {\r\n    require(creators[_id] == msg.sender, \"ERC1155Tradable#creatorOnly: ONLY_CREATOR_ALLOWED\");\r\n    _;\r\n  }\r\n\r\n  /**\r\n   * @dev Require msg.sender to own more than 0 of the token id\r\n   */\r\n  modifier ownersOnly(uint256 _id) {\r\n    require(balances[msg.sender][_id] > 0, \"ERC1155Tradable#ownersOnly: ONLY_OWNERS_ALLOWED\");\r\n    _;\r\n  }\r\n\r\n  constructor(\r\n    string memory _name,\r\n    string memory _symbol,\r\n    address _proxyRegistryAddress\r\n  ) public {\r\n    name = _name;\r\n    symbol = _symbol;\r\n    proxyRegistryAddress = _proxyRegistryAddress;\r\n  }\r\n\r\n  function uri(\r\n    uint256 _id\r\n  ) public view returns (string memory) {\r\n    require(_exists(_id), \"ERC721Tradable#uri: NONEXISTENT_TOKEN\");\r\n    return Strings.strConcat(\r\n      baseMetadataURI,\r\n      Strings.uint2str(_id)\r\n    );\r\n  }\r\n\r\n  /**\r\n    * @dev Returns the total quantity for a token ID\r\n    * @param _id uint256 ID of the token to query\r\n    * @return amount of token in existence\r\n    */\r\n  function totalSupply(\r\n    uint256 _id\r\n  ) public view returns (uint256) {\r\n    return tokenSupply[_id];\r\n  }\r\n\r\n  /**\r\n   * @dev Will update the base URL of token's URI\r\n   * @param _newBaseMetadataURI New base URL of token's URI\r\n   */\r\n  function setBaseMetadataURI(\r\n    string memory _newBaseMetadataURI\r\n  ) public onlyOwner {\r\n    _setBaseMetadataURI(_newBaseMetadataURI);\r\n  }\r\n\r\n  /**\r\n    * @dev Creates a new token type and assigns _initialSupply to an address\r\n    * NOTE: remove onlyOwner if you want third parties to create new tokens on your contract (which may change your IDs)\r\n    * @param _initialOwner address of the first owner of the token\r\n    * @param _initialSupply amount to supply the first owner\r\n    * @param _uri Optional URI for this token type\r\n    * @param _data Data to pass if receiver is contract\r\n    * @return The newly created token ID\r\n    */\r\n  function create(\r\n    address _initialOwner,\r\n    uint256 _initialSupply,\r\n    string calldata _uri,\r\n    bytes calldata _data\r\n  ) external onlyOwner returns (uint256) {\r\n\r\n    uint256 _id = _getNextTokenID();\r\n    _incrementTokenTypeId();\r\n    creators[_id] = msg.sender;\r\n\r\n    if (bytes(_uri).length > 0) {\r\n      emit URI(_uri, _id);\r\n    }\r\n\r\n    _mint(_initialOwner, _id, _initialSupply, _data);\r\n    tokenSupply[_id] = _initialSupply;\r\n    return _id;\r\n  }\r\n\r\n  /**\r\n    * @dev Mints some amount of tokens to an address\r\n    * @param _to          Address of the future owner of the token\r\n    * @param _id          Token ID to mint\r\n    * @param _quantity    Amount of tokens to mint\r\n    * @param _data        Data to pass if receiver is contract\r\n    */\r\n  function mint(\r\n    address _to,\r\n    uint256 _id,\r\n    uint256 _quantity,\r\n    bytes memory _data\r\n  ) public creatorOnly(_id) {\r\n    _mint(_to, _id, _quantity, _data);\r\n    tokenSupply[_id] = tokenSupply[_id].add(_quantity);\r\n  }\r\n\r\n  /**\r\n    * @dev Mint tokens for each id in _ids\r\n    * @param _to          The address to mint tokens to\r\n    * @param _ids         Array of ids to mint\r\n    * @param _quantities  Array of amounts of tokens to mint per id\r\n    * @param _data        Data to pass if receiver is contract\r\n    */\r\n  function batchMint(\r\n    address _to,\r\n    uint256[] memory _ids,\r\n    uint256[] memory _quantities,\r\n    bytes memory _data\r\n  ) public {\r\n    for (uint256 i = 0; i < _ids.length; i++) {\r\n      uint256 _id = _ids[i];\r\n      require(creators[_id] == msg.sender, \"ERC1155Tradable#batchMint: ONLY_CREATOR_ALLOWED\");\r\n      uint256 quantity = _quantities[i];\r\n      tokenSupply[_id] = tokenSupply[_id].add(quantity);\r\n    }\r\n    _batchMint(_to, _ids, _quantities, _data);\r\n  }\r\n\r\n  /**\r\n    * @dev Change the creator address for given tokens\r\n    * @param _to   Address of the new creator\r\n    * @param _ids  Array of Token IDs to change creator\r\n    */\r\n  function setCreator(\r\n    address _to,\r\n    uint256[] memory _ids\r\n  ) public {\r\n    require(_to != address(0), \"ERC1155Tradable#setCreator: INVALID_ADDRESS.\");\r\n    for (uint256 i = 0; i < _ids.length; i++) {\r\n      uint256 id = _ids[i];\r\n      _setCreator(_to, id);\r\n    }\r\n  }\r\n\r\n  /**\r\n   * Override isApprovedForAll to whitelist user's OpenSea proxy accounts to enable gas-free listings.\r\n   */\r\n  function isApprovedForAll(\r\n    address _owner,\r\n    address _operator\r\n  ) public view returns (bool isOperator) {\r\n    // Whitelist OpenSea proxy contract for easy trading.\r\n    ProxyRegistry proxyRegistry = ProxyRegistry(proxyRegistryAddress);\r\n    if (address(proxyRegistry.proxies(_owner)) == _operator) {\r\n      return true;\r\n    }\r\n\r\n    return ERC1155.isApprovedForAll(_owner, _operator);\r\n  }\r\n\r\n  /**\r\n    * @dev Change the creator address for given token\r\n    * @param _to   Address of the new creator\r\n    * @param _id  Token IDs to change creator of\r\n    */\r\n  function _setCreator(address _to, uint256 _id) internal creatorOnly(_id)\r\n  {\r\n      creators[_id] = _to;\r\n  }\r\n\r\n  /**\r\n    * @dev Returns whether the specified token exists by checking to see if it has a creator\r\n    * @param _id uint256 ID of the token to query the existence of\r\n    * @return bool whether the token exists\r\n    */\r\n  function _exists(\r\n    uint256 _id\r\n  ) internal view returns (bool) {\r\n    return creators[_id] != address(0);\r\n  }\r\n\r\n  /**\r\n    * @dev calculates the next token ID based on value of _currentTokenID\r\n    * @return uint256 for the next token ID\r\n    */\r\n  function _getNextTokenID() private view returns (uint256) {\r\n    return _currentTokenID.add(1);\r\n  }\r\n\r\n  /**\r\n    * @dev increments the value of _currentTokenID\r\n    */\r\n  function _incrementTokenTypeId() private  {\r\n    _currentTokenID++;\r\n  }\r\n}",
  "sourcePath": "C:\\Users\\aggar\\ERC1155\\truffle-env\\contracts\\Endurance1155.sol",
  "compiler": {
    "name": "solc",
    "version": "0.5.16+commit.9c3226ce.Emscripten.clang"
  },
  "schemaVersion": "3.1.0",
  "updatedAt": "2020-05-19T21:47:00.097Z",
  "devdoc": {
    "methods": {}
  },
  "userdoc": {
    "methods": {}
  }
}