{
  "contractName": "SignatureValidator",
  "abi": [
    {
      "constant": true,
      "inputs": [
        {
          "internalType": "address",
          "name": "_signerAddress",
          "type": "address"
        },
        {
          "internalType": "bytes32",
          "name": "_hash",
          "type": "bytes32"
        },
        {
          "internalType": "bytes",
          "name": "_data",
          "type": "bytes"
        },
        {
          "internalType": "bytes",
          "name": "_sig",
          "type": "bytes"
        }
      ],
      "name": "isValidSignature",
      "outputs": [
        {
          "internalType": "bool",
          "name": "isValid",
          "type": "bool"
        }
      ],
      "payable": false,
      "stateMutability": "view",
      "type": "function"
    }
  ],
  "bytecode": "0x608060405234801561001057600080fd5b50610d27806100206000396000f3fe608060405234801561001057600080fd5b506004361061002b5760003560e01c8063fa4e12d714610030575b600080fd5b6101aa6004803603608081101561004657600080fd5b81019080803573ffffffffffffffffffffffffffffffffffffffff169060200190929190803590602001909291908035906020019064010000000081111561008d57600080fd5b82018360208201111561009f57600080fd5b803590602001918460018302840111640100000000831117156100c157600080fd5b91908080601f016020809104026020016040519081016040528093929190818152602001838380828437600081840152601f19601f8201169050808301925050505050505091929192908035906020019064010000000081111561012457600080fd5b82018360208201111561013657600080fd5b8035906020019184600183028401116401000000008311171561015857600080fd5b91908080601f016020809104026020016040519081016040528093929190818152602001838380828437600081840152601f19601f8201169050808301925050505050505091929192905050506101c4565b604051808215151515815260200191505060405180910390f35b60008082511161021f576040517f08c379a0000000000000000000000000000000000000000000000000000000008152600401808060200182810382526043815260200180610c746043913960600191505060405180910390fd5b600073ffffffffffffffffffffffffffffffffffffffff168573ffffffffffffffffffffffffffffffffffffffff1614156102a5576040517f08c379a0000000000000000000000000000000000000000000000000000000008152600401808060200182810382526033815260200180610c416033913960400191505060405180910390fd5b60006102b083610a65565b60f81c90506005808111156102c157fe5b60ff168160ff161061031e576040517f08c379a000000000000000000000000000000000000000000000000000000000815260040180806020018281038252603a815260200180610b9a603a913960400191505060405180910390fd5b60008160ff16600581111561032f57fe5b90506000806000806000600581111561034457fe5b85600581111561035057fe5b14156103a7576040517f08c379a0000000000000000000000000000000000000000000000000000000008152600401808060200182810382526036815260200180610bd46036913960400191505060405180910390fd5b600160058111156103b457fe5b8560058111156103c057fe5b1415610511576061885114610420576040517f08c379a0000000000000000000000000000000000000000000000000000000008152600401808060200182810382526037815260200180610c0a6037913960400191505060405180910390fd5b610434600089610aee90919063ffffffff16565b925061044a602089610aee90919063ffffffff16565b91508760408151811061045957fe5b602001015160f81c60f81b60f81c935060018a85858560405160008152602001604052604051808581526020018460ff1660ff1681526020018381526020018281526020019450505050506020604051602081039080840390855afa1580156104c6573d6000803e3d6000fd5b5050506020604051035190508073ffffffffffffffffffffffffffffffffffffffff168b73ffffffffffffffffffffffffffffffffffffffff16149650869650505050505050610a5d565b6002600581111561051e57fe5b85600581111561052a57fe5b14156106c957606188511461058a576040517f08c379a0000000000000000000000000000000000000000000000000000000008152600401808060200182810382526037815260200180610c0a6037913960400191505060405180910390fd5b61059e600089610aee90919063ffffffff16565b92506105b4602089610aee90919063ffffffff16565b9150876040815181106105c357fe5b602001015160f81c60f81b60f81c935060018a60405160200180807f19457468657265756d205369676e6564204d6573736167653a0a333200000000815250601c018281526020019150506040516020818303038152906040528051906020012085858560405160008152602001604052604051808581526020018460ff1660ff1681526020018381526020018281526020019450505050506020604051602081039080840390855afa15801561067e573d6000803e3d6000fd5b5050506020604051035190508073ffffffffffffffffffffffffffffffffffffffff168b73ffffffffffffffffffffffffffffffffffffffff16149650869650505050505050610a5d565b600360058111156106d657fe5b8560058111156106e257fe5b141561089d578a73ffffffffffffffffffffffffffffffffffffffff166320c13b0b8a8a6040518363ffffffff1660e01b8152600401808060200180602001838103835285818151815260200191508051906020019080838360005b8381101561075957808201518184015260208101905061073e565b50505050905090810190601f1680156107865780820380516001836020036101000a031916815260200191505b50838103825284818151815260200191508051906020019080838360005b838110156107bf5780820151818401526020810190506107a4565b50505050905090810190601f1680156107ec5780820380516001836020036101000a031916815260200191505b5094505050505060206040518083038186803b15801561080b57600080fd5b505afa15801561081f573d6000803e3d6000fd5b505050506040513d602081101561083557600080fd5b81019080805190602001909291905050507bffffffffffffffffffffffffffffffffffffffffffffffffffffffff19166320c13b0b60e01b7bffffffffffffffffffffffffffffffffffffffffffffffffffffffff1916149650869650505050505050610a5d565b600460058111156108aa57fe5b8560058111156108b657fe5b1415610a0c578a73ffffffffffffffffffffffffffffffffffffffff16631626ba7e8b8a6040518363ffffffff1660e01b81526004018083815260200180602001828103825283818151815260200191508051906020019080838360005b8381101561092f578082015181840152602081019050610914565b50505050905090810190601f16801561095c5780820380516001836020036101000a031916815260200191505b50935050505060206040518083038186803b15801561097a57600080fd5b505afa15801561098e573d6000803e3d6000fd5b505050506040513d60208110156109a457600080fd5b81019080805190602001909291905050507bffffffffffffffffffffffffffffffffffffffffffffffffffffffff1916631626ba7e60e01b7bffffffffffffffffffffffffffffffffffffffffffffffffffffffff1916149650869650505050505050610a5d565b6040517f08c379a000000000000000000000000000000000000000000000000000000000815260040180806020018281038252603a815260200180610b9a603a913960400191505060405180910390fd5b949350505050565b600080825111610ac0576040517f08c379a0000000000000000000000000000000000000000000000000000000008152600401808060200182810382526037815260200180610b636037913960400191505060405180910390fd5b81600183510381518110610ad057fe5b602001015160f81c60f81b9050600182510380835250809050919050565b60006020820183511015610b4d576040517f08c379a000000000000000000000000000000000000000000000000000000000815260040180806020018281038252603c815260200180610cb7603c913960400191505060405180910390fd5b6020820191508183015190508090509291505056fe4c6962427974657323706f704c617374427974653a20475245415445525f5448414e5f5a45524f5f4c454e4754485f52455155495245445369676e617475726556616c696461746f7223697356616c69645369676e61747572653a20554e535550504f525445445f5349474e41545552455369676e617475726556616c696461746f7223697356616c69645369676e61747572653a20494c4c4547414c5f5349474e41545552455369676e617475726556616c696461746f7223697356616c69645369676e61747572653a204c454e4754485f39375f52455155495245445369676e617475726556616c696461746f7223697356616c69645369676e61747572653a20494e56414c49445f5349474e45525369676e617475726556616c696461746f7223697356616c69645369676e61747572653a204c454e4754485f475245415445525f5448414e5f305f52455155495245444c696242797465732372656164427974657333323a20475245415445525f4f525f455155414c5f544f5f33325f4c454e4754485f5245515549524544a265627a7a72315820815b12b78cb169bb9af47fe2d2fe39f881a7353b1e8b9090a65b2f8e03f2cd0d64736f6c63430005100032",
  "source": "pragma solidity ^0.5.16;\r\n\r\nimport \"../interfaces/IERC1271Wallet.sol\";\r\nimport \"./LibBytes.sol\";\r\nimport \"./LibEIP712.sol\";\r\n\r\n/**\r\n * @dev Contains logic for signature validation.\r\n * Signatures from wallet contracts assume ERC-1271 support (https://github.com/ethereum/EIPs/blob/master/EIPS/eip-1271.md)\r\n * Notes: Methods are strongly inspired by contracts in https://github.com/0xProject/0x-monorepo/blob/development/\r\n */\r\ncontract SignatureValidator is LibEIP712 {\r\n  using LibBytes for bytes;\r\n\r\n  /***********************************|\r\n  |             Variables             |\r\n  |__________________________________*/\r\n\r\n  // bytes4(keccak256(\"isValidSignature(bytes,bytes)\"))\r\n  bytes4 constant internal ERC1271_MAGICVALUE = 0x20c13b0b;\r\n\r\n  // bytes4(keccak256(\"isValidSignature(bytes32,bytes)\"))\r\n  bytes4 constant internal ERC1271_MAGICVALUE_BYTES32 = 0x1626ba7e;\r\n\r\n  // Allowed signature types.\r\n  enum SignatureType {\r\n    Illegal,         // 0x00, default value\r\n    EIP712,          // 0x01\r\n    EthSign,         // 0x02\r\n    WalletBytes,     // 0x03 To call isValidSignature(bytes, bytes) on wallet contract\r\n    WalletBytes32,   // 0x04 To call isValidSignature(bytes32, bytes) on wallet contract\r\n    NSignatureTypes  // 0x05, number of signature types. Always leave at end.\r\n  }\r\n\r\n\r\n  /***********************************|\r\n  |        Signature Functions        |\r\n  |__________________________________*/\r\n\r\n  /**\r\n   * @dev Verifies that a hash has been signed by the given signer.\r\n   * @param _signerAddress  Address that should have signed the given hash.\r\n   * @param _hash           Hash of the EIP-712 encoded data\r\n   * @param _data           Full EIP-712 data structure that was hashed and signed\r\n   * @param _sig            Proof that the hash has been signed by signer.\r\n   *      For non wallet signatures, _sig is expected to be an array tightly encoded as\r\n   *      (bytes32 r, bytes32 s, uint8 v, uint256 nonce, SignatureType sigType)\r\n   * @return True if the address recovered from the provided signature matches the input signer address.\r\n   */\r\n  function isValidSignature(\r\n    address _signerAddress,\r\n    bytes32 _hash,\r\n    bytes memory _data,\r\n    bytes memory _sig\r\n  )\r\n    public\r\n    view\r\n    returns (bool isValid)\r\n  {\r\n    require(\r\n      _sig.length > 0,\r\n      \"SignatureValidator#isValidSignature: LENGTH_GREATER_THAN_0_REQUIRED\"\r\n    );\r\n\r\n    require(\r\n      _signerAddress != address(0x0),\r\n      \"SignatureValidator#isValidSignature: INVALID_SIGNER\"\r\n    );\r\n\r\n    // Pop last byte off of signature byte array.\r\n    uint8 signatureTypeRaw = uint8(_sig.popLastByte());\r\n\r\n    // Ensure signature is supported\r\n    require(\r\n      signatureTypeRaw < uint8(SignatureType.NSignatureTypes),\r\n      \"SignatureValidator#isValidSignature: UNSUPPORTED_SIGNATURE\"\r\n    );\r\n\r\n    // Extract signature type\r\n    SignatureType signatureType = SignatureType(signatureTypeRaw);\r\n\r\n    // Variables are not scoped in Solidity.\r\n    uint8 v;\r\n    bytes32 r;\r\n    bytes32 s;\r\n    address recovered;\r\n\r\n    // Always illegal signature.\r\n    // This is always an implicit option since a signer can create a\r\n    // signature array with invalid type or length. We may as well make\r\n    // it an explicit option. This aids testing and analysis. It is\r\n    // also the initialization value for the enum type.\r\n    if (signatureType == SignatureType.Illegal) {\r\n      revert(\"SignatureValidator#isValidSignature: ILLEGAL_SIGNATURE\");\r\n\r\n\r\n    // Signature using EIP712\r\n    } else if (signatureType == SignatureType.EIP712) {\r\n      require(\r\n        _sig.length == 97,\r\n        \"SignatureValidator#isValidSignature: LENGTH_97_REQUIRED\"\r\n      );\r\n      r = _sig.readBytes32(0);\r\n      s = _sig.readBytes32(32);\r\n      v = uint8(_sig[64]);\r\n      recovered = ecrecover(_hash, v, r, s);\r\n      isValid = _signerAddress == recovered;\r\n      return isValid;\r\n\r\n\r\n    // Signed using web3.eth_sign() or Ethers wallet.signMessage()\r\n    } else if (signatureType == SignatureType.EthSign) {\r\n      require(\r\n        _sig.length == 97,\r\n        \"SignatureValidator#isValidSignature: LENGTH_97_REQUIRED\"\r\n      );\r\n      r = _sig.readBytes32(0);\r\n      s = _sig.readBytes32(32);\r\n      v = uint8(_sig[64]);\r\n      recovered = ecrecover(\r\n        keccak256(abi.encodePacked(\"\\x19Ethereum Signed Message:\\n32\", _hash)),\r\n        v,\r\n        r,\r\n        s\r\n      );\r\n      isValid = _signerAddress == recovered;\r\n      return isValid;\r\n\r\n\r\n    // Signature verified by wallet contract with data validation.\r\n    } else if (signatureType == SignatureType.WalletBytes) {\r\n      isValid = ERC1271_MAGICVALUE == IERC1271Wallet(_signerAddress).isValidSignature(_data, _sig);\r\n      return isValid;\r\n\r\n\r\n    // Signature verified by wallet contract without data validation.\r\n    } else if (signatureType == SignatureType.WalletBytes32) {\r\n      isValid = ERC1271_MAGICVALUE_BYTES32 == IERC1271Wallet(_signerAddress).isValidSignature(_hash, _sig);\r\n      return isValid;\r\n    }\r\n\r\n    // Anything else is illegal (We do not return false because\r\n    // the signature may actually be valid, just not in a format\r\n    // that we currently support. In this case returning false\r\n    // may lead the caller to incorrectly believe that the\r\n    // signature was invalid.)\r\n    revert(\"SignatureValidator#isValidSignature: UNSUPPORTED_SIGNATURE\");\r\n  }\r\n}",
  "sourcePath": "C:\\Users\\aggar\\ERC1155\\truffle-env\\contracts\\utils\\SignatureValidator.sol",
  "compiler": {
    "name": "solc",
    "version": "0.5.16+commit.9c3226ce.Emscripten.clang"
  },
  "schemaVersion": "3.1.0",
  "updatedAt": "2020-05-19T21:47:00.222Z",
  "devdoc": {
    "details": "Contains logic for signature validation. Signatures from wallet contracts assume ERC-1271 support (https://github.com/ethereum/EIPs/blob/master/EIPS/eip-1271.md) Notes: Methods are strongly inspired by contracts in https://github.com/0xProject/0x-monorepo/blob/development/",
    "methods": {
      "isValidSignature(address,bytes32,bytes,bytes)": {
        "details": "Verifies that a hash has been signed by the given signer.",
        "params": {
          "_data": "Full EIP-712 data structure that was hashed and signed",
          "_hash": "Hash of the EIP-712 encoded data",
          "_sig": "Proof that the hash has been signed by signer.     For non wallet signatures, _sig is expected to be an array tightly encoded as     (bytes32 r, bytes32 s, uint8 v, uint256 nonce, SignatureType sigType)",
          "_signerAddress": "Address that should have signed the given hash."
        },
        "return": "True if the address recovered from the provided signature matches the input signer address."
      }
    }
  },
  "userdoc": {
    "methods": {}
  }
}