{
  "contractName": "Transaction",
  "abi": [
    {
      "constant": true,
      "inputs": [
        {
          "internalType": "address",
          "name": "",
          "type": "address"
        }
      ],
      "name": "members",
      "outputs": [
        {
          "internalType": "address",
          "name": "memberAddress",
          "type": "address"
        },
        {
          "internalType": "string",
          "name": "pan",
          "type": "string"
        },
        {
          "internalType": "uint256",
          "name": "points",
          "type": "uint256"
        },
        {
          "internalType": "uint256",
          "name": "accBalance",
          "type": "uint256"
        },
        {
          "internalType": "bool",
          "name": "isRegistered",
          "type": "bool"
        }
      ],
      "payable": false,
      "stateMutability": "view",
      "type": "function"
    },
    {
      "constant": true,
      "inputs": [
        {
          "internalType": "uint256",
          "name": "",
          "type": "uint256"
        }
      ],
      "name": "transactionsInfo",
      "outputs": [
        {
          "internalType": "uint256",
          "name": "points",
          "type": "uint256"
        },
        {
          "internalType": "enum Transaction.TransactionType",
          "name": "transactionType",
          "type": "uint8"
        },
        {
          "internalType": "address",
          "name": "memberAddress",
          "type": "address"
        },
        {
          "internalType": "string",
          "name": "pan",
          "type": "string"
        }
      ],
      "payable": false,
      "stateMutability": "view",
      "type": "function"
    },
    {
      "constant": false,
      "inputs": [
        {
          "internalType": "string",
          "name": "_pan",
          "type": "string"
        }
      ],
      "name": "registerMember",
      "outputs": [],
      "payable": false,
      "stateMutability": "nonpayable",
      "type": "function"
    },
    {
      "constant": false,
      "inputs": [
        {
          "internalType": "uint256",
          "name": "_points",
          "type": "uint256"
        }
      ],
      "name": "earnPoints",
      "outputs": [],
      "payable": false,
      "stateMutability": "nonpayable",
      "type": "function"
    },
    {
      "constant": false,
      "inputs": [
        {
          "internalType": "uint256",
          "name": "_points",
          "type": "uint256"
        }
      ],
      "name": "usePoints",
      "outputs": [],
      "payable": false,
      "stateMutability": "nonpayable",
      "type": "function"
    },
    {
      "constant": true,
      "inputs": [],
      "name": "transactionsInfoLength",
      "outputs": [
        {
          "internalType": "uint256",
          "name": "",
          "type": "uint256"
        }
      ],
      "payable": false,
      "stateMutability": "view",
      "type": "function"
    }
  ],
  "bytecode": "0x608060405234801561001057600080fd5b50611211806100206000396000f3fe608060405234801561001057600080fd5b50600436106100625760003560e01c806308ae4b0c1461006757806309b5691114610170578063456623701461018e578063674c7099146101bc57806385932345146102b2578063a5871d91146102e0575b600080fd5b6100a96004803603602081101561007d57600080fd5b81019080803573ffffffffffffffffffffffffffffffffffffffff16906020019092919050505061039b565b604051808673ffffffffffffffffffffffffffffffffffffffff1673ffffffffffffffffffffffffffffffffffffffff1681526020018060200185815260200184815260200183151515158152602001828103825286818151815260200191508051906020019080838360005b83811015610131578082015181840152602081019050610116565b50505050905090810190601f16801561015e5780820380516001836020036101000a031916815260200191505b50965050505050505060405180910390f35b610178610496565b6040518082815260200191505060405180910390f35b6101ba600480360360208110156101a457600080fd5b81019080803590602001909291905050506104a3565b005b6101e8600480360360208110156101d257600080fd5b8101908080359060200190929190505050610976565b604051808581526020018460018111156101fe57fe5b60ff1681526020018373ffffffffffffffffffffffffffffffffffffffff1673ffffffffffffffffffffffffffffffffffffffff16815260200180602001828103825283818151815260200191508051906020019080838360005b83811015610274578082015181840152602081019050610259565b50505050905090810190601f1680156102a15780820380516001836020036101000a031916815260200191505b509550505050505060405180910390f35b6102de600480360360208110156102c857600080fd5b8101908080359060200190929190505050610a78565b005b610399600480360360208110156102f657600080fd5b810190808035906020019064010000000081111561031357600080fd5b82018360208201111561032557600080fd5b8035906020019184600183028401116401000000008311171561034757600080fd5b91908080601f016020809104026020016040519081016040528093929190818152602001838380828437600081840152601f19601f820116905080830192505050505050509192919290505050610f4f565b005b60006020528060005260406000206000915090508060000160009054906101000a900473ffffffffffffffffffffffffffffffffffffffff1690806001018054600181600116156101000203166002900480601f01602080910402602001604051908101604052809291908181526020018280546001816001161561010002031660029004801561046d5780601f106104425761010080835404028352916020019161046d565b820191906000526020600020905b81548152906001019060200180831161045057829003601f168201915b5050505050908060020154908060030154908060040160009054906101000a900460ff16905085565b6000600180549050905090565b6000803373ffffffffffffffffffffffffffffffffffffffff1673ffffffffffffffffffffffffffffffffffffffff16815260200190815260200160002060040160009054906101000a900460ff16610564576040517f08c379a000000000000000000000000000000000000000000000000000000000815260040180806020018281038252601f8152602001807f53656e646572206e6f742072656769737465726564206173204d656d6265720081525060200191505060405180910390fd5b806000803373ffffffffffffffffffffffffffffffffffffffff1673ffffffffffffffffffffffffffffffffffffffff16815260200190815260200160002060020154101561061b576040517f08c379a00000000000000000000000000000000000000000000000000000000081526004018080602001828103825260138152602001807f496e73756666696369656e7420706f696e74730000000000000000000000000081525060200191505060405180910390fd5b806000803373ffffffffffffffffffffffffffffffffffffffff1673ffffffffffffffffffffffffffffffffffffffff16815260200190815260200160002060020154036000803373ffffffffffffffffffffffffffffffffffffffff1673ffffffffffffffffffffffffffffffffffffffff16815260200190815260200160002060020181905550606481026000803373ffffffffffffffffffffffffffffffffffffffff1673ffffffffffffffffffffffffffffffffffffffff16815260200190815260200160002060030154016000803373ffffffffffffffffffffffffffffffffffffffff1673ffffffffffffffffffffffffffffffffffffffff168152602001908152602001600020600301819055506001604051806080016040528083815260200160018081111561074f57fe5b81526020016000803373ffffffffffffffffffffffffffffffffffffffff1673ffffffffffffffffffffffffffffffffffffffff16815260200190815260200160002060000160009054906101000a900473ffffffffffffffffffffffffffffffffffffffff1673ffffffffffffffffffffffffffffffffffffffff1681526020016000803373ffffffffffffffffffffffffffffffffffffffff1673ffffffffffffffffffffffffffffffffffffffff1681526020019081526020016000206001018054600181600116156101000203166002900480601f0160208091040260200160405190810160405280929190818152602001828054600181600116156101000203166002900480156108a65780601f1061087b576101008083540402835291602001916108a6565b820191906000526020600020905b81548152906001019060200180831161088957829003601f168201915b5050505050815250908060018154018082558091505090600182039060005260206000209060030201600090919290919091506000820151816000015560208201518160010160006101000a81548160ff0219169083600181111561090757fe5b021790555060408201518160010160016101000a81548173ffffffffffffffffffffffffffffffffffffffff021916908373ffffffffffffffffffffffffffffffffffffffff160217905550606082015181600201908051906020019061096f929190611113565b5050505050565b6001818154811061098357fe5b90600052602060002090600302016000915090508060000154908060010160009054906101000a900460ff16908060010160019054906101000a900473ffffffffffffffffffffffffffffffffffffffff1690806002018054600181600116156101000203166002900480601f016020809104026020016040519081016040528092919081815260200182805460018160011615610100020316600290048015610a6e5780601f10610a4357610100808354040283529160200191610a6e565b820191906000526020600020905b815481529060010190602001808311610a5157829003601f168201915b5050505050905084565b6000803373ffffffffffffffffffffffffffffffffffffffff1673ffffffffffffffffffffffffffffffffffffffff16815260200190815260200160002060040160009054906101000a900460ff16610b39576040517f08c379a000000000000000000000000000000000000000000000000000000000815260040180806020018281038252601f8152602001807f53656e646572206e6f742072656769737465726564206173204d656d6265720081525060200191505060405180910390fd5b606481026000803373ffffffffffffffffffffffffffffffffffffffff1673ffffffffffffffffffffffffffffffffffffffff168152602001908152602001600020600301541015610bf3576040517f08c379a000000000000000000000000000000000000000000000000000000000815260040180806020018281038252601a8152602001807f4e6f7420656e6f756768204163636f756e742042616c616e636500000000000081525060200191505060405180910390fd5b806000803373ffffffffffffffffffffffffffffffffffffffff1673ffffffffffffffffffffffffffffffffffffffff16815260200190815260200160002060020154016000803373ffffffffffffffffffffffffffffffffffffffff1673ffffffffffffffffffffffffffffffffffffffff16815260200190815260200160002060020181905550606481026000803373ffffffffffffffffffffffffffffffffffffffff1673ffffffffffffffffffffffffffffffffffffffff16815260200190815260200160002060030154036000803373ffffffffffffffffffffffffffffffffffffffff1673ffffffffffffffffffffffffffffffffffffffff168152602001908152602001600020600301819055506001604051806080016040528083815260200160006001811115610d2857fe5b81526020016000803373ffffffffffffffffffffffffffffffffffffffff1673ffffffffffffffffffffffffffffffffffffffff16815260200190815260200160002060000160009054906101000a900473ffffffffffffffffffffffffffffffffffffffff1673ffffffffffffffffffffffffffffffffffffffff1681526020016000803373ffffffffffffffffffffffffffffffffffffffff1673ffffffffffffffffffffffffffffffffffffffff1681526020019081526020016000206001018054600181600116156101000203166002900480601f016020809104026020016040519081016040528092919081815260200182805460018160011615610100020316600290048015610e7f5780601f10610e5457610100808354040283529160200191610e7f565b820191906000526020600020905b815481529060010190602001808311610e6257829003601f168201915b5050505050815250908060018154018082558091505090600182039060005260206000209060030201600090919290919091506000820151816000015560208201518160010160006101000a81548160ff02191690836001811115610ee057fe5b021790555060408201518160010160016101000a81548173ffffffffffffffffffffffffffffffffffffffff021916908373ffffffffffffffffffffffffffffffffffffffff1602179055506060820151816002019080519060200190610f48929190611113565b5050505050565b6000803373ffffffffffffffffffffffffffffffffffffffff1673ffffffffffffffffffffffffffffffffffffffff16815260200190815260200160002060040160009054906101000a900460ff1615610ff4576040517f08c379a00000000000000000000000000000000000000000000000000000000081526004018080602001828103825260248152602001806111b96024913960400191505060405180910390fd5b6040518060a001604052803373ffffffffffffffffffffffffffffffffffffffff168152602001828152602001600081526020016127108152602001600115158152506000803373ffffffffffffffffffffffffffffffffffffffff1673ffffffffffffffffffffffffffffffffffffffff16815260200190815260200160002060008201518160000160006101000a81548173ffffffffffffffffffffffffffffffffffffffff021916908373ffffffffffffffffffffffffffffffffffffffff16021790555060208201518160010190805190602001906110d8929190611113565b50604082015181600201556060820151816003015560808201518160040160006101000a81548160ff02191690831515021790555090505050565b828054600181600116156101000203166002900490600052602060002090601f016020900481019282601f1061115457805160ff1916838001178555611182565b82800160010185558215611182579182015b82811115611181578251825591602001919060010190611166565b5b50905061118f9190611193565b5090565b6111b591905b808211156111b1576000816000905550600101611199565b5090565b9056fe4163636f756e7420616c72656164792072656769737465726564206173204d656d626572a265627a7a723158206510ee37d0b656acfe0905004200d36b8772c6613b89c05cf07e744032b2ef6264736f6c63430005100032",
  "source": "pragma solidity ^0.5.0;\r\n\r\ncontract Transaction {\r\n\r\n    // model a member\r\n    struct Member {\r\n        address memberAddress;\r\n        string pan;\r\n        uint points;\r\n        uint accBalance;\r\n        bool isRegistered;\r\n    }\r\n\r\n    // model points transaction\r\n    enum TransactionType { Earned, Redeemed }\r\n    struct PointsTransaction {\r\n        uint points;\r\n        TransactionType transactionType;\r\n        address memberAddress;\r\n        string pan;\r\n    }\r\n\r\n    //members and partners on the network mapped with their address\r\n    mapping(address => Member) public members;\r\n\r\n    PointsTransaction[] public transactionsInfo;\r\n\r\n\r\n    //register sender as member\r\n    function registerMember (string memory _pan) public {\r\n      //check msg.sender in existing members\r\n      require(!members[msg.sender].isRegistered, \"Account already registered as Member\");\r\n\r\n      //add member account\r\n      members[msg.sender] = Member(msg.sender, _pan, 0, 10000, true);\r\n    }\r\n\r\n    //update member with points earned\r\n    function earnPoints (uint _points ) public {\r\n      // only member can call\r\n      require(members[msg.sender].isRegistered, \"Sender not registered as Member\");\r\n\r\n      require(members[msg.sender].accBalance >= _points*100, \"Not enough Account Balance\");\r\n\r\n      // update member account\r\n      members[msg.sender].points = members[msg.sender].points + _points;\r\n      members[msg.sender].accBalance = members[msg.sender].accBalance - _points*100;\r\n\r\n      // add transction\r\n      transactionsInfo.push(PointsTransaction({\r\n        points: _points,\r\n        transactionType: TransactionType.Earned,\r\n        memberAddress: members[msg.sender].memberAddress,\r\n        pan: members[msg.sender].pan\r\n      }));\r\n\r\n    }\r\n\r\n    //update member with points used\r\n    function usePoints (uint _points) public {\r\n      // only member can call\r\n      require(members[msg.sender].isRegistered, \"Sender not registered as Member\");\r\n\r\n      // verify enough points for member\r\n      require(members[msg.sender].points >= _points, \"Insufficient points\");\r\n\r\n      // update member account\r\n      members[msg.sender].points = members[msg.sender].points - _points;\r\n      members[msg.sender].accBalance = members[msg.sender].accBalance + _points*100;\r\n\r\n      // add transction\r\n      transactionsInfo.push(PointsTransaction({\r\n        points: _points,\r\n        transactionType: TransactionType.Redeemed,\r\n        memberAddress: members[msg.sender].memberAddress,\r\n        pan: members[msg.sender].pan\r\n      }));\r\n    }\r\n\r\n    //get length of transactionsInfo array\r\n    function transactionsInfoLength() public view returns(uint256) {\r\n        return transactionsInfo.length;\r\n    }\r\n\r\n}\r\n",
  "sourcePath": "C:\\Users\\aggar\\ERC1155\\truffle-env\\contracts\\Transaction.sol",
  "compiler": {
    "name": "solc",
    "version": "0.5.16+commit.9c3226ce.Emscripten.clang"
  },
  "schemaVersion": "3.1.0",
  "updatedAt": "2020-05-19T21:47:00.113Z",
  "devdoc": {
    "methods": {}
  },
  "userdoc": {
    "methods": {}
  }
}